{"contracts/NFTMarketplace.sol":{"NFTMarketplace":{"abi":[{"inputs":[],"stateMutability":"nonpayable","type":"constructor"},{"anonymous":false,"inputs":[{"indexed":true,"internalType":"address","name":"owner","type":"address"},{"indexed":true,"internalType":"address","name":"approved","type":"address"},{"indexed":true,"internalType":"uint256","name":"tokenId","type":"uint256"}],"name":"Approval","type":"event"},{"anonymous":false,"inputs":[{"indexed":true,"internalType":"address","name":"owner","type":"address"},{"indexed":true,"internalType":"address","name":"operator","type":"address"},{"indexed":false,"internalType":"bool","name":"approved","type":"bool"}],"name":"ApprovalForAll","type":"event"},{"anonymous":false,"inputs":[{"indexed":true,"internalType":"uint256","name":"listingId","type":"uint256"},{"indexed":true,"internalType":"uint256","name":"tokenId","type":"uint256"}],"name":"ListingCancelled","type":"event"},{"anonymous":false,"inputs":[{"indexed":true,"internalType":"uint256","name":"listingId","type":"uint256"},{"indexed":true,"internalType":"uint256","name":"tokenId","type":"uint256"},{"indexed":false,"internalType":"address","name":"buyer","type":"address"},{"indexed":false,"internalType":"uint256","name":"price","type":"uint256"}],"name":"NFTBought","type":"event"},{"anonymous":false,"inputs":[{"indexed":true,"internalType":"uint256","name":"listingId","type":"uint256"},{"indexed":true,"internalType":"uint256","name":"tokenId","type":"uint256"},{"indexed":false,"internalType":"address","name":"seller","type":"address"},{"indexed":false,"internalType":"uint256","name":"price","type":"uint256"}],"name":"NFTListed","type":"event"},{"anonymous":false,"inputs":[{"indexed":true,"internalType":"uint256","name":"listingId","type":"uint256"},{"indexed":true,"internalType":"uint256","name":"tokenId","type":"uint256"},{"indexed":false,"internalType":"address","name":"buyer","type":"address"},{"indexed":false,"internalType":"uint256","name":"price","type":"uint256"}],"name":"NFTResaleBought","type":"event"},{"anonymous":false,"inputs":[{"indexed":true,"internalType":"uint256","name":"listingId","type":"uint256"},{"indexed":true,"internalType":"uint256","name":"tokenId","type":"uint256"},{"indexed":false,"internalType":"address","name":"seller","type":"address"},{"indexed":false,"internalType":"uint256","name":"price","type":"uint256"}],"name":"NFTResaleListed","type":"event"},{"anonymous":false,"inputs":[{"indexed":true,"internalType":"address","name":"from","type":"address"},{"indexed":true,"internalType":"address","name":"to","type":"address"},{"indexed":true,"internalType":"uint256","name":"tokenId","type":"uint256"}],"name":"Transfer","type":"event"},{"inputs":[{"internalType":"address","name":"to","type":"address"},{"internalType":"uint256","name":"tokenId","type":"uint256"}],"name":"approve","outputs":[],"stateMutability":"nonpayable","type":"function"},{"inputs":[{"internalType":"address","name":"owner","type":"address"}],"name":"balanceOf","outputs":[{"internalType":"uint256","name":"","type":"uint256"}],"stateMutability":"view","type":"function"},{"inputs":[{"internalType":"uint256","name":"listingId","type":"uint256"}],"name":"buyNFT","outputs":[],"stateMutability":"payable","type":"function"},{"inputs":[{"internalType":"uint256","name":"listingId","type":"uint256"}],"name":"buyResaleNFT","outputs":[],"stateMutability":"payable","type":"function"},{"inputs":[{"internalType":"uint256","name":"listingId","type":"uint256"},{"internalType":"bool","name":"isResale","type":"bool"}],"name":"cancelListing","outputs":[],"stateMutability":"nonpayable","type":"function"},{"inputs":[],"name":"getActiveResaleListings","outputs":[{"components":[{"internalType":"uint256","name":"listingId","type":"uint256"},{"internalType":"uint256","name":"tokenId","type":"uint256"},{"internalType":"address","name":"seller","type":"address"},{"internalType":"uint256","name":"price","type":"uint256"},{"internalType":"bool","name":"active","type":"bool"}],"internalType":"struct NFTMarketplace.ResaleListing[]","name":"","type":"tuple[]"}],"stateMutability":"view","type":"function"},{"inputs":[{"internalType":"uint256","name":"tokenId","type":"uint256"}],"name":"getApproved","outputs":[{"internalType":"address","name":"","type":"address"}],"stateMutability":"view","type":"function"},{"inputs":[{"internalType":"address","name":"buyer","type":"address"}],"name":"getPurchasesByBuyer","outputs":[{"internalType":"uint256[]","name":"","type":"uint256[]"}],"stateMutability":"view","type":"function"},{"inputs":[{"internalType":"address","name":"owner","type":"address"},{"internalType":"address","name":"operator","type":"address"}],"name":"isApprovedForAll","outputs":[{"internalType":"bool","name":"","type":"bool"}],"stateMutability":"view","type":"function"},{"inputs":[{"internalType":"uint256","name":"price","type":"uint256"}],"name":"listNFT","outputs":[{"internalType":"uint256","name":"","type":"uint256"}],"stateMutability":"nonpayable","type":"function"},{"inputs":[{"internalType":"uint256","name":"tokenId","type":"uint256"},{"internalType":"uint256","name":"price","type":"uint256"}],"name":"listNFTForResale","outputs":[{"internalType":"uint256","name":"","type":"uint256"}],"stateMutability":"nonpayable","type":"function"},{"inputs":[{"internalType":"uint256","name":"","type":"uint256"}],"name":"listings","outputs":[{"internalType":"uint256","name":"listingId","type":"uint256"},{"internalType":"uint256","name":"tokenId","type":"uint256"},{"internalType":"address","name":"seller","type":"address"},{"internalType":"uint256","name":"price","type":"uint256"},{"internalType":"bool","name":"active","type":"bool"}],"stateMutability":"view","type":"function"},{"inputs":[],"name":"name","outputs":[{"internalType":"string","name":"","type":"string"}],"stateMutability":"view","type":"function"},{"inputs":[{"internalType":"uint256","name":"tokenId","type":"uint256"}],"name":"ownerOf","outputs":[{"internalType":"address","name":"","type":"address"}],"stateMutability":"view","type":"function"},{"inputs":[{"internalType":"uint256","name":"","type":"uint256"}],"name":"resaleListings","outputs":[{"internalType":"uint256","name":"listingId","type":"uint256"},{"internalType":"uint256","name":"tokenId","type":"uint256"},{"internalType":"address","name":"seller","type":"address"},{"internalType":"uint256","name":"price","type":"uint256"},{"internalType":"bool","name":"active","type":"bool"}],"stateMutability":"view","type":"function"},{"inputs":[{"internalType":"address","name":"from","type":"address"},{"internalType":"address","name":"to","type":"address"},{"internalType":"uint256","name":"tokenId","type":"uint256"}],"name":"safeTransferFrom","outputs":[],"stateMutability":"nonpayable","type":"function"},{"inputs":[{"internalType":"address","name":"from","type":"address"},{"internalType":"address","name":"to","type":"address"},{"internalType":"uint256","name":"tokenId","type":"uint256"},{"internalType":"bytes","name":"data","type":"bytes"}],"name":"safeTransferFrom","outputs":[],"stateMutability":"nonpayable","type":"function"},{"inputs":[{"internalType":"address","name":"operator","type":"address"},{"internalType":"bool","name":"approved","type":"bool"}],"name":"setApprovalForAll","outputs":[],"stateMutability":"nonpayable","type":"function"},{"inputs":[{"internalType":"bytes4","name":"interfaceId","type":"bytes4"}],"name":"supportsInterface","outputs":[{"internalType":"bool","name":"","type":"bool"}],"stateMutability":"view","type":"function"},{"inputs":[],"name":"symbol","outputs":[{"internalType":"string","name":"","type":"string"}],"stateMutability":"view","type":"function"},{"inputs":[{"internalType":"uint256","name":"tokenId","type":"uint256"}],"name":"tokenURI","outputs":[{"internalType":"string","name":"","type":"string"}],"stateMutability":"view","type":"function"},{"inputs":[{"internalType":"address","name":"from","type":"address"},{"internalType":"address","name":"to","type":"address"},{"internalType":"uint256","name":"tokenId","type":"uint256"}],"name":"transferFrom","outputs":[],"stateMutability":"nonpayable","type":"function"}],"evm":{"bytecode":{"linkReferences":{},"object":"60806040523480156200001157600080fd5b506040518060400160405280600981526020017f5665726946694e465400000000000000000000000000000000000000000000008152506040518060400160405280600481526020017f56464e540000000000000000000000000000000000000000000000000000000081525081600090816200008f91906200033c565b508060019081620000a191906200033c565b50505060016006819055506000600781905550600060088190555062000423565b600081519050919050565b7f4e487b7100000000000000000000000000000000000000000000000000000000600052604160045260246000fd5b7f4e487b7100000000000000000000000000000000000000000000000000000000600052602260045260246000fd5b600060028204905060018216806200014457607f821691505b6020821081036200015a5762000159620000fc565b5b50919050565b60008190508160005260206000209050919050565b60006020601f8301049050919050565b600082821b905092915050565b600060088302620001c47fffffffffffffffffffffffffffffffffffffffffffffffffffffffffffffffff8262000185565b620001d0868362000185565b95508019841693508086168417925050509392505050565b6000819050919050565b6000819050919050565b60006200021d620002176200021184620001e8565b620001f2565b620001e8565b9050919050565b6000819050919050565b6200023983620001fc565b62000251620002488262000224565b84845462000192565b825550505050565b600090565b6200026862000259565b620002758184846200022e565b505050565b5b818110156200029d57620002916000826200025e565b6001810190506200027b565b5050565b601f821115620002ec57620002b68162000160565b620002c18462000175565b81016020851015620002d1578190505b620002e9620002e08562000175565b8301826200027a565b50505b505050565b600082821c905092915050565b60006200031160001984600802620002f1565b1980831691505092915050565b60006200032c8383620002fe565b9150826002028217905092915050565b6200034782620000c2565b67ffffffffffffffff811115620003635762000362620000cd565b5b6200036f82546200012b565b6200037c828285620002a1565b600060209050601f831160018114620003b457600084156200039f578287015190505b620003ab85826200031e565b8655506200041b565b601f198416620003c48662000160565b60005b82811015620003ee57848901518255600182019150602085019450602081019050620003c7565b868310156200040e57848901516200040a601f891682620002fe565b8355505b6001600288020188555050505b505050505050565b613d3a80620004336000396000f3fe6080604052600436106101355760003560e01c80637d690e0a116100ab578063bf5ea5691161006f578063bf5ea56914610453578063c87b56dd1461046f578063d076f13f146104ac578063dd68f53a146104e9578063de74e57b14610512578063e985e9c51461055357610135565b80637d690e0a1461035857806395d89b4114610395578063a22cb465146103c0578063b41b4bd4146103e9578063b88d4fde1461042a57610135565b806323b872dd116100fd57806323b872dd1461023357806342842e0e1461025c57806351ed8288146102855780636352211e146102a15780636fafa865146102de57806370a082311461031b57610135565b806301ffc9a71461013a57806306fdde0314610177578063081812fc146101a2578063095ea7b3146101df5780630d6e989014610208575b600080fd5b34801561014657600080fd5b50610161600480360381019061015c9190612935565b610590565b60405161016e919061297d565b60405180910390f35b34801561018357600080fd5b5061018c610672565b6040516101999190612a28565b60405180910390f35b3480156101ae57600080fd5b506101c960048036038101906101c49190612a80565b610704565b6040516101d69190612aee565b60405180910390f35b3480156101eb57600080fd5b5061020660048036038101906102019190612b35565b61074a565b005b34801561021457600080fd5b5061021d610861565b60405161022a9190612cb9565b60405180910390f35b34801561023f57600080fd5b5061025a60048036038101906102559190612cdb565b610a49565b005b34801561026857600080fd5b50610283600480360381019061027e9190612cdb565b610aa9565b005b61029f600480360381019061029a9190612a80565b610ac9565b005b3480156102ad57600080fd5b506102c860048036038101906102c39190612a80565b610d3b565b6040516102d59190612aee565b60405180910390f35b3480156102ea57600080fd5b5061030560048036038101906103009190612d2e565b610dc1565b6040516103129190612d7d565b60405180910390f35b34801561032757600080fd5b50610342600480360381019061033d9190612d98565b610fd7565b60405161034f9190612d7d565b60405180910390f35b34801561036457600080fd5b5061037f600480360381019061037a9190612d98565b61108e565b60405161038c9190612e74565b60405180910390f35b3480156103a157600080fd5b506103aa611125565b6040516103b79190612a28565b60405180910390f35b3480156103cc57600080fd5b506103e760048036038101906103e29190612ec2565b6111b7565b005b3480156103f557600080fd5b50610410600480360381019061040b9190612a80565b6111cd565b604051610421959493929190612f02565b60405180910390f35b34801561043657600080fd5b50610451600480360381019061044c919061308a565b611230565b005b61046d60048036038101906104689190612a80565b611292565b005b34801561047b57600080fd5b5061049660048036038101906104919190612a80565b611504565b6040516104a39190612a28565b60405180910390f35b3480156104b857600080fd5b506104d360048036038101906104ce9190612a80565b61156c565b6040516104e09190612d7d565b60405180910390f35b3480156104f557600080fd5b50610510600480360381019061050b919061310d565b611729565b005b34801561051e57600080fd5b5061053960048036038101906105349190612a80565b6119dd565b60405161054a959493929190612f02565b60405180910390f35b34801561055f57600080fd5b5061057a6004803603810190610575919061314d565b611a40565b604051610587919061297d565b60405180910390f35b60007f80ac58cd000000000000000000000000000000000000000000000000000000007bffffffffffffffffffffffffffffffffffffffffffffffffffffffff1916827bffffffffffffffffffffffffffffffffffffffffffffffffffffffff1916148061065b57507f5b5e139f000000000000000000000000000000000000000000000000000000007bffffffffffffffffffffffffffffffffffffffffffffffffffffffff1916827bffffffffffffffffffffffffffffffffffffffffffffffffffffffff1916145b8061066b575061066a82611ad4565b5b9050919050565b606060008054610681906131bc565b80601f01602080910402602001604051908101604052809291908181526020018280546106ad906131bc565b80156106fa5780601f106106cf576101008083540402835291602001916106fa565b820191906000526020600020905b8154815290600101906020018083116106dd57829003601f168201915b5050505050905090565b600061070f82611b3e565b6004600083815260200190815260200160002060009054906101000a900473ffffffffffffffffffffffffffffffffffffffff169050919050565b600061075582610d3b565b90508073ffffffffffffffffffffffffffffffffffffffff168373ffffffffffffffffffffffffffffffffffffffff16036107c5576040517f08c379a00000000000000000000000000000000000000000000000000000000081526004016107bc9061325f565b60405180910390fd5b8073ffffffffffffffffffffffffffffffffffffffff166107e4611b89565b73ffffffffffffffffffffffffffffffffffffffff16148061081357506108128161080d611b89565b611a40565b5b610852576040517f08c379a0000000000000000000000000000000000000000000000000000000008152600401610849906132f1565b60405180910390fd5b61085c8383611b91565b505050565b6060600080600190505b60085481116108bf57600a600082815260200190815260200160002060040160009054906101000a900460ff16156108ac5781806108a890613340565b9250505b80806108b790613340565b91505061086b565b5060008167ffffffffffffffff8111156108dc576108db612f5f565b5b60405190808252806020026020018201604052801561091557816020015b610902612882565b8152602001906001900390816108fa5790505b509050600080600190505b6008548111610a3f57600a600082815260200190815260200160002060040160009054906101000a900460ff1615610a2c57600a60008281526020019081526020016000206040518060a001604052908160008201548152602001600182015481526020016002820160009054906101000a900473ffffffffffffffffffffffffffffffffffffffff1673ffffffffffffffffffffffffffffffffffffffff1673ffffffffffffffffffffffffffffffffffffffff168152602001600382015481526020016004820160009054906101000a900460ff161515151581525050838381518110610a1257610a11613388565b5b60200260200101819052508180610a2890613340565b9250505b8080610a3790613340565b915050610920565b5081935050505090565b610a5a610a54611b89565b82611c4a565b610a99576040517f08c379a0000000000000000000000000000000000000000000000000000000008152600401610a9090613429565b60405180910390fd5b610aa4838383611cdf565b505050565b610ac483838360405180602001604052806000815250611230565b505050565b610ad1611fd8565b60006009600083815260200190815260200160002090508060040160009054906101000a900460ff16610b39576040517f08c379a0000000000000000000000000000000000000000000000000000000008152600401610b3090613495565b60405180910390fd5b8060030154341015610b80576040517f08c379a0000000000000000000000000000000000000000000000000000000008152600401610b7790613501565b60405180910390fd5b60008160020160009054906101000a900473ffffffffffffffffffffffffffffffffffffffff16905060008260010154905060008360040160006101000a81548160ff021916908315150217905550610bda823383611cdf565b600b60003373ffffffffffffffffffffffffffffffffffffffff1673ffffffffffffffffffffffffffffffffffffffff1681526020019081526020016000208190806001815401808255809150506001900390600052602060002001600090919091909150558173ffffffffffffffffffffffffffffffffffffffff166108fc84600301549081150290604051600060405180830381858888f19350505050158015610c8a573d6000803e3d6000fd5b508260030154341115610cee573373ffffffffffffffffffffffffffffffffffffffff166108fc846003015434610cc19190613521565b9081150290604051600060405180830381858888f19350505050158015610cec573d6000803e3d6000fd5b505b80847feac73c4c02645b139079049d236ca25abf79bbd94604cb974babfb934bb3aed1338660030154604051610d25929190613555565b60405180910390a3505050610d38612027565b50565b600080610d4783612031565b9050600073ffffffffffffffffffffffffffffffffffffffff168173ffffffffffffffffffffffffffffffffffffffff1603610db8576040517f08c379a0000000000000000000000000000000000000000000000000000000008152600401610daf906135ca565b60405180910390fd5b80915050919050565b6000610dcb611fd8565b3373ffffffffffffffffffffffffffffffffffffffff16610deb84610d3b565b73ffffffffffffffffffffffffffffffffffffffff1614610e41576040517f08c379a0000000000000000000000000000000000000000000000000000000008152600401610e3890613636565b60405180910390fd5b60008211610e84576040517f08c379a0000000000000000000000000000000000000000000000000000000008152600401610e7b906136a2565b60405180910390fd5b60086000815480929190610e9790613340565b9190505550600060085490506040518060a001604052808281526020018581526020013373ffffffffffffffffffffffffffffffffffffffff16815260200184815260200160011515815250600a6000838152602001908152602001600020600082015181600001556020820151816001015560408201518160020160006101000a81548173ffffffffffffffffffffffffffffffffffffffff021916908373ffffffffffffffffffffffffffffffffffffffff1602179055506060820151816003015560808201518160040160006101000a81548160ff021916908315150217905550905050610f8a3330600161206e565b83817ff50549692a238ddf5f62853d8247b5f0563ac8a68abe5ef417dbfbe9461a1d2e3386604051610fbd929190613555565b60405180910390a380915050610fd1612027565b92915050565b60008073ffffffffffffffffffffffffffffffffffffffff168273ffffffffffffffffffffffffffffffffffffffff1603611047576040517f08c379a000000000000000000000000000000000000000000000000000000000815260040161103e90613734565b60405180910390fd5b600360008373ffffffffffffffffffffffffffffffffffffffff1673ffffffffffffffffffffffffffffffffffffffff168152602001908152602001600020549050919050565b6060600b60008373ffffffffffffffffffffffffffffffffffffffff1673ffffffffffffffffffffffffffffffffffffffff16815260200190815260200160002080548060200260200160405190810160405280929190818152602001828054801561111957602002820191906000526020600020905b815481526020019060010190808311611105575b50505050509050919050565b606060018054611134906131bc565b80601f0160208091040260200160405190810160405280929190818152602001828054611160906131bc565b80156111ad5780601f10611182576101008083540402835291602001916111ad565b820191906000526020600020905b81548152906001019060200180831161119057829003601f168201915b5050505050905090565b6111c96111c2611b89565b838361206e565b5050565b600a6020528060005260406000206000915090508060000154908060010154908060020160009054906101000a900473ffffffffffffffffffffffffffffffffffffffff16908060030154908060040160009054906101000a900460ff16905085565b61124161123b611b89565b83611c4a565b611280576040517f08c379a000000000000000000000000000000000000000000000000000000000815260040161127790613429565b60405180910390fd5b61128c848484846121da565b50505050565b61129a611fd8565b6000600a600083815260200190815260200160002090508060040160009054906101000a900460ff16611302576040517f08c379a00000000000000000000000000000000000000000000000000000000081526004016112f9906137a0565b60405180910390fd5b8060030154341015611349576040517f08c379a000000000000000000000000000000000000000000000000000000000815260040161134090613501565b60405180910390fd5b60008160020160009054906101000a900473ffffffffffffffffffffffffffffffffffffffff16905060008260010154905060008360040160006101000a81548160ff0219169083151502179055506113a3823383611cdf565b600b60003373ffffffffffffffffffffffffffffffffffffffff1673ffffffffffffffffffffffffffffffffffffffff1681526020019081526020016000208190806001815401808255809150506001900390600052602060002001600090919091909150558173ffffffffffffffffffffffffffffffffffffffff166108fc84600301549081150290604051600060405180830381858888f19350505050158015611453573d6000803e3d6000fd5b5082600301543411156114b7573373ffffffffffffffffffffffffffffffffffffffff166108fc84600301543461148a9190613521565b9081150290604051600060405180830381858888f193505050501580156114b5573d6000803e3d6000fd5b505b80847f1c9375f89808b9a56b39abeb74c38fc44c6983f5ebf62cd881ab29854c4968d33386600301546040516114ee929190613555565b60405180910390a3505050611501612027565b50565b606061150f82611b3e565b6000611519612236565b905060008151116115395760405180602001604052806000815250611564565b806115438461224d565b6040516020016115549291906137fc565b6040516020818303038152906040525b915050919050565b6000611576611fd8565b600082116115b9576040517f08c379a00000000000000000000000000000000000000000000000000000000081526004016115b0906136a2565b60405180910390fd5b600760008154809291906115cc90613340565b919050555060006007549050600860008154809291906115eb90613340565b919050555060006008549050611601338361231b565b6040518060a001604052808281526020018381526020013373ffffffffffffffffffffffffffffffffffffffff1681526020018581526020016001151581525060096000838152602001908152602001600020600082015181600001556020820151816001015560408201518160020160006101000a81548173ffffffffffffffffffffffffffffffffffffffff021916908373ffffffffffffffffffffffffffffffffffffffff1602179055506060820151816003015560808201518160040160006101000a81548160ff02191690831515021790555090505081817f0b17e24a391fc1c737bef358a1bf52f287f106279d5328d0b3dacd826d74b236338760405161170f929190613555565b60405180910390a38092505050611724612027565b919050565b611731611fd8565b8015611886576000600a600084815260200190815260200160002090503373ffffffffffffffffffffffffffffffffffffffff168160020160009054906101000a900473ffffffffffffffffffffffffffffffffffffffff1673ffffffffffffffffffffffffffffffffffffffff16146117e0576040517f08c379a00000000000000000000000000000000000000000000000000000000081526004016117d79061386c565b60405180910390fd5b8060040160009054906101000a900460ff16611831576040517f08c379a000000000000000000000000000000000000000000000000000000000815260040161182890613495565b60405180910390fd5b60008160040160006101000a81548160ff0219169083151502179055508060010154837fafd0a85a3f09cebbc7d9fcde08e8a7d0ebb0aa7d768a030915c3816a053d3c7a60405160405180910390a3506119d1565b60006009600084815260200190815260200160002090503373ffffffffffffffffffffffffffffffffffffffff168160020160009054906101000a900473ffffffffffffffffffffffffffffffffffffffff1673ffffffffffffffffffffffffffffffffffffffff161461192f576040517f08c379a00000000000000000000000000000000000000000000000000000000081526004016119269061386c565b60405180910390fd5b8060040160009054906101000a900460ff16611980576040517f08c379a000000000000000000000000000000000000000000000000000000000815260040161197790613495565b60405180910390fd5b60008160040160006101000a81548160ff0219169083151502179055508060010154837fafd0a85a3f09cebbc7d9fcde08e8a7d0ebb0aa7d768a030915c3816a053d3c7a60405160405180910390a3505b6119d9612027565b5050565b60096020528060005260406000206000915090508060000154908060010154908060020160009054906101000a900473ffffffffffffffffffffffffffffffffffffffff16908060030154908060040160009054906101000a900460ff16905085565b6000600560008473ffffffffffffffffffffffffffffffffffffffff1673ffffffffffffffffffffffffffffffffffffffff16815260200190815260200160002060008373ffffffffffffffffffffffffffffffffffffffff1673ffffffffffffffffffffffffffffffffffffffff16815260200190815260200160002060009054906101000a900460ff16905092915050565b60007f01ffc9a7000000000000000000000000000000000000000000000000000000007bffffffffffffffffffffffffffffffffffffffffffffffffffffffff1916827bffffffffffffffffffffffffffffffffffffffffffffffffffffffff1916149050919050565b611b4781612538565b611b86576040517f08c379a0000000000000000000000000000000000000000000000000000000008152600401611b7d906135ca565b60405180910390fd5b50565b600033905090565b816004600083815260200190815260200160002060006101000a81548173ffffffffffffffffffffffffffffffffffffffff021916908373ffffffffffffffffffffffffffffffffffffffff160217905550808273ffffffffffffffffffffffffffffffffffffffff16611c0483610d3b565b73ffffffffffffffffffffffffffffffffffffffff167f8c5be1e5ebec7d5bd14f71427d1e84f3dd0314c0f7b2291e5b200ac8c7c3b92560405160405180910390a45050565b600080611c5683610d3b565b90508073ffffffffffffffffffffffffffffffffffffffff168473ffffffffffffffffffffffffffffffffffffffff161480611c985750611c978185611a40565b5b80611cd657508373ffffffffffffffffffffffffffffffffffffffff16611cbe84610704565b73ffffffffffffffffffffffffffffffffffffffff16145b91505092915050565b8273ffffffffffffffffffffffffffffffffffffffff16611cff82610d3b565b73ffffffffffffffffffffffffffffffffffffffff1614611d55576040517f08c379a0000000000000000000000000000000000000000000000000000000008152600401611d4c906138fe565b60405180910390fd5b600073ffffffffffffffffffffffffffffffffffffffff168273ffffffffffffffffffffffffffffffffffffffff1603611dc4576040517f08c379a0000000000000000000000000000000000000000000000000000000008152600401611dbb90613990565b60405180910390fd5b611dd18383836001612579565b8273ffffffffffffffffffffffffffffffffffffffff16611df182610d3b565b73ffffffffffffffffffffffffffffffffffffffff1614611e47576040517f08c379a0000000000000000000000000000000000000000000000000000000008152600401611e3e906138fe565b60405180910390fd5b6004600082815260200190815260200160002060006101000a81549073ffffffffffffffffffffffffffffffffffffffff02191690556001600360008573ffffffffffffffffffffffffffffffffffffffff1673ffffffffffffffffffffffffffffffffffffffff168152602001908152602001600020600082825403925050819055506001600360008473ffffffffffffffffffffffffffffffffffffffff1673ffffffffffffffffffffffffffffffffffffffff16815260200190815260200160002060008282540192505081905550816002600083815260200190815260200160002060006101000a81548173ffffffffffffffffffffffffffffffffffffffff021916908373ffffffffffffffffffffffffffffffffffffffff160217905550808273ffffffffffffffffffffffffffffffffffffffff168473ffffffffffffffffffffffffffffffffffffffff167fddf252ad1be2c89b69c2b068fc378daa952ba7f163c4a11628f55a4df523b3ef60405160405180910390a4611fd3838383600161257f565b505050565b60026006540361201d576040517f08c379a0000000000000000000000000000000000000000000000000000000008152600401612014906139fc565b60405180910390fd5b6002600681905550565b6001600681905550565b60006002600083815260200190815260200160002060009054906101000a900473ffffffffffffffffffffffffffffffffffffffff169050919050565b8173ffffffffffffffffffffffffffffffffffffffff168373ffffffffffffffffffffffffffffffffffffffff16036120dc576040517f08c379a00000000000000000000000000000000000000000000000000000000081526004016120d390613a68565b60405180910390fd5b80600560008573ffffffffffffffffffffffffffffffffffffffff1673ffffffffffffffffffffffffffffffffffffffff16815260200190815260200160002060008473ffffffffffffffffffffffffffffffffffffffff1673ffffffffffffffffffffffffffffffffffffffff16815260200190815260200160002060006101000a81548160ff0219169083151502179055508173ffffffffffffffffffffffffffffffffffffffff168373ffffffffffffffffffffffffffffffffffffffff167f17307eab39ab6107e8899845ad3d59bd9653f200f220920489ca2b5937696c31836040516121cd919061297d565b60405180910390a3505050565b6121e5848484611cdf565b6121f184848484612585565b612230576040517f08c379a000000000000000000000000000000000000000000000000000000000815260040161222790613afa565b60405180910390fd5b50505050565b606060405180602001604052806000815250905090565b60606000600161225c8461270c565b01905060008167ffffffffffffffff81111561227b5761227a612f5f565b5b6040519080825280601f01601f1916602001820160405280156122ad5781602001600182028036833780820191505090505b509050600082602001820190505b600115612310578080600190039150507f3031323334353637383961626364656600000000000000000000000000000000600a86061a8153600a858161230457612303613b1a565b5b049450600085036122bb575b819350505050919050565b600073ffffffffffffffffffffffffffffffffffffffff168273ffffffffffffffffffffffffffffffffffffffff160361238a576040517f08c379a000000000000000000000000000000000000000000000000000000000815260040161238190613b95565b60405180910390fd5b61239381612538565b156123d3576040517f08c379a00000000000000000000000000000000000000000000000000000000081526004016123ca90613c01565b60405180910390fd5b6123e1600083836001612579565b6123ea81612538565b1561242a576040517f08c379a000000000000000000000000000000000000000000000000000000000815260040161242190613c01565b60405180910390fd5b6001600360008473ffffffffffffffffffffffffffffffffffffffff1673ffffffffffffffffffffffffffffffffffffffff16815260200190815260200160002060008282540192505081905550816002600083815260200190815260200160002060006101000a81548173ffffffffffffffffffffffffffffffffffffffff021916908373ffffffffffffffffffffffffffffffffffffffff160217905550808273ffffffffffffffffffffffffffffffffffffffff16600073ffffffffffffffffffffffffffffffffffffffff167fddf252ad1be2c89b69c2b068fc378daa952ba7f163c4a11628f55a4df523b3ef60405160405180910390a461253460008383600161257f565b5050565b60008073ffffffffffffffffffffffffffffffffffffffff1661255a83612031565b73ffffffffffffffffffffffffffffffffffffffff1614159050919050565b50505050565b50505050565b60006125a68473ffffffffffffffffffffffffffffffffffffffff1661285f565b156126ff578373ffffffffffffffffffffffffffffffffffffffff1663150b7a026125cf611b89565b8786866040518563ffffffff1660e01b81526004016125f19493929190613c76565b6020604051808303816000875af192505050801561262d57506040513d601f19601f8201168201806040525081019061262a9190613cd7565b60015b6126af573d806000811461265d576040519150601f19603f3d011682016040523d82523d6000602084013e612662565b606091505b5060008151036126a7576040517f08c379a000000000000000000000000000000000000000000000000000000000815260040161269e90613afa565b60405180910390fd5b805181602001fd5b63150b7a0260e01b7bffffffffffffffffffffffffffffffffffffffffffffffffffffffff1916817bffffffffffffffffffffffffffffffffffffffffffffffffffffffff191614915050612704565b600190505b949350505050565b600080600090507a184f03e93ff9f4daa797ed6e38ed64bf6a1f010000000000000000831061276a577a184f03e93ff9f4daa797ed6e38ed64bf6a1f01000000000000000083816127605761275f613b1a565b5b0492506040810190505b6d04ee2d6d415b85acef810000000083106127a7576d04ee2d6d415b85acef8100000000838161279d5761279c613b1a565b5b0492506020810190505b662386f26fc1000083106127d657662386f26fc1000083816127cc576127cb613b1a565b5b0492506010810190505b6305f5e10083106127ff576305f5e10083816127f5576127f4613b1a565b5b0492506008810190505b612710831061282457612710838161281a57612819613b1a565b5b0492506004810190505b60648310612847576064838161283d5761283c613b1a565b5b0492506002810190505b600a8310612856576001810190505b80915050919050565b6000808273ffffffffffffffffffffffffffffffffffffffff163b119050919050565b6040518060a001604052806000815260200160008152602001600073ffffffffffffffffffffffffffffffffffffffff168152602001600081526020016000151581525090565b6000604051905090565b600080fd5b600080fd5b60007fffffffff0000000000000000000000000000000000000000000000000000000082169050919050565b612912816128dd565b811461291d57600080fd5b50565b60008135905061292f81612909565b92915050565b60006020828403121561294b5761294a6128d3565b5b600061295984828501612920565b91505092915050565b60008115159050919050565b61297781612962565b82525050565b6000602082019050612992600083018461296e565b92915050565b600081519050919050565b600082825260208201905092915050565b60005b838110156129d25780820151818401526020810190506129b7565b60008484015250505050565b6000601f19601f8301169050919050565b60006129fa82612998565b612a0481856129a3565b9350612a148185602086016129b4565b612a1d816129de565b840191505092915050565b60006020820190508181036000830152612a4281846129ef565b905092915050565b6000819050919050565b612a5d81612a4a565b8114612a6857600080fd5b50565b600081359050612a7a81612a54565b92915050565b600060208284031215612a9657612a956128d3565b5b6000612aa484828501612a6b565b91505092915050565b600073ffffffffffffffffffffffffffffffffffffffff82169050919050565b6000612ad882612aad565b9050919050565b612ae881612acd565b82525050565b6000602082019050612b036000830184612adf565b92915050565b612b1281612acd565b8114612b1d57600080fd5b50565b600081359050612b2f81612b09565b92915050565b60008060408385031215612b4c57612b4b6128d3565b5b6000612b5a85828601612b20565b9250506020612b6b85828601612a6b565b9150509250929050565b600081519050919050565b600082825260208201905092915050565b6000819050602082019050919050565b612baa81612a4a565b82525050565b612bb981612acd565b82525050565b612bc881612962565b82525050565b60a082016000820151612be46000850182612ba1565b506020820151612bf76020850182612ba1565b506040820151612c0a6040850182612bb0565b506060820151612c1d6060850182612ba1565b506080820151612c306080850182612bbf565b50505050565b6000612c428383612bce565b60a08301905092915050565b6000602082019050919050565b6000612c6682612b75565b612c708185612b80565b9350612c7b83612b91565b8060005b83811015612cac578151612c938882612c36565b9750612c9e83612c4e565b925050600181019050612c7f565b5085935050505092915050565b60006020820190508181036000830152612cd38184612c5b565b905092915050565b600080600060608486031215612cf457612cf36128d3565b5b6000612d0286828701612b20565b9350506020612d1386828701612b20565b9250506040612d2486828701612a6b565b9150509250925092565b60008060408385031215612d4557612d446128d3565b5b6000612d5385828601612a6b565b9250506020612d6485828601612a6b565b9150509250929050565b612d7781612a4a565b82525050565b6000602082019050612d926000830184612d6e565b92915050565b600060208284031215612dae57612dad6128d3565b5b6000612dbc84828501612b20565b91505092915050565b600081519050919050565b600082825260208201905092915050565b6000819050602082019050919050565b6000612dfd8383612ba1565b60208301905092915050565b6000602082019050919050565b6000612e2182612dc5565b612e2b8185612dd0565b9350612e3683612de1565b8060005b83811015612e67578151612e4e8882612df1565b9750612e5983612e09565b925050600181019050612e3a565b5085935050505092915050565b60006020820190508181036000830152612e8e8184612e16565b905092915050565b612e9f81612962565b8114612eaa57600080fd5b50565b600081359050612ebc81612e96565b92915050565b60008060408385031215612ed957612ed86128d3565b5b6000612ee785828601612b20565b9250506020612ef885828601612ead565b9150509250929050565b600060a082019050612f176000830188612d6e565b612f246020830187612d6e565b612f316040830186612adf565b612f3e6060830185612d6e565b612f4b608083018461296e565b9695505050505050565b600080fd5b600080fd5b7f4e487b7100000000000000000000000000000000000000000000000000000000600052604160045260246000fd5b612f97826129de565b810181811067ffffffffffffffff82111715612fb657612fb5612f5f565b5b80604052505050565b6000612fc96128c9565b9050612fd58282612f8e565b919050565b600067ffffffffffffffff821115612ff557612ff4612f5f565b5b612ffe826129de565b9050602081019050919050565b82818337600083830152505050565b600061302d61302884612fda565b612fbf565b90508281526020810184848401111561304957613048612f5a565b5b61305484828561300b565b509392505050565b600082601f83011261307157613070612f55565b5b813561308184826020860161301a565b91505092915050565b600080600080608085870312156130a4576130a36128d3565b5b60006130b287828801612b20565b94505060206130c387828801612b20565b93505060406130d487828801612a6b565b925050606085013567ffffffffffffffff8111156130f5576130f46128d8565b5b6131018782880161305c565b91505092959194509250565b60008060408385031215613124576131236128d3565b5b600061313285828601612a6b565b925050602061314385828601612ead565b9150509250929050565b60008060408385031215613164576131636128d3565b5b600061317285828601612b20565b925050602061318385828601612b20565b9150509250929050565b7f4e487b7100000000000000000000000000000000000000000000000000000000600052602260045260246000fd5b600060028204905060018216806131d457607f821691505b6020821081036131e7576131e661318d565b5b50919050565b7f4552433732313a20617070726f76616c20746f2063757272656e74206f776e6560008201527f7200000000000000000000000000000000000000000000000000000000000000602082015250565b60006132496021836129a3565b9150613254826131ed565b604082019050919050565b600060208201905081810360008301526132788161323c565b9050919050565b7f4552433732313a20617070726f76652063616c6c6572206973206e6f7420746f60008201527f6b656e206f776e6572206f7220617070726f76656420666f7220616c6c000000602082015250565b60006132db603d836129a3565b91506132e68261327f565b604082019050919050565b6000602082019050818103600083015261330a816132ce565b9050919050565b7f4e487b7100000000000000000000000000000000000000000000000000000000600052601160045260246000fd5b600061334b82612a4a565b91507fffffffffffffffffffffffffffffffffffffffffffffffffffffffffffffffff820361337d5761337c613311565b5b600182019050919050565b7f4e487b7100000000000000000000000000000000000000000000000000000000600052603260045260246000fd5b7f4552433732313a2063616c6c6572206973206e6f7420746f6b656e206f776e6560008201527f72206f7220617070726f76656400000000000000000000000000000000000000602082015250565b6000613413602d836129a3565b915061341e826133b7565b604082019050919050565b6000602082019050818103600083015261344281613406565b9050919050565b7f4c697374696e67206973206e6f74206163746976650000000000000000000000600082015250565b600061347f6015836129a3565b915061348a82613449565b602082019050919050565b600060208201905081810360008301526134ae81613472565b9050919050565b7f496e73756666696369656e74207061796d656e74000000000000000000000000600082015250565b60006134eb6014836129a3565b91506134f6826134b5565b602082019050919050565b6000602082019050818103600083015261351a816134de565b9050919050565b600061352c82612a4a565b915061353783612a4a565b925082820390508181111561354f5761354e613311565b5b92915050565b600060408201905061356a6000830185612adf565b6135776020830184612d6e565b9392505050565b7f4552433732313a20696e76616c696420746f6b656e2049440000000000000000600082015250565b60006135b46018836129a3565b91506135bf8261357e565b602082019050919050565b600060208201905081810360008301526135e3816135a7565b9050919050565b7f4e6f7420746865206f776e657200000000000000000000000000000000000000600082015250565b6000613620600d836129a3565b915061362b826135ea565b602082019050919050565b6000602082019050818103600083015261364f81613613565b9050919050565b7f5072696365206d7573742062652067726561746572207468616e207a65726f00600082015250565b600061368c601f836129a3565b915061369782613656565b602082019050919050565b600060208201905081810360008301526136bb8161367f565b9050919050565b7f4552433732313a2061646472657373207a65726f206973206e6f74206120766160008201527f6c6964206f776e65720000000000000000000000000000000000000000000000602082015250565b600061371e6029836129a3565b9150613729826136c2565b604082019050919050565b6000602082019050818103600083015261374d81613711565b9050919050565b7f526573616c65206c697374696e67206973206e6f742061637469766500000000600082015250565b600061378a601c836129a3565b915061379582613754565b602082019050919050565b600060208201905081810360008301526137b98161377d565b9050919050565b600081905092915050565b60006137d682612998565b6137e081856137c0565b93506137f08185602086016129b4565b80840191505092915050565b600061380882856137cb565b915061381482846137cb565b91508190509392505050565b7f4e6f74207468652073656c6c6572000000000000000000000000000000000000600082015250565b6000613856600e836129a3565b915061386182613820565b602082019050919050565b6000602082019050818103600083015261388581613849565b9050919050565b7f4552433732313a207472616e736665722066726f6d20696e636f72726563742060008201527f6f776e6572000000000000000000000000000000000000000000000000000000602082015250565b60006138e86025836129a3565b91506138f38261388c565b604082019050919050565b60006020820190508181036000830152613917816138db565b9050919050565b7f4552433732313a207472616e7366657220746f20746865207a65726f2061646460008201527f7265737300000000000000000000000000000000000000000000000000000000602082015250565b600061397a6024836129a3565b91506139858261391e565b604082019050919050565b600060208201905081810360008301526139a98161396d565b9050919050565b7f5265656e7472616e637947756172643a207265656e7472616e742063616c6c00600082015250565b60006139e6601f836129a3565b91506139f1826139b0565b602082019050919050565b60006020820190508181036000830152613a15816139d9565b9050919050565b7f4552433732313a20617070726f766520746f2063616c6c657200000000000000600082015250565b6000613a526019836129a3565b9150613a5d82613a1c565b602082019050919050565b60006020820190508181036000830152613a8181613a45565b9050919050565b7f4552433732313a207472616e7366657220746f206e6f6e20455243373231526560008201527f63656976657220696d706c656d656e7465720000000000000000000000000000602082015250565b6000613ae46032836129a3565b9150613aef82613a88565b604082019050919050565b60006020820190508181036000830152613b1381613ad7565b9050919050565b7f4e487b7100000000000000000000000000000000000000000000000000000000600052601260045260246000fd5b7f4552433732313a206d696e7420746f20746865207a65726f2061646472657373600082015250565b6000613b7f6020836129a3565b9150613b8a82613b49565b602082019050919050565b60006020820190508181036000830152613bae81613b72565b9050919050565b7f4552433732313a20746f6b656e20616c7265616479206d696e74656400000000600082015250565b6000613beb601c836129a3565b9150613bf682613bb5565b602082019050919050565b60006020820190508181036000830152613c1a81613bde565b9050919050565b600081519050919050565b600082825260208201905092915050565b6000613c4882613c21565b613c528185613c2c565b9350613c628185602086016129b4565b613c6b816129de565b840191505092915050565b6000608082019050613c8b6000830187612adf565b613c986020830186612adf565b613ca56040830185612d6e565b8181036060830152613cb78184613c3d565b905095945050505050565b600081519050613cd181612909565b92915050565b600060208284031215613ced57613cec6128d3565b5b6000613cfb84828501613cc2565b9150509291505056fea26469706673582212208a97d50b4d25d0473de60189a25136f7534be2a0e859b18bb2a7f80d3120b8bd64736f6c63430008140033","opcodes":"PUSH1 0x80 PUSH1 0x40 MSTORE CALLVALUE DUP1 ISZERO PUSH3 0x11 JUMPI PUSH1 0x0 DUP1 REVERT JUMPDEST POP PUSH1 0x40 MLOAD DUP1 PUSH1 0x40 ADD PUSH1 0x40 MSTORE DUP1 PUSH1 0x9 DUP2 MSTORE PUSH1 0x20 ADD PUSH32 0x5665726946694E46540000000000000000000000000000000000000000000000 DUP2 MSTORE POP PUSH1 0x40 MLOAD DUP1 PUSH1 0x40 ADD PUSH1 0x40 MSTORE DUP1 PUSH1 0x4 DUP2 MSTORE PUSH1 0x20 ADD PUSH32 0x56464E5400000000000000000000000000000000000000000000000000000000 DUP2 MSTORE POP DUP2 PUSH1 0x0 SWAP1 DUP2 PUSH3 0x8F SWAP2 SWAP1 PUSH3 0x33C JUMP JUMPDEST POP DUP1 PUSH1 0x1 SWAP1 DUP2 PUSH3 0xA1 SWAP2 SWAP1 PUSH3 0x33C JUMP JUMPDEST POP POP POP PUSH1 0x1 PUSH1 0x6 DUP2 SWAP1 SSTORE POP PUSH1 0x0 PUSH1 0x7 DUP2 SWAP1 SSTORE POP PUSH1 0x0 PUSH1 0x8 DUP2 SWAP1 SSTORE POP PUSH3 0x423 JUMP JUMPDEST PUSH1 0x0 DUP2 MLOAD SWAP1 POP SWAP2 SWAP1 POP JUMP JUMPDEST PUSH32 0x4E487B7100000000000000000000000000000000000000000000000000000000 PUSH1 0x0 MSTORE PUSH1 0x41 PUSH1 0x4 MSTORE PUSH1 0x24 PUSH1 0x0 REVERT JUMPDEST PUSH32 0x4E487B7100000000000000000000000000000000000000000000000000000000 PUSH1 0x0 MSTORE PUSH1 0x22 PUSH1 0x4 MSTORE PUSH1 0x24 PUSH1 0x0 REVERT JUMPDEST PUSH1 0x0 PUSH1 0x2 DUP3 DIV SWAP1 POP PUSH1 0x1 DUP3 AND DUP1 PUSH3 0x144 JUMPI PUSH1 0x7F DUP3 AND SWAP2 POP JUMPDEST PUSH1 0x20 DUP3 LT DUP2 SUB PUSH3 0x15A JUMPI PUSH3 0x159 PUSH3 0xFC JUMP JUMPDEST JUMPDEST POP SWAP2 SWAP1 POP JUMP JUMPDEST PUSH1 0x0 DUP2 SWAP1 POP DUP2 PUSH1 0x0 MSTORE PUSH1 0x20 PUSH1 0x0 KECCAK256 SWAP1 POP SWAP2 SWAP1 POP JUMP JUMPDEST PUSH1 0x0 PUSH1 0x20 PUSH1 0x1F DUP4 ADD DIV SWAP1 POP SWAP2 SWAP1 POP JUMP JUMPDEST PUSH1 0x0 DUP3 DUP3 SHL SWAP1 POP SWAP3 SWAP2 POP POP JUMP JUMPDEST PUSH1 0x0 PUSH1 0x8 DUP4 MUL PUSH3 0x1C4 PUSH32 0xFFFFFFFFFFFFFFFFFFFFFFFFFFFFFFFFFFFFFFFFFFFFFFFFFFFFFFFFFFFFFFFF DUP3 PUSH3 0x185 JUMP JUMPDEST PUSH3 0x1D0 DUP7 DUP4 PUSH3 0x185 JUMP JUMPDEST SWAP6 POP DUP1 NOT DUP5 AND SWAP4 POP DUP1 DUP7 AND DUP5 OR SWAP3 POP POP POP SWAP4 SWAP3 POP POP POP JUMP JUMPDEST PUSH1 0x0 DUP2 SWAP1 POP SWAP2 SWAP1 POP JUMP JUMPDEST PUSH1 0x0 DUP2 SWAP1 POP SWAP2 SWAP1 POP JUMP JUMPDEST PUSH1 0x0 PUSH3 0x21D PUSH3 0x217 PUSH3 0x211 DUP5 PUSH3 0x1E8 JUMP JUMPDEST PUSH3 0x1F2 JUMP JUMPDEST PUSH3 0x1E8 JUMP JUMPDEST SWAP1 POP SWAP2 SWAP1 POP JUMP JUMPDEST PUSH1 0x0 DUP2 SWAP1 POP SWAP2 SWAP1 POP JUMP JUMPDEST PUSH3 0x239 DUP4 PUSH3 0x1FC JUMP JUMPDEST PUSH3 0x251 PUSH3 0x248 DUP3 PUSH3 0x224 JUMP JUMPDEST DUP5 DUP5 SLOAD PUSH3 0x192 JUMP JUMPDEST DUP3 SSTORE POP POP POP POP JUMP JUMPDEST PUSH1 0x0 SWAP1 JUMP JUMPDEST PUSH3 0x268 PUSH3 0x259 JUMP JUMPDEST PUSH3 0x275 DUP2 DUP5 DUP5 PUSH3 0x22E JUMP JUMPDEST POP POP POP JUMP JUMPDEST JUMPDEST DUP2 DUP2 LT ISZERO PUSH3 0x29D JUMPI PUSH3 0x291 PUSH1 0x0 DUP3 PUSH3 0x25E JUMP JUMPDEST PUSH1 0x1 DUP2 ADD SWAP1 POP PUSH3 0x27B JUMP JUMPDEST POP POP JUMP JUMPDEST PUSH1 0x1F DUP3 GT ISZERO PUSH3 0x2EC JUMPI PUSH3 0x2B6 DUP2 PUSH3 0x160 JUMP JUMPDEST PUSH3 0x2C1 DUP5 PUSH3 0x175 JUMP JUMPDEST DUP2 ADD PUSH1 0x20 DUP6 LT ISZERO PUSH3 0x2D1 JUMPI DUP2 SWAP1 POP JUMPDEST PUSH3 0x2E9 PUSH3 0x2E0 DUP6 PUSH3 0x175 JUMP JUMPDEST DUP4 ADD DUP3 PUSH3 0x27A JUMP JUMPDEST POP POP JUMPDEST POP POP POP JUMP JUMPDEST PUSH1 0x0 DUP3 DUP3 SHR SWAP1 POP SWAP3 SWAP2 POP POP JUMP JUMPDEST PUSH1 0x0 PUSH3 0x311 PUSH1 0x0 NOT DUP5 PUSH1 0x8 MUL PUSH3 0x2F1 JUMP JUMPDEST NOT DUP1 DUP4 AND SWAP2 POP POP SWAP3 SWAP2 POP POP JUMP JUMPDEST PUSH1 0x0 PUSH3 0x32C DUP4 DUP4 PUSH3 0x2FE JUMP JUMPDEST SWAP2 POP DUP3 PUSH1 0x2 MUL DUP3 OR SWAP1 POP SWAP3 SWAP2 POP POP JUMP JUMPDEST PUSH3 0x347 DUP3 PUSH3 0xC2 JUMP JUMPDEST PUSH8 0xFFFFFFFFFFFFFFFF DUP2 GT ISZERO PUSH3 0x363 JUMPI PUSH3 0x362 PUSH3 0xCD JUMP JUMPDEST JUMPDEST PUSH3 0x36F DUP3 SLOAD PUSH3 0x12B JUMP JUMPDEST PUSH3 0x37C DUP3 DUP3 DUP6 PUSH3 0x2A1 JUMP JUMPDEST PUSH1 0x0 PUSH1 0x20 SWAP1 POP PUSH1 0x1F DUP4 GT PUSH1 0x1 DUP2 EQ PUSH3 0x3B4 JUMPI PUSH1 0x0 DUP5 ISZERO PUSH3 0x39F JUMPI DUP3 DUP8 ADD MLOAD SWAP1 POP JUMPDEST PUSH3 0x3AB DUP6 DUP3 PUSH3 0x31E JUMP JUMPDEST DUP7 SSTORE POP PUSH3 0x41B JUMP JUMPDEST PUSH1 0x1F NOT DUP5 AND PUSH3 0x3C4 DUP7 PUSH3 0x160 JUMP JUMPDEST PUSH1 0x0 JUMPDEST DUP3 DUP2 LT ISZERO PUSH3 0x3EE JUMPI DUP5 DUP10 ADD MLOAD DUP3 SSTORE PUSH1 0x1 DUP3 ADD SWAP2 POP PUSH1 0x20 DUP6 ADD SWAP5 POP PUSH1 0x20 DUP2 ADD SWAP1 POP PUSH3 0x3C7 JUMP JUMPDEST DUP7 DUP4 LT ISZERO PUSH3 0x40E JUMPI DUP5 DUP10 ADD MLOAD PUSH3 0x40A PUSH1 0x1F DUP10 AND DUP3 PUSH3 0x2FE JUMP JUMPDEST DUP4 SSTORE POP JUMPDEST PUSH1 0x1 PUSH1 0x2 DUP9 MUL ADD DUP9 SSTORE POP POP POP JUMPDEST POP POP POP POP POP POP JUMP JUMPDEST PUSH2 0x3D3A DUP1 PUSH3 0x433 PUSH1 0x0 CODECOPY PUSH1 0x0 RETURN INVALID PUSH1 0x80 PUSH1 0x40 MSTORE PUSH1 0x4 CALLDATASIZE LT PUSH2 0x135 JUMPI PUSH1 0x0 CALLDATALOAD PUSH1 0xE0 SHR DUP1 PUSH4 0x7D690E0A GT PUSH2 0xAB JUMPI DUP1 PUSH4 0xBF5EA569 GT PUSH2 0x6F JUMPI DUP1 PUSH4 0xBF5EA569 EQ PUSH2 0x453 JUMPI DUP1 PUSH4 0xC87B56DD EQ PUSH2 0x46F JUMPI DUP1 PUSH4 0xD076F13F EQ PUSH2 0x4AC JUMPI DUP1 PUSH4 0xDD68F53A EQ PUSH2 0x4E9 JUMPI DUP1 PUSH4 0xDE74E57B EQ PUSH2 0x512 JUMPI DUP1 PUSH4 0xE985E9C5 EQ PUSH2 0x553 JUMPI PUSH2 0x135 JUMP JUMPDEST DUP1 PUSH4 0x7D690E0A EQ PUSH2 0x358 JUMPI DUP1 PUSH4 0x95D89B41 EQ PUSH2 0x395 JUMPI DUP1 PUSH4 0xA22CB465 EQ PUSH2 0x3C0 JUMPI DUP1 PUSH4 0xB41B4BD4 EQ PUSH2 0x3E9 JUMPI DUP1 PUSH4 0xB88D4FDE EQ PUSH2 0x42A JUMPI PUSH2 0x135 JUMP JUMPDEST DUP1 PUSH4 0x23B872DD GT PUSH2 0xFD JUMPI DUP1 PUSH4 0x23B872DD EQ PUSH2 0x233 JUMPI DUP1 PUSH4 0x42842E0E EQ PUSH2 0x25C JUMPI DUP1 PUSH4 0x51ED8288 EQ PUSH2 0x285 JUMPI DUP1 PUSH4 0x6352211E EQ PUSH2 0x2A1 JUMPI DUP1 PUSH4 0x6FAFA865 EQ PUSH2 0x2DE JUMPI DUP1 PUSH4 0x70A08231 EQ PUSH2 0x31B JUMPI PUSH2 0x135 JUMP JUMPDEST DUP1 PUSH4 0x1FFC9A7 EQ PUSH2 0x13A JUMPI DUP1 PUSH4 0x6FDDE03 EQ PUSH2 0x177 JUMPI DUP1 PUSH4 0x81812FC EQ PUSH2 0x1A2 JUMPI DUP1 PUSH4 0x95EA7B3 EQ PUSH2 0x1DF JUMPI DUP1 PUSH4 0xD6E9890 EQ PUSH2 0x208 JUMPI JUMPDEST PUSH1 0x0 DUP1 REVERT JUMPDEST CALLVALUE DUP1 ISZERO PUSH2 0x146 JUMPI PUSH1 0x0 DUP1 REVERT JUMPDEST POP PUSH2 0x161 PUSH1 0x4 DUP1 CALLDATASIZE SUB DUP2 ADD SWAP1 PUSH2 0x15C SWAP2 SWAP1 PUSH2 0x2935 JUMP JUMPDEST PUSH2 0x590 JUMP JUMPDEST PUSH1 0x40 MLOAD PUSH2 0x16E SWAP2 SWAP1 PUSH2 0x297D JUMP JUMPDEST PUSH1 0x40 MLOAD DUP1 SWAP2 SUB SWAP1 RETURN JUMPDEST CALLVALUE DUP1 ISZERO PUSH2 0x183 JUMPI PUSH1 0x0 DUP1 REVERT JUMPDEST POP PUSH2 0x18C PUSH2 0x672 JUMP JUMPDEST PUSH1 0x40 MLOAD PUSH2 0x199 SWAP2 SWAP1 PUSH2 0x2A28 JUMP JUMPDEST PUSH1 0x40 MLOAD DUP1 SWAP2 SUB SWAP1 RETURN JUMPDEST CALLVALUE DUP1 ISZERO PUSH2 0x1AE JUMPI PUSH1 0x0 DUP1 REVERT JUMPDEST POP PUSH2 0x1C9 PUSH1 0x4 DUP1 CALLDATASIZE SUB DUP2 ADD SWAP1 PUSH2 0x1C4 SWAP2 SWAP1 PUSH2 0x2A80 JUMP JUMPDEST PUSH2 0x704 JUMP JUMPDEST PUSH1 0x40 MLOAD PUSH2 0x1D6 SWAP2 SWAP1 PUSH2 0x2AEE JUMP JUMPDEST PUSH1 0x40 MLOAD DUP1 SWAP2 SUB SWAP1 RETURN JUMPDEST CALLVALUE DUP1 ISZERO PUSH2 0x1EB JUMPI PUSH1 0x0 DUP1 REVERT JUMPDEST POP PUSH2 0x206 PUSH1 0x4 DUP1 CALLDATASIZE SUB DUP2 ADD SWAP1 PUSH2 0x201 SWAP2 SWAP1 PUSH2 0x2B35 JUMP JUMPDEST PUSH2 0x74A JUMP JUMPDEST STOP JUMPDEST CALLVALUE DUP1 ISZERO PUSH2 0x214 JUMPI PUSH1 0x0 DUP1 REVERT JUMPDEST POP PUSH2 0x21D PUSH2 0x861 JUMP JUMPDEST PUSH1 0x40 MLOAD PUSH2 0x22A SWAP2 SWAP1 PUSH2 0x2CB9 JUMP JUMPDEST PUSH1 0x40 MLOAD DUP1 SWAP2 SUB SWAP1 RETURN JUMPDEST CALLVALUE DUP1 ISZERO PUSH2 0x23F JUMPI PUSH1 0x0 DUP1 REVERT JUMPDEST POP PUSH2 0x25A PUSH1 0x4 DUP1 CALLDATASIZE SUB DUP2 ADD SWAP1 PUSH2 0x255 SWAP2 SWAP1 PUSH2 0x2CDB JUMP JUMPDEST PUSH2 0xA49 JUMP JUMPDEST STOP JUMPDEST CALLVALUE DUP1 ISZERO PUSH2 0x268 JUMPI PUSH1 0x0 DUP1 REVERT JUMPDEST POP PUSH2 0x283 PUSH1 0x4 DUP1 CALLDATASIZE SUB DUP2 ADD SWAP1 PUSH2 0x27E SWAP2 SWAP1 PUSH2 0x2CDB JUMP JUMPDEST PUSH2 0xAA9 JUMP JUMPDEST STOP JUMPDEST PUSH2 0x29F PUSH1 0x4 DUP1 CALLDATASIZE SUB DUP2 ADD SWAP1 PUSH2 0x29A SWAP2 SWAP1 PUSH2 0x2A80 JUMP JUMPDEST PUSH2 0xAC9 JUMP JUMPDEST STOP JUMPDEST CALLVALUE DUP1 ISZERO PUSH2 0x2AD JUMPI PUSH1 0x0 DUP1 REVERT JUMPDEST POP PUSH2 0x2C8 PUSH1 0x4 DUP1 CALLDATASIZE SUB DUP2 ADD SWAP1 PUSH2 0x2C3 SWAP2 SWAP1 PUSH2 0x2A80 JUMP JUMPDEST PUSH2 0xD3B JUMP JUMPDEST PUSH1 0x40 MLOAD PUSH2 0x2D5 SWAP2 SWAP1 PUSH2 0x2AEE JUMP JUMPDEST PUSH1 0x40 MLOAD DUP1 SWAP2 SUB SWAP1 RETURN JUMPDEST CALLVALUE DUP1 ISZERO PUSH2 0x2EA JUMPI PUSH1 0x0 DUP1 REVERT JUMPDEST POP PUSH2 0x305 PUSH1 0x4 DUP1 CALLDATASIZE SUB DUP2 ADD SWAP1 PUSH2 0x300 SWAP2 SWAP1 PUSH2 0x2D2E JUMP JUMPDEST PUSH2 0xDC1 JUMP JUMPDEST PUSH1 0x40 MLOAD PUSH2 0x312 SWAP2 SWAP1 PUSH2 0x2D7D JUMP JUMPDEST PUSH1 0x40 MLOAD DUP1 SWAP2 SUB SWAP1 RETURN JUMPDEST CALLVALUE DUP1 ISZERO PUSH2 0x327 JUMPI PUSH1 0x0 DUP1 REVERT JUMPDEST POP PUSH2 0x342 PUSH1 0x4 DUP1 CALLDATASIZE SUB DUP2 ADD SWAP1 PUSH2 0x33D SWAP2 SWAP1 PUSH2 0x2D98 JUMP JUMPDEST PUSH2 0xFD7 JUMP JUMPDEST PUSH1 0x40 MLOAD PUSH2 0x34F SWAP2 SWAP1 PUSH2 0x2D7D JUMP JUMPDEST PUSH1 0x40 MLOAD DUP1 SWAP2 SUB SWAP1 RETURN JUMPDEST CALLVALUE DUP1 ISZERO PUSH2 0x364 JUMPI PUSH1 0x0 DUP1 REVERT JUMPDEST POP PUSH2 0x37F PUSH1 0x4 DUP1 CALLDATASIZE SUB DUP2 ADD SWAP1 PUSH2 0x37A SWAP2 SWAP1 PUSH2 0x2D98 JUMP JUMPDEST PUSH2 0x108E JUMP JUMPDEST PUSH1 0x40 MLOAD PUSH2 0x38C SWAP2 SWAP1 PUSH2 0x2E74 JUMP JUMPDEST PUSH1 0x40 MLOAD DUP1 SWAP2 SUB SWAP1 RETURN JUMPDEST CALLVALUE DUP1 ISZERO PUSH2 0x3A1 JUMPI PUSH1 0x0 DUP1 REVERT JUMPDEST POP PUSH2 0x3AA PUSH2 0x1125 JUMP JUMPDEST PUSH1 0x40 MLOAD PUSH2 0x3B7 SWAP2 SWAP1 PUSH2 0x2A28 JUMP JUMPDEST PUSH1 0x40 MLOAD DUP1 SWAP2 SUB SWAP1 RETURN JUMPDEST CALLVALUE DUP1 ISZERO PUSH2 0x3CC JUMPI PUSH1 0x0 DUP1 REVERT JUMPDEST POP PUSH2 0x3E7 PUSH1 0x4 DUP1 CALLDATASIZE SUB DUP2 ADD SWAP1 PUSH2 0x3E2 SWAP2 SWAP1 PUSH2 0x2EC2 JUMP JUMPDEST PUSH2 0x11B7 JUMP JUMPDEST STOP JUMPDEST CALLVALUE DUP1 ISZERO PUSH2 0x3F5 JUMPI PUSH1 0x0 DUP1 REVERT JUMPDEST POP PUSH2 0x410 PUSH1 0x4 DUP1 CALLDATASIZE SUB DUP2 ADD SWAP1 PUSH2 0x40B SWAP2 SWAP1 PUSH2 0x2A80 JUMP JUMPDEST PUSH2 0x11CD JUMP JUMPDEST PUSH1 0x40 MLOAD PUSH2 0x421 SWAP6 SWAP5 SWAP4 SWAP3 SWAP2 SWAP1 PUSH2 0x2F02 JUMP JUMPDEST PUSH1 0x40 MLOAD DUP1 SWAP2 SUB SWAP1 RETURN JUMPDEST CALLVALUE DUP1 ISZERO PUSH2 0x436 JUMPI PUSH1 0x0 DUP1 REVERT JUMPDEST POP PUSH2 0x451 PUSH1 0x4 DUP1 CALLDATASIZE SUB DUP2 ADD SWAP1 PUSH2 0x44C SWAP2 SWAP1 PUSH2 0x308A JUMP JUMPDEST PUSH2 0x1230 JUMP JUMPDEST STOP JUMPDEST PUSH2 0x46D PUSH1 0x4 DUP1 CALLDATASIZE SUB DUP2 ADD SWAP1 PUSH2 0x468 SWAP2 SWAP1 PUSH2 0x2A80 JUMP JUMPDEST PUSH2 0x1292 JUMP JUMPDEST STOP JUMPDEST CALLVALUE DUP1 ISZERO PUSH2 0x47B JUMPI PUSH1 0x0 DUP1 REVERT JUMPDEST POP PUSH2 0x496 PUSH1 0x4 DUP1 CALLDATASIZE SUB DUP2 ADD SWAP1 PUSH2 0x491 SWAP2 SWAP1 PUSH2 0x2A80 JUMP JUMPDEST PUSH2 0x1504 JUMP JUMPDEST PUSH1 0x40 MLOAD PUSH2 0x4A3 SWAP2 SWAP1 PUSH2 0x2A28 JUMP JUMPDEST PUSH1 0x40 MLOAD DUP1 SWAP2 SUB SWAP1 RETURN JUMPDEST CALLVALUE DUP1 ISZERO PUSH2 0x4B8 JUMPI PUSH1 0x0 DUP1 REVERT JUMPDEST POP PUSH2 0x4D3 PUSH1 0x4 DUP1 CALLDATASIZE SUB DUP2 ADD SWAP1 PUSH2 0x4CE SWAP2 SWAP1 PUSH2 0x2A80 JUMP JUMPDEST PUSH2 0x156C JUMP JUMPDEST PUSH1 0x40 MLOAD PUSH2 0x4E0 SWAP2 SWAP1 PUSH2 0x2D7D JUMP JUMPDEST PUSH1 0x40 MLOAD DUP1 SWAP2 SUB SWAP1 RETURN JUMPDEST CALLVALUE DUP1 ISZERO PUSH2 0x4F5 JUMPI PUSH1 0x0 DUP1 REVERT JUMPDEST POP PUSH2 0x510 PUSH1 0x4 DUP1 CALLDATASIZE SUB DUP2 ADD SWAP1 PUSH2 0x50B SWAP2 SWAP1 PUSH2 0x310D JUMP JUMPDEST PUSH2 0x1729 JUMP JUMPDEST STOP JUMPDEST CALLVALUE DUP1 ISZERO PUSH2 0x51E JUMPI PUSH1 0x0 DUP1 REVERT JUMPDEST POP PUSH2 0x539 PUSH1 0x4 DUP1 CALLDATASIZE SUB DUP2 ADD SWAP1 PUSH2 0x534 SWAP2 SWAP1 PUSH2 0x2A80 JUMP JUMPDEST PUSH2 0x19DD JUMP JUMPDEST PUSH1 0x40 MLOAD PUSH2 0x54A SWAP6 SWAP5 SWAP4 SWAP3 SWAP2 SWAP1 PUSH2 0x2F02 JUMP JUMPDEST PUSH1 0x40 MLOAD DUP1 SWAP2 SUB SWAP1 RETURN JUMPDEST CALLVALUE DUP1 ISZERO PUSH2 0x55F JUMPI PUSH1 0x0 DUP1 REVERT JUMPDEST POP PUSH2 0x57A PUSH1 0x4 DUP1 CALLDATASIZE SUB DUP2 ADD SWAP1 PUSH2 0x575 SWAP2 SWAP1 PUSH2 0x314D JUMP JUMPDEST PUSH2 0x1A40 JUMP JUMPDEST PUSH1 0x40 MLOAD PUSH2 0x587 SWAP2 SWAP1 PUSH2 0x297D JUMP JUMPDEST PUSH1 0x40 MLOAD DUP1 SWAP2 SUB SWAP1 RETURN JUMPDEST PUSH1 0x0 PUSH32 0x80AC58CD00000000000000000000000000000000000000000000000000000000 PUSH28 0xFFFFFFFFFFFFFFFFFFFFFFFFFFFFFFFFFFFFFFFFFFFFFFFFFFFFFFFF NOT AND DUP3 PUSH28 0xFFFFFFFFFFFFFFFFFFFFFFFFFFFFFFFFFFFFFFFFFFFFFFFFFFFFFFFF NOT AND EQ DUP1 PUSH2 0x65B JUMPI POP PUSH32 0x5B5E139F00000000000000000000000000000000000000000000000000000000 PUSH28 0xFFFFFFFFFFFFFFFFFFFFFFFFFFFFFFFFFFFFFFFFFFFFFFFFFFFFFFFF NOT AND DUP3 PUSH28 0xFFFFFFFFFFFFFFFFFFFFFFFFFFFFFFFFFFFFFFFFFFFFFFFFFFFFFFFF NOT AND EQ JUMPDEST DUP1 PUSH2 0x66B JUMPI POP PUSH2 0x66A DUP3 PUSH2 0x1AD4 JUMP JUMPDEST JUMPDEST SWAP1 POP SWAP2 SWAP1 POP JUMP JUMPDEST PUSH1 0x60 PUSH1 0x0 DUP1 SLOAD PUSH2 0x681 SWAP1 PUSH2 0x31BC JUMP JUMPDEST DUP1 PUSH1 0x1F ADD PUSH1 0x20 DUP1 SWAP2 DIV MUL PUSH1 0x20 ADD PUSH1 0x40 MLOAD SWAP1 DUP2 ADD PUSH1 0x40 MSTORE DUP1 SWAP3 SWAP2 SWAP1 DUP2 DUP2 MSTORE PUSH1 0x20 ADD DUP3 DUP1 SLOAD PUSH2 0x6AD SWAP1 PUSH2 0x31BC JUMP JUMPDEST DUP1 ISZERO PUSH2 0x6FA JUMPI DUP1 PUSH1 0x1F LT PUSH2 0x6CF JUMPI PUSH2 0x100 DUP1 DUP4 SLOAD DIV MUL DUP4 MSTORE SWAP2 PUSH1 0x20 ADD SWAP2 PUSH2 0x6FA JUMP JUMPDEST DUP3 ADD SWAP2 SWAP1 PUSH1 0x0 MSTORE PUSH1 0x20 PUSH1 0x0 KECCAK256 SWAP1 JUMPDEST DUP2 SLOAD DUP2 MSTORE SWAP1 PUSH1 0x1 ADD SWAP1 PUSH1 0x20 ADD DUP1 DUP4 GT PUSH2 0x6DD JUMPI DUP3 SWAP1 SUB PUSH1 0x1F AND DUP3 ADD SWAP2 JUMPDEST POP POP POP POP POP SWAP1 POP SWAP1 JUMP JUMPDEST PUSH1 0x0 PUSH2 0x70F DUP3 PUSH2 0x1B3E JUMP JUMPDEST PUSH1 0x4 PUSH1 0x0 DUP4 DUP2 MSTORE PUSH1 0x20 ADD SWAP1 DUP2 MSTORE PUSH1 0x20 ADD PUSH1 0x0 KECCAK256 PUSH1 0x0 SWAP1 SLOAD SWAP1 PUSH2 0x100 EXP SWAP1 DIV PUSH20 0xFFFFFFFFFFFFFFFFFFFFFFFFFFFFFFFFFFFFFFFF AND SWAP1 POP SWAP2 SWAP1 POP JUMP JUMPDEST PUSH1 0x0 PUSH2 0x755 DUP3 PUSH2 0xD3B JUMP JUMPDEST SWAP1 POP DUP1 PUSH20 0xFFFFFFFFFFFFFFFFFFFFFFFFFFFFFFFFFFFFFFFF AND DUP4 PUSH20 0xFFFFFFFFFFFFFFFFFFFFFFFFFFFFFFFFFFFFFFFF AND SUB PUSH2 0x7C5 JUMPI PUSH1 0x40 MLOAD PUSH32 0x8C379A000000000000000000000000000000000000000000000000000000000 DUP2 MSTORE PUSH1 0x4 ADD PUSH2 0x7BC SWAP1 PUSH2 0x325F JUMP JUMPDEST PUSH1 0x40 MLOAD DUP1 SWAP2 SUB SWAP1 REVERT JUMPDEST DUP1 PUSH20 0xFFFFFFFFFFFFFFFFFFFFFFFFFFFFFFFFFFFFFFFF AND PUSH2 0x7E4 PUSH2 0x1B89 JUMP JUMPDEST PUSH20 0xFFFFFFFFFFFFFFFFFFFFFFFFFFFFFFFFFFFFFFFF AND EQ DUP1 PUSH2 0x813 JUMPI POP PUSH2 0x812 DUP2 PUSH2 0x80D PUSH2 0x1B89 JUMP JUMPDEST PUSH2 0x1A40 JUMP JUMPDEST JUMPDEST PUSH2 0x852 JUMPI PUSH1 0x40 MLOAD PUSH32 0x8C379A000000000000000000000000000000000000000000000000000000000 DUP2 MSTORE PUSH1 0x4 ADD PUSH2 0x849 SWAP1 PUSH2 0x32F1 JUMP JUMPDEST PUSH1 0x40 MLOAD DUP1 SWAP2 SUB SWAP1 REVERT JUMPDEST PUSH2 0x85C DUP4 DUP4 PUSH2 0x1B91 JUMP JUMPDEST POP POP POP JUMP JUMPDEST PUSH1 0x60 PUSH1 0x0 DUP1 PUSH1 0x1 SWAP1 POP JUMPDEST PUSH1 0x8 SLOAD DUP2 GT PUSH2 0x8BF JUMPI PUSH1 0xA PUSH1 0x0 DUP3 DUP2 MSTORE PUSH1 0x20 ADD SWAP1 DUP2 MSTORE PUSH1 0x20 ADD PUSH1 0x0 KECCAK256 PUSH1 0x4 ADD PUSH1 0x0 SWAP1 SLOAD SWAP1 PUSH2 0x100 EXP SWAP1 DIV PUSH1 0xFF AND ISZERO PUSH2 0x8AC JUMPI DUP2 DUP1 PUSH2 0x8A8 SWAP1 PUSH2 0x3340 JUMP JUMPDEST SWAP3 POP POP JUMPDEST DUP1 DUP1 PUSH2 0x8B7 SWAP1 PUSH2 0x3340 JUMP JUMPDEST SWAP2 POP POP PUSH2 0x86B JUMP JUMPDEST POP PUSH1 0x0 DUP2 PUSH8 0xFFFFFFFFFFFFFFFF DUP2 GT ISZERO PUSH2 0x8DC JUMPI PUSH2 0x8DB PUSH2 0x2F5F JUMP JUMPDEST JUMPDEST PUSH1 0x40 MLOAD SWAP1 DUP1 DUP3 MSTORE DUP1 PUSH1 0x20 MUL PUSH1 0x20 ADD DUP3 ADD PUSH1 0x40 MSTORE DUP1 ISZERO PUSH2 0x915 JUMPI DUP2 PUSH1 0x20 ADD JUMPDEST PUSH2 0x902 PUSH2 0x2882 JUMP JUMPDEST DUP2 MSTORE PUSH1 0x20 ADD SWAP1 PUSH1 0x1 SWAP1 SUB SWAP1 DUP2 PUSH2 0x8FA JUMPI SWAP1 POP JUMPDEST POP SWAP1 POP PUSH1 0x0 DUP1 PUSH1 0x1 SWAP1 POP JUMPDEST PUSH1 0x8 SLOAD DUP2 GT PUSH2 0xA3F JUMPI PUSH1 0xA PUSH1 0x0 DUP3 DUP2 MSTORE PUSH1 0x20 ADD SWAP1 DUP2 MSTORE PUSH1 0x20 ADD PUSH1 0x0 KECCAK256 PUSH1 0x4 ADD PUSH1 0x0 SWAP1 SLOAD SWAP1 PUSH2 0x100 EXP SWAP1 DIV PUSH1 0xFF AND ISZERO PUSH2 0xA2C JUMPI PUSH1 0xA PUSH1 0x0 DUP3 DUP2 MSTORE PUSH1 0x20 ADD SWAP1 DUP2 MSTORE PUSH1 0x20 ADD PUSH1 0x0 KECCAK256 PUSH1 0x40 MLOAD DUP1 PUSH1 0xA0 ADD PUSH1 0x40 MSTORE SWAP1 DUP2 PUSH1 0x0 DUP3 ADD SLOAD DUP2 MSTORE PUSH1 0x20 ADD PUSH1 0x1 DUP3 ADD SLOAD DUP2 MSTORE PUSH1 0x20 ADD PUSH1 0x2 DUP3 ADD PUSH1 0x0 SWAP1 SLOAD SWAP1 PUSH2 0x100 EXP SWAP1 DIV PUSH20 0xFFFFFFFFFFFFFFFFFFFFFFFFFFFFFFFFFFFFFFFF AND PUSH20 0xFFFFFFFFFFFFFFFFFFFFFFFFFFFFFFFFFFFFFFFF AND PUSH20 0xFFFFFFFFFFFFFFFFFFFFFFFFFFFFFFFFFFFFFFFF AND DUP2 MSTORE PUSH1 0x20 ADD PUSH1 0x3 DUP3 ADD SLOAD DUP2 MSTORE PUSH1 0x20 ADD PUSH1 0x4 DUP3 ADD PUSH1 0x0 SWAP1 SLOAD SWAP1 PUSH2 0x100 EXP SWAP1 DIV PUSH1 0xFF AND ISZERO ISZERO ISZERO ISZERO DUP2 MSTORE POP POP DUP4 DUP4 DUP2 MLOAD DUP2 LT PUSH2 0xA12 JUMPI PUSH2 0xA11 PUSH2 0x3388 JUMP JUMPDEST JUMPDEST PUSH1 0x20 MUL PUSH1 0x20 ADD ADD DUP2 SWAP1 MSTORE POP DUP2 DUP1 PUSH2 0xA28 SWAP1 PUSH2 0x3340 JUMP JUMPDEST SWAP3 POP POP JUMPDEST DUP1 DUP1 PUSH2 0xA37 SWAP1 PUSH2 0x3340 JUMP JUMPDEST SWAP2 POP POP PUSH2 0x920 JUMP JUMPDEST POP DUP2 SWAP4 POP POP POP POP SWAP1 JUMP JUMPDEST PUSH2 0xA5A PUSH2 0xA54 PUSH2 0x1B89 JUMP JUMPDEST DUP3 PUSH2 0x1C4A JUMP JUMPDEST PUSH2 0xA99 JUMPI PUSH1 0x40 MLOAD PUSH32 0x8C379A000000000000000000000000000000000000000000000000000000000 DUP2 MSTORE PUSH1 0x4 ADD PUSH2 0xA90 SWAP1 PUSH2 0x3429 JUMP JUMPDEST PUSH1 0x40 MLOAD DUP1 SWAP2 SUB SWAP1 REVERT JUMPDEST PUSH2 0xAA4 DUP4 DUP4 DUP4 PUSH2 0x1CDF JUMP JUMPDEST POP POP POP JUMP JUMPDEST PUSH2 0xAC4 DUP4 DUP4 DUP4 PUSH1 0x40 MLOAD DUP1 PUSH1 0x20 ADD PUSH1 0x40 MSTORE DUP1 PUSH1 0x0 DUP2 MSTORE POP PUSH2 0x1230 JUMP JUMPDEST POP POP POP JUMP JUMPDEST PUSH2 0xAD1 PUSH2 0x1FD8 JUMP JUMPDEST PUSH1 0x0 PUSH1 0x9 PUSH1 0x0 DUP4 DUP2 MSTORE PUSH1 0x20 ADD SWAP1 DUP2 MSTORE PUSH1 0x20 ADD PUSH1 0x0 KECCAK256 SWAP1 POP DUP1 PUSH1 0x4 ADD PUSH1 0x0 SWAP1 SLOAD SWAP1 PUSH2 0x100 EXP SWAP1 DIV PUSH1 0xFF AND PUSH2 0xB39 JUMPI PUSH1 0x40 MLOAD PUSH32 0x8C379A000000000000000000000000000000000000000000000000000000000 DUP2 MSTORE PUSH1 0x4 ADD PUSH2 0xB30 SWAP1 PUSH2 0x3495 JUMP JUMPDEST PUSH1 0x40 MLOAD DUP1 SWAP2 SUB SWAP1 REVERT JUMPDEST DUP1 PUSH1 0x3 ADD SLOAD CALLVALUE LT ISZERO PUSH2 0xB80 JUMPI PUSH1 0x40 MLOAD PUSH32 0x8C379A000000000000000000000000000000000000000000000000000000000 DUP2 MSTORE PUSH1 0x4 ADD PUSH2 0xB77 SWAP1 PUSH2 0x3501 JUMP JUMPDEST PUSH1 0x40 MLOAD DUP1 SWAP2 SUB SWAP1 REVERT JUMPDEST PUSH1 0x0 DUP2 PUSH1 0x2 ADD PUSH1 0x0 SWAP1 SLOAD SWAP1 PUSH2 0x100 EXP SWAP1 DIV PUSH20 0xFFFFFFFFFFFFFFFFFFFFFFFFFFFFFFFFFFFFFFFF AND SWAP1 POP PUSH1 0x0 DUP3 PUSH1 0x1 ADD SLOAD SWAP1 POP PUSH1 0x0 DUP4 PUSH1 0x4 ADD PUSH1 0x0 PUSH2 0x100 EXP DUP2 SLOAD DUP2 PUSH1 0xFF MUL NOT AND SWAP1 DUP4 ISZERO ISZERO MUL OR SWAP1 SSTORE POP PUSH2 0xBDA DUP3 CALLER DUP4 PUSH2 0x1CDF JUMP JUMPDEST PUSH1 0xB PUSH1 0x0 CALLER PUSH20 0xFFFFFFFFFFFFFFFFFFFFFFFFFFFFFFFFFFFFFFFF AND PUSH20 0xFFFFFFFFFFFFFFFFFFFFFFFFFFFFFFFFFFFFFFFF AND DUP2 MSTORE PUSH1 0x20 ADD SWAP1 DUP2 MSTORE PUSH1 0x20 ADD PUSH1 0x0 KECCAK256 DUP2 SWAP1 DUP1 PUSH1 0x1 DUP2 SLOAD ADD DUP1 DUP3 SSTORE DUP1 SWAP2 POP POP PUSH1 0x1 SWAP1 SUB SWAP1 PUSH1 0x0 MSTORE PUSH1 0x20 PUSH1 0x0 KECCAK256 ADD PUSH1 0x0 SWAP1 SWAP2 SWAP1 SWAP2 SWAP1 SWAP2 POP SSTORE DUP2 PUSH20 0xFFFFFFFFFFFFFFFFFFFFFFFFFFFFFFFFFFFFFFFF AND PUSH2 0x8FC DUP5 PUSH1 0x3 ADD SLOAD SWAP1 DUP2 ISZERO MUL SWAP1 PUSH1 0x40 MLOAD PUSH1 0x0 PUSH1 0x40 MLOAD DUP1 DUP4 SUB DUP2 DUP6 DUP9 DUP9 CALL SWAP4 POP POP POP POP ISZERO DUP1 ISZERO PUSH2 0xC8A JUMPI RETURNDATASIZE PUSH1 0x0 DUP1 RETURNDATACOPY RETURNDATASIZE PUSH1 0x0 REVERT JUMPDEST POP DUP3 PUSH1 0x3 ADD SLOAD CALLVALUE GT ISZERO PUSH2 0xCEE JUMPI CALLER PUSH20 0xFFFFFFFFFFFFFFFFFFFFFFFFFFFFFFFFFFFFFFFF AND PUSH2 0x8FC DUP5 PUSH1 0x3 ADD SLOAD CALLVALUE PUSH2 0xCC1 SWAP2 SWAP1 PUSH2 0x3521 JUMP JUMPDEST SWAP1 DUP2 ISZERO MUL SWAP1 PUSH1 0x40 MLOAD PUSH1 0x0 PUSH1 0x40 MLOAD DUP1 DUP4 SUB DUP2 DUP6 DUP9 DUP9 CALL SWAP4 POP POP POP POP ISZERO DUP1 ISZERO PUSH2 0xCEC JUMPI RETURNDATASIZE PUSH1 0x0 DUP1 RETURNDATACOPY RETURNDATASIZE PUSH1 0x0 REVERT JUMPDEST POP JUMPDEST DUP1 DUP5 PUSH32 0xEAC73C4C02645B139079049D236CA25ABF79BBD94604CB974BABFB934BB3AED1 CALLER DUP7 PUSH1 0x3 ADD SLOAD PUSH1 0x40 MLOAD PUSH2 0xD25 SWAP3 SWAP2 SWAP1 PUSH2 0x3555 JUMP JUMPDEST PUSH1 0x40 MLOAD DUP1 SWAP2 SUB SWAP1 LOG3 POP POP POP PUSH2 0xD38 PUSH2 0x2027 JUMP JUMPDEST POP JUMP JUMPDEST PUSH1 0x0 DUP1 PUSH2 0xD47 DUP4 PUSH2 0x2031 JUMP JUMPDEST SWAP1 POP PUSH1 0x0 PUSH20 0xFFFFFFFFFFFFFFFFFFFFFFFFFFFFFFFFFFFFFFFF AND DUP2 PUSH20 0xFFFFFFFFFFFFFFFFFFFFFFFFFFFFFFFFFFFFFFFF AND SUB PUSH2 0xDB8 JUMPI PUSH1 0x40 MLOAD PUSH32 0x8C379A000000000000000000000000000000000000000000000000000000000 DUP2 MSTORE PUSH1 0x4 ADD PUSH2 0xDAF SWAP1 PUSH2 0x35CA JUMP JUMPDEST PUSH1 0x40 MLOAD DUP1 SWAP2 SUB SWAP1 REVERT JUMPDEST DUP1 SWAP2 POP POP SWAP2 SWAP1 POP JUMP JUMPDEST PUSH1 0x0 PUSH2 0xDCB PUSH2 0x1FD8 JUMP JUMPDEST CALLER PUSH20 0xFFFFFFFFFFFFFFFFFFFFFFFFFFFFFFFFFFFFFFFF AND PUSH2 0xDEB DUP5 PUSH2 0xD3B JUMP JUMPDEST PUSH20 0xFFFFFFFFFFFFFFFFFFFFFFFFFFFFFFFFFFFFFFFF AND EQ PUSH2 0xE41 JUMPI PUSH1 0x40 MLOAD PUSH32 0x8C379A000000000000000000000000000000000000000000000000000000000 DUP2 MSTORE PUSH1 0x4 ADD PUSH2 0xE38 SWAP1 PUSH2 0x3636 JUMP JUMPDEST PUSH1 0x40 MLOAD DUP1 SWAP2 SUB SWAP1 REVERT JUMPDEST PUSH1 0x0 DUP3 GT PUSH2 0xE84 JUMPI PUSH1 0x40 MLOAD PUSH32 0x8C379A000000000000000000000000000000000000000000000000000000000 DUP2 MSTORE PUSH1 0x4 ADD PUSH2 0xE7B SWAP1 PUSH2 0x36A2 JUMP JUMPDEST PUSH1 0x40 MLOAD DUP1 SWAP2 SUB SWAP1 REVERT JUMPDEST PUSH1 0x8 PUSH1 0x0 DUP2 SLOAD DUP1 SWAP3 SWAP2 SWAP1 PUSH2 0xE97 SWAP1 PUSH2 0x3340 JUMP JUMPDEST SWAP2 SWAP1 POP SSTORE POP PUSH1 0x0 PUSH1 0x8 SLOAD SWAP1 POP PUSH1 0x40 MLOAD DUP1 PUSH1 0xA0 ADD PUSH1 0x40 MSTORE DUP1 DUP3 DUP2 MSTORE PUSH1 0x20 ADD DUP6 DUP2 MSTORE PUSH1 0x20 ADD CALLER PUSH20 0xFFFFFFFFFFFFFFFFFFFFFFFFFFFFFFFFFFFFFFFF AND DUP2 MSTORE PUSH1 0x20 ADD DUP5 DUP2 MSTORE PUSH1 0x20 ADD PUSH1 0x1 ISZERO ISZERO DUP2 MSTORE POP PUSH1 0xA PUSH1 0x0 DUP4 DUP2 MSTORE PUSH1 0x20 ADD SWAP1 DUP2 MSTORE PUSH1 0x20 ADD PUSH1 0x0 KECCAK256 PUSH1 0x0 DUP3 ADD MLOAD DUP2 PUSH1 0x0 ADD SSTORE PUSH1 0x20 DUP3 ADD MLOAD DUP2 PUSH1 0x1 ADD SSTORE PUSH1 0x40 DUP3 ADD MLOAD DUP2 PUSH1 0x2 ADD PUSH1 0x0 PUSH2 0x100 EXP DUP2 SLOAD DUP2 PUSH20 0xFFFFFFFFFFFFFFFFFFFFFFFFFFFFFFFFFFFFFFFF MUL NOT AND SWAP1 DUP4 PUSH20 0xFFFFFFFFFFFFFFFFFFFFFFFFFFFFFFFFFFFFFFFF AND MUL OR SWAP1 SSTORE POP PUSH1 0x60 DUP3 ADD MLOAD DUP2 PUSH1 0x3 ADD SSTORE PUSH1 0x80 DUP3 ADD MLOAD DUP2 PUSH1 0x4 ADD PUSH1 0x0 PUSH2 0x100 EXP DUP2 SLOAD DUP2 PUSH1 0xFF MUL NOT AND SWAP1 DUP4 ISZERO ISZERO MUL OR SWAP1 SSTORE POP SWAP1 POP POP PUSH2 0xF8A CALLER ADDRESS PUSH1 0x1 PUSH2 0x206E JUMP JUMPDEST DUP4 DUP2 PUSH32 0xF50549692A238DDF5F62853D8247B5F0563AC8A68ABE5EF417DBFBE9461A1D2E CALLER DUP7 PUSH1 0x40 MLOAD PUSH2 0xFBD SWAP3 SWAP2 SWAP1 PUSH2 0x3555 JUMP JUMPDEST PUSH1 0x40 MLOAD DUP1 SWAP2 SUB SWAP1 LOG3 DUP1 SWAP2 POP POP PUSH2 0xFD1 PUSH2 0x2027 JUMP JUMPDEST SWAP3 SWAP2 POP POP JUMP JUMPDEST PUSH1 0x0 DUP1 PUSH20 0xFFFFFFFFFFFFFFFFFFFFFFFFFFFFFFFFFFFFFFFF AND DUP3 PUSH20 0xFFFFFFFFFFFFFFFFFFFFFFFFFFFFFFFFFFFFFFFF AND SUB PUSH2 0x1047 JUMPI PUSH1 0x40 MLOAD PUSH32 0x8C379A000000000000000000000000000000000000000000000000000000000 DUP2 MSTORE PUSH1 0x4 ADD PUSH2 0x103E SWAP1 PUSH2 0x3734 JUMP JUMPDEST PUSH1 0x40 MLOAD DUP1 SWAP2 SUB SWAP1 REVERT JUMPDEST PUSH1 0x3 PUSH1 0x0 DUP4 PUSH20 0xFFFFFFFFFFFFFFFFFFFFFFFFFFFFFFFFFFFFFFFF AND PUSH20 0xFFFFFFFFFFFFFFFFFFFFFFFFFFFFFFFFFFFFFFFF AND DUP2 MSTORE PUSH1 0x20 ADD SWAP1 DUP2 MSTORE PUSH1 0x20 ADD PUSH1 0x0 KECCAK256 SLOAD SWAP1 POP SWAP2 SWAP1 POP JUMP JUMPDEST PUSH1 0x60 PUSH1 0xB PUSH1 0x0 DUP4 PUSH20 0xFFFFFFFFFFFFFFFFFFFFFFFFFFFFFFFFFFFFFFFF AND PUSH20 0xFFFFFFFFFFFFFFFFFFFFFFFFFFFFFFFFFFFFFFFF AND DUP2 MSTORE PUSH1 0x20 ADD SWAP1 DUP2 MSTORE PUSH1 0x20 ADD PUSH1 0x0 KECCAK256 DUP1 SLOAD DUP1 PUSH1 0x20 MUL PUSH1 0x20 ADD PUSH1 0x40 MLOAD SWAP1 DUP2 ADD PUSH1 0x40 MSTORE DUP1 SWAP3 SWAP2 SWAP1 DUP2 DUP2 MSTORE PUSH1 0x20 ADD DUP3 DUP1 SLOAD DUP1 ISZERO PUSH2 0x1119 JUMPI PUSH1 0x20 MUL DUP3 ADD SWAP2 SWAP1 PUSH1 0x0 MSTORE PUSH1 0x20 PUSH1 0x0 KECCAK256 SWAP1 JUMPDEST DUP2 SLOAD DUP2 MSTORE PUSH1 0x20 ADD SWAP1 PUSH1 0x1 ADD SWAP1 DUP1 DUP4 GT PUSH2 0x1105 JUMPI JUMPDEST POP POP POP POP POP SWAP1 POP SWAP2 SWAP1 POP JUMP JUMPDEST PUSH1 0x60 PUSH1 0x1 DUP1 SLOAD PUSH2 0x1134 SWAP1 PUSH2 0x31BC JUMP JUMPDEST DUP1 PUSH1 0x1F ADD PUSH1 0x20 DUP1 SWAP2 DIV MUL PUSH1 0x20 ADD PUSH1 0x40 MLOAD SWAP1 DUP2 ADD PUSH1 0x40 MSTORE DUP1 SWAP3 SWAP2 SWAP1 DUP2 DUP2 MSTORE PUSH1 0x20 ADD DUP3 DUP1 SLOAD PUSH2 0x1160 SWAP1 PUSH2 0x31BC JUMP JUMPDEST DUP1 ISZERO PUSH2 0x11AD JUMPI DUP1 PUSH1 0x1F LT PUSH2 0x1182 JUMPI PUSH2 0x100 DUP1 DUP4 SLOAD DIV MUL DUP4 MSTORE SWAP2 PUSH1 0x20 ADD SWAP2 PUSH2 0x11AD JUMP JUMPDEST DUP3 ADD SWAP2 SWAP1 PUSH1 0x0 MSTORE PUSH1 0x20 PUSH1 0x0 KECCAK256 SWAP1 JUMPDEST DUP2 SLOAD DUP2 MSTORE SWAP1 PUSH1 0x1 ADD SWAP1 PUSH1 0x20 ADD DUP1 DUP4 GT PUSH2 0x1190 JUMPI DUP3 SWAP1 SUB PUSH1 0x1F AND DUP3 ADD SWAP2 JUMPDEST POP POP POP POP POP SWAP1 POP SWAP1 JUMP JUMPDEST PUSH2 0x11C9 PUSH2 0x11C2 PUSH2 0x1B89 JUMP JUMPDEST DUP4 DUP4 PUSH2 0x206E JUMP JUMPDEST POP POP JUMP JUMPDEST PUSH1 0xA PUSH1 0x20 MSTORE DUP1 PUSH1 0x0 MSTORE PUSH1 0x40 PUSH1 0x0 KECCAK256 PUSH1 0x0 SWAP2 POP SWAP1 POP DUP1 PUSH1 0x0 ADD SLOAD SWAP1 DUP1 PUSH1 0x1 ADD SLOAD SWAP1 DUP1 PUSH1 0x2 ADD PUSH1 0x0 SWAP1 SLOAD SWAP1 PUSH2 0x100 EXP SWAP1 DIV PUSH20 0xFFFFFFFFFFFFFFFFFFFFFFFFFFFFFFFFFFFFFFFF AND SWAP1 DUP1 PUSH1 0x3 ADD SLOAD SWAP1 DUP1 PUSH1 0x4 ADD PUSH1 0x0 SWAP1 SLOAD SWAP1 PUSH2 0x100 EXP SWAP1 DIV PUSH1 0xFF AND SWAP1 POP DUP6 JUMP JUMPDEST PUSH2 0x1241 PUSH2 0x123B PUSH2 0x1B89 JUMP JUMPDEST DUP4 PUSH2 0x1C4A JUMP JUMPDEST PUSH2 0x1280 JUMPI PUSH1 0x40 MLOAD PUSH32 0x8C379A000000000000000000000000000000000000000000000000000000000 DUP2 MSTORE PUSH1 0x4 ADD PUSH2 0x1277 SWAP1 PUSH2 0x3429 JUMP JUMPDEST PUSH1 0x40 MLOAD DUP1 SWAP2 SUB SWAP1 REVERT JUMPDEST PUSH2 0x128C DUP5 DUP5 DUP5 DUP5 PUSH2 0x21DA JUMP JUMPDEST POP POP POP POP JUMP JUMPDEST PUSH2 0x129A PUSH2 0x1FD8 JUMP JUMPDEST PUSH1 0x0 PUSH1 0xA PUSH1 0x0 DUP4 DUP2 MSTORE PUSH1 0x20 ADD SWAP1 DUP2 MSTORE PUSH1 0x20 ADD PUSH1 0x0 KECCAK256 SWAP1 POP DUP1 PUSH1 0x4 ADD PUSH1 0x0 SWAP1 SLOAD SWAP1 PUSH2 0x100 EXP SWAP1 DIV PUSH1 0xFF AND PUSH2 0x1302 JUMPI PUSH1 0x40 MLOAD PUSH32 0x8C379A000000000000000000000000000000000000000000000000000000000 DUP2 MSTORE PUSH1 0x4 ADD PUSH2 0x12F9 SWAP1 PUSH2 0x37A0 JUMP JUMPDEST PUSH1 0x40 MLOAD DUP1 SWAP2 SUB SWAP1 REVERT JUMPDEST DUP1 PUSH1 0x3 ADD SLOAD CALLVALUE LT ISZERO PUSH2 0x1349 JUMPI PUSH1 0x40 MLOAD PUSH32 0x8C379A000000000000000000000000000000000000000000000000000000000 DUP2 MSTORE PUSH1 0x4 ADD PUSH2 0x1340 SWAP1 PUSH2 0x3501 JUMP JUMPDEST PUSH1 0x40 MLOAD DUP1 SWAP2 SUB SWAP1 REVERT JUMPDEST PUSH1 0x0 DUP2 PUSH1 0x2 ADD PUSH1 0x0 SWAP1 SLOAD SWAP1 PUSH2 0x100 EXP SWAP1 DIV PUSH20 0xFFFFFFFFFFFFFFFFFFFFFFFFFFFFFFFFFFFFFFFF AND SWAP1 POP PUSH1 0x0 DUP3 PUSH1 0x1 ADD SLOAD SWAP1 POP PUSH1 0x0 DUP4 PUSH1 0x4 ADD PUSH1 0x0 PUSH2 0x100 EXP DUP2 SLOAD DUP2 PUSH1 0xFF MUL NOT AND SWAP1 DUP4 ISZERO ISZERO MUL OR SWAP1 SSTORE POP PUSH2 0x13A3 DUP3 CALLER DUP4 PUSH2 0x1CDF JUMP JUMPDEST PUSH1 0xB PUSH1 0x0 CALLER PUSH20 0xFFFFFFFFFFFFFFFFFFFFFFFFFFFFFFFFFFFFFFFF AND PUSH20 0xFFFFFFFFFFFFFFFFFFFFFFFFFFFFFFFFFFFFFFFF AND DUP2 MSTORE PUSH1 0x20 ADD SWAP1 DUP2 MSTORE PUSH1 0x20 ADD PUSH1 0x0 KECCAK256 DUP2 SWAP1 DUP1 PUSH1 0x1 DUP2 SLOAD ADD DUP1 DUP3 SSTORE DUP1 SWAP2 POP POP PUSH1 0x1 SWAP1 SUB SWAP1 PUSH1 0x0 MSTORE PUSH1 0x20 PUSH1 0x0 KECCAK256 ADD PUSH1 0x0 SWAP1 SWAP2 SWAP1 SWAP2 SWAP1 SWAP2 POP SSTORE DUP2 PUSH20 0xFFFFFFFFFFFFFFFFFFFFFFFFFFFFFFFFFFFFFFFF AND PUSH2 0x8FC DUP5 PUSH1 0x3 ADD SLOAD SWAP1 DUP2 ISZERO MUL SWAP1 PUSH1 0x40 MLOAD PUSH1 0x0 PUSH1 0x40 MLOAD DUP1 DUP4 SUB DUP2 DUP6 DUP9 DUP9 CALL SWAP4 POP POP POP POP ISZERO DUP1 ISZERO PUSH2 0x1453 JUMPI RETURNDATASIZE PUSH1 0x0 DUP1 RETURNDATACOPY RETURNDATASIZE PUSH1 0x0 REVERT JUMPDEST POP DUP3 PUSH1 0x3 ADD SLOAD CALLVALUE GT ISZERO PUSH2 0x14B7 JUMPI CALLER PUSH20 0xFFFFFFFFFFFFFFFFFFFFFFFFFFFFFFFFFFFFFFFF AND PUSH2 0x8FC DUP5 PUSH1 0x3 ADD SLOAD CALLVALUE PUSH2 0x148A SWAP2 SWAP1 PUSH2 0x3521 JUMP JUMPDEST SWAP1 DUP2 ISZERO MUL SWAP1 PUSH1 0x40 MLOAD PUSH1 0x0 PUSH1 0x40 MLOAD DUP1 DUP4 SUB DUP2 DUP6 DUP9 DUP9 CALL SWAP4 POP POP POP POP ISZERO DUP1 ISZERO PUSH2 0x14B5 JUMPI RETURNDATASIZE PUSH1 0x0 DUP1 RETURNDATACOPY RETURNDATASIZE PUSH1 0x0 REVERT JUMPDEST POP JUMPDEST DUP1 DUP5 PUSH32 0x1C9375F89808B9A56B39ABEB74C38FC44C6983F5EBF62CD881AB29854C4968D3 CALLER DUP7 PUSH1 0x3 ADD SLOAD PUSH1 0x40 MLOAD PUSH2 0x14EE SWAP3 SWAP2 SWAP1 PUSH2 0x3555 JUMP JUMPDEST PUSH1 0x40 MLOAD DUP1 SWAP2 SUB SWAP1 LOG3 POP POP POP PUSH2 0x1501 PUSH2 0x2027 JUMP JUMPDEST POP JUMP JUMPDEST PUSH1 0x60 PUSH2 0x150F DUP3 PUSH2 0x1B3E JUMP JUMPDEST PUSH1 0x0 PUSH2 0x1519 PUSH2 0x2236 JUMP JUMPDEST SWAP1 POP PUSH1 0x0 DUP2 MLOAD GT PUSH2 0x1539 JUMPI PUSH1 0x40 MLOAD DUP1 PUSH1 0x20 ADD PUSH1 0x40 MSTORE DUP1 PUSH1 0x0 DUP2 MSTORE POP PUSH2 0x1564 JUMP JUMPDEST DUP1 PUSH2 0x1543 DUP5 PUSH2 0x224D JUMP JUMPDEST PUSH1 0x40 MLOAD PUSH1 0x20 ADD PUSH2 0x1554 SWAP3 SWAP2 SWAP1 PUSH2 0x37FC JUMP JUMPDEST PUSH1 0x40 MLOAD PUSH1 0x20 DUP2 DUP4 SUB SUB DUP2 MSTORE SWAP1 PUSH1 0x40 MSTORE JUMPDEST SWAP2 POP POP SWAP2 SWAP1 POP JUMP JUMPDEST PUSH1 0x0 PUSH2 0x1576 PUSH2 0x1FD8 JUMP JUMPDEST PUSH1 0x0 DUP3 GT PUSH2 0x15B9 JUMPI PUSH1 0x40 MLOAD PUSH32 0x8C379A000000000000000000000000000000000000000000000000000000000 DUP2 MSTORE PUSH1 0x4 ADD PUSH2 0x15B0 SWAP1 PUSH2 0x36A2 JUMP JUMPDEST PUSH1 0x40 MLOAD DUP1 SWAP2 SUB SWAP1 REVERT JUMPDEST PUSH1 0x7 PUSH1 0x0 DUP2 SLOAD DUP1 SWAP3 SWAP2 SWAP1 PUSH2 0x15CC SWAP1 PUSH2 0x3340 JUMP JUMPDEST SWAP2 SWAP1 POP SSTORE POP PUSH1 0x0 PUSH1 0x7 SLOAD SWAP1 POP PUSH1 0x8 PUSH1 0x0 DUP2 SLOAD DUP1 SWAP3 SWAP2 SWAP1 PUSH2 0x15EB SWAP1 PUSH2 0x3340 JUMP JUMPDEST SWAP2 SWAP1 POP SSTORE POP PUSH1 0x0 PUSH1 0x8 SLOAD SWAP1 POP PUSH2 0x1601 CALLER DUP4 PUSH2 0x231B JUMP JUMPDEST PUSH1 0x40 MLOAD DUP1 PUSH1 0xA0 ADD PUSH1 0x40 MSTORE DUP1 DUP3 DUP2 MSTORE PUSH1 0x20 ADD DUP4 DUP2 MSTORE PUSH1 0x20 ADD CALLER PUSH20 0xFFFFFFFFFFFFFFFFFFFFFFFFFFFFFFFFFFFFFFFF AND DUP2 MSTORE PUSH1 0x20 ADD DUP6 DUP2 MSTORE PUSH1 0x20 ADD PUSH1 0x1 ISZERO ISZERO DUP2 MSTORE POP PUSH1 0x9 PUSH1 0x0 DUP4 DUP2 MSTORE PUSH1 0x20 ADD SWAP1 DUP2 MSTORE PUSH1 0x20 ADD PUSH1 0x0 KECCAK256 PUSH1 0x0 DUP3 ADD MLOAD DUP2 PUSH1 0x0 ADD SSTORE PUSH1 0x20 DUP3 ADD MLOAD DUP2 PUSH1 0x1 ADD SSTORE PUSH1 0x40 DUP3 ADD MLOAD DUP2 PUSH1 0x2 ADD PUSH1 0x0 PUSH2 0x100 EXP DUP2 SLOAD DUP2 PUSH20 0xFFFFFFFFFFFFFFFFFFFFFFFFFFFFFFFFFFFFFFFF MUL NOT AND SWAP1 DUP4 PUSH20 0xFFFFFFFFFFFFFFFFFFFFFFFFFFFFFFFFFFFFFFFF AND MUL OR SWAP1 SSTORE POP PUSH1 0x60 DUP3 ADD MLOAD DUP2 PUSH1 0x3 ADD SSTORE PUSH1 0x80 DUP3 ADD MLOAD DUP2 PUSH1 0x4 ADD PUSH1 0x0 PUSH2 0x100 EXP DUP2 SLOAD DUP2 PUSH1 0xFF MUL NOT AND SWAP1 DUP4 ISZERO ISZERO MUL OR SWAP1 SSTORE POP SWAP1 POP POP DUP2 DUP2 PUSH32 0xB17E24A391FC1C737BEF358A1BF52F287F106279D5328D0B3DACD826D74B236 CALLER DUP8 PUSH1 0x40 MLOAD PUSH2 0x170F SWAP3 SWAP2 SWAP1 PUSH2 0x3555 JUMP JUMPDEST PUSH1 0x40 MLOAD DUP1 SWAP2 SUB SWAP1 LOG3 DUP1 SWAP3 POP POP POP PUSH2 0x1724 PUSH2 0x2027 JUMP JUMPDEST SWAP2 SWAP1 POP JUMP JUMPDEST PUSH2 0x1731 PUSH2 0x1FD8 JUMP JUMPDEST DUP1 ISZERO PUSH2 0x1886 JUMPI PUSH1 0x0 PUSH1 0xA PUSH1 0x0 DUP5 DUP2 MSTORE PUSH1 0x20 ADD SWAP1 DUP2 MSTORE PUSH1 0x20 ADD PUSH1 0x0 KECCAK256 SWAP1 POP CALLER PUSH20 0xFFFFFFFFFFFFFFFFFFFFFFFFFFFFFFFFFFFFFFFF AND DUP2 PUSH1 0x2 ADD PUSH1 0x0 SWAP1 SLOAD SWAP1 PUSH2 0x100 EXP SWAP1 DIV PUSH20 0xFFFFFFFFFFFFFFFFFFFFFFFFFFFFFFFFFFFFFFFF AND PUSH20 0xFFFFFFFFFFFFFFFFFFFFFFFFFFFFFFFFFFFFFFFF AND EQ PUSH2 0x17E0 JUMPI PUSH1 0x40 MLOAD PUSH32 0x8C379A000000000000000000000000000000000000000000000000000000000 DUP2 MSTORE PUSH1 0x4 ADD PUSH2 0x17D7 SWAP1 PUSH2 0x386C JUMP JUMPDEST PUSH1 0x40 MLOAD DUP1 SWAP2 SUB SWAP1 REVERT JUMPDEST DUP1 PUSH1 0x4 ADD PUSH1 0x0 SWAP1 SLOAD SWAP1 PUSH2 0x100 EXP SWAP1 DIV PUSH1 0xFF AND PUSH2 0x1831 JUMPI PUSH1 0x40 MLOAD PUSH32 0x8C379A000000000000000000000000000000000000000000000000000000000 DUP2 MSTORE PUSH1 0x4 ADD PUSH2 0x1828 SWAP1 PUSH2 0x3495 JUMP JUMPDEST PUSH1 0x40 MLOAD DUP1 SWAP2 SUB SWAP1 REVERT JUMPDEST PUSH1 0x0 DUP2 PUSH1 0x4 ADD PUSH1 0x0 PUSH2 0x100 EXP DUP2 SLOAD DUP2 PUSH1 0xFF MUL NOT AND SWAP1 DUP4 ISZERO ISZERO MUL OR SWAP1 SSTORE POP DUP1 PUSH1 0x1 ADD SLOAD DUP4 PUSH32 0xAFD0A85A3F09CEBBC7D9FCDE08E8A7D0EBB0AA7D768A030915C3816A053D3C7A PUSH1 0x40 MLOAD PUSH1 0x40 MLOAD DUP1 SWAP2 SUB SWAP1 LOG3 POP PUSH2 0x19D1 JUMP JUMPDEST PUSH1 0x0 PUSH1 0x9 PUSH1 0x0 DUP5 DUP2 MSTORE PUSH1 0x20 ADD SWAP1 DUP2 MSTORE PUSH1 0x20 ADD PUSH1 0x0 KECCAK256 SWAP1 POP CALLER PUSH20 0xFFFFFFFFFFFFFFFFFFFFFFFFFFFFFFFFFFFFFFFF AND DUP2 PUSH1 0x2 ADD PUSH1 0x0 SWAP1 SLOAD SWAP1 PUSH2 0x100 EXP SWAP1 DIV PUSH20 0xFFFFFFFFFFFFFFFFFFFFFFFFFFFFFFFFFFFFFFFF AND PUSH20 0xFFFFFFFFFFFFFFFFFFFFFFFFFFFFFFFFFFFFFFFF AND EQ PUSH2 0x192F JUMPI PUSH1 0x40 MLOAD PUSH32 0x8C379A000000000000000000000000000000000000000000000000000000000 DUP2 MSTORE PUSH1 0x4 ADD PUSH2 0x1926 SWAP1 PUSH2 0x386C JUMP JUMPDEST PUSH1 0x40 MLOAD DUP1 SWAP2 SUB SWAP1 REVERT JUMPDEST DUP1 PUSH1 0x4 ADD PUSH1 0x0 SWAP1 SLOAD SWAP1 PUSH2 0x100 EXP SWAP1 DIV PUSH1 0xFF AND PUSH2 0x1980 JUMPI PUSH1 0x40 MLOAD PUSH32 0x8C379A000000000000000000000000000000000000000000000000000000000 DUP2 MSTORE PUSH1 0x4 ADD PUSH2 0x1977 SWAP1 PUSH2 0x3495 JUMP JUMPDEST PUSH1 0x40 MLOAD DUP1 SWAP2 SUB SWAP1 REVERT JUMPDEST PUSH1 0x0 DUP2 PUSH1 0x4 ADD PUSH1 0x0 PUSH2 0x100 EXP DUP2 SLOAD DUP2 PUSH1 0xFF MUL NOT AND SWAP1 DUP4 ISZERO ISZERO MUL OR SWAP1 SSTORE POP DUP1 PUSH1 0x1 ADD SLOAD DUP4 PUSH32 0xAFD0A85A3F09CEBBC7D9FCDE08E8A7D0EBB0AA7D768A030915C3816A053D3C7A PUSH1 0x40 MLOAD PUSH1 0x40 MLOAD DUP1 SWAP2 SUB SWAP1 LOG3 POP JUMPDEST PUSH2 0x19D9 PUSH2 0x2027 JUMP JUMPDEST POP POP JUMP JUMPDEST PUSH1 0x9 PUSH1 0x20 MSTORE DUP1 PUSH1 0x0 MSTORE PUSH1 0x40 PUSH1 0x0 KECCAK256 PUSH1 0x0 SWAP2 POP SWAP1 POP DUP1 PUSH1 0x0 ADD SLOAD SWAP1 DUP1 PUSH1 0x1 ADD SLOAD SWAP1 DUP1 PUSH1 0x2 ADD PUSH1 0x0 SWAP1 SLOAD SWAP1 PUSH2 0x100 EXP SWAP1 DIV PUSH20 0xFFFFFFFFFFFFFFFFFFFFFFFFFFFFFFFFFFFFFFFF AND SWAP1 DUP1 PUSH1 0x3 ADD SLOAD SWAP1 DUP1 PUSH1 0x4 ADD PUSH1 0x0 SWAP1 SLOAD SWAP1 PUSH2 0x100 EXP SWAP1 DIV PUSH1 0xFF AND SWAP1 POP DUP6 JUMP JUMPDEST PUSH1 0x0 PUSH1 0x5 PUSH1 0x0 DUP5 PUSH20 0xFFFFFFFFFFFFFFFFFFFFFFFFFFFFFFFFFFFFFFFF AND PUSH20 0xFFFFFFFFFFFFFFFFFFFFFFFFFFFFFFFFFFFFFFFF AND DUP2 MSTORE PUSH1 0x20 ADD SWAP1 DUP2 MSTORE PUSH1 0x20 ADD PUSH1 0x0 KECCAK256 PUSH1 0x0 DUP4 PUSH20 0xFFFFFFFFFFFFFFFFFFFFFFFFFFFFFFFFFFFFFFFF AND PUSH20 0xFFFFFFFFFFFFFFFFFFFFFFFFFFFFFFFFFFFFFFFF AND DUP2 MSTORE PUSH1 0x20 ADD SWAP1 DUP2 MSTORE PUSH1 0x20 ADD PUSH1 0x0 KECCAK256 PUSH1 0x0 SWAP1 SLOAD SWAP1 PUSH2 0x100 EXP SWAP1 DIV PUSH1 0xFF AND SWAP1 POP SWAP3 SWAP2 POP POP JUMP JUMPDEST PUSH1 0x0 PUSH32 0x1FFC9A700000000000000000000000000000000000000000000000000000000 PUSH28 0xFFFFFFFFFFFFFFFFFFFFFFFFFFFFFFFFFFFFFFFFFFFFFFFFFFFFFFFF NOT AND DUP3 PUSH28 0xFFFFFFFFFFFFFFFFFFFFFFFFFFFFFFFFFFFFFFFFFFFFFFFFFFFFFFFF NOT AND EQ SWAP1 POP SWAP2 SWAP1 POP JUMP JUMPDEST PUSH2 0x1B47 DUP2 PUSH2 0x2538 JUMP JUMPDEST PUSH2 0x1B86 JUMPI PUSH1 0x40 MLOAD PUSH32 0x8C379A000000000000000000000000000000000000000000000000000000000 DUP2 MSTORE PUSH1 0x4 ADD PUSH2 0x1B7D SWAP1 PUSH2 0x35CA JUMP JUMPDEST PUSH1 0x40 MLOAD DUP1 SWAP2 SUB SWAP1 REVERT JUMPDEST POP JUMP JUMPDEST PUSH1 0x0 CALLER SWAP1 POP SWAP1 JUMP JUMPDEST DUP2 PUSH1 0x4 PUSH1 0x0 DUP4 DUP2 MSTORE PUSH1 0x20 ADD SWAP1 DUP2 MSTORE PUSH1 0x20 ADD PUSH1 0x0 KECCAK256 PUSH1 0x0 PUSH2 0x100 EXP DUP2 SLOAD DUP2 PUSH20 0xFFFFFFFFFFFFFFFFFFFFFFFFFFFFFFFFFFFFFFFF MUL NOT AND SWAP1 DUP4 PUSH20 0xFFFFFFFFFFFFFFFFFFFFFFFFFFFFFFFFFFFFFFFF AND MUL OR SWAP1 SSTORE POP DUP1 DUP3 PUSH20 0xFFFFFFFFFFFFFFFFFFFFFFFFFFFFFFFFFFFFFFFF AND PUSH2 0x1C04 DUP4 PUSH2 0xD3B JUMP JUMPDEST PUSH20 0xFFFFFFFFFFFFFFFFFFFFFFFFFFFFFFFFFFFFFFFF AND PUSH32 0x8C5BE1E5EBEC7D5BD14F71427D1E84F3DD0314C0F7B2291E5B200AC8C7C3B925 PUSH1 0x40 MLOAD PUSH1 0x40 MLOAD DUP1 SWAP2 SUB SWAP1 LOG4 POP POP JUMP JUMPDEST PUSH1 0x0 DUP1 PUSH2 0x1C56 DUP4 PUSH2 0xD3B JUMP JUMPDEST SWAP1 POP DUP1 PUSH20 0xFFFFFFFFFFFFFFFFFFFFFFFFFFFFFFFFFFFFFFFF AND DUP5 PUSH20 0xFFFFFFFFFFFFFFFFFFFFFFFFFFFFFFFFFFFFFFFF AND EQ DUP1 PUSH2 0x1C98 JUMPI POP PUSH2 0x1C97 DUP2 DUP6 PUSH2 0x1A40 JUMP JUMPDEST JUMPDEST DUP1 PUSH2 0x1CD6 JUMPI POP DUP4 PUSH20 0xFFFFFFFFFFFFFFFFFFFFFFFFFFFFFFFFFFFFFFFF AND PUSH2 0x1CBE DUP5 PUSH2 0x704 JUMP JUMPDEST PUSH20 0xFFFFFFFFFFFFFFFFFFFFFFFFFFFFFFFFFFFFFFFF AND EQ JUMPDEST SWAP2 POP POP SWAP3 SWAP2 POP POP JUMP JUMPDEST DUP3 PUSH20 0xFFFFFFFFFFFFFFFFFFFFFFFFFFFFFFFFFFFFFFFF AND PUSH2 0x1CFF DUP3 PUSH2 0xD3B JUMP JUMPDEST PUSH20 0xFFFFFFFFFFFFFFFFFFFFFFFFFFFFFFFFFFFFFFFF AND EQ PUSH2 0x1D55 JUMPI PUSH1 0x40 MLOAD PUSH32 0x8C379A000000000000000000000000000000000000000000000000000000000 DUP2 MSTORE PUSH1 0x4 ADD PUSH2 0x1D4C SWAP1 PUSH2 0x38FE JUMP JUMPDEST PUSH1 0x40 MLOAD DUP1 SWAP2 SUB SWAP1 REVERT JUMPDEST PUSH1 0x0 PUSH20 0xFFFFFFFFFFFFFFFFFFFFFFFFFFFFFFFFFFFFFFFF AND DUP3 PUSH20 0xFFFFFFFFFFFFFFFFFFFFFFFFFFFFFFFFFFFFFFFF AND SUB PUSH2 0x1DC4 JUMPI PUSH1 0x40 MLOAD PUSH32 0x8C379A000000000000000000000000000000000000000000000000000000000 DUP2 MSTORE PUSH1 0x4 ADD PUSH2 0x1DBB SWAP1 PUSH2 0x3990 JUMP JUMPDEST PUSH1 0x40 MLOAD DUP1 SWAP2 SUB SWAP1 REVERT JUMPDEST PUSH2 0x1DD1 DUP4 DUP4 DUP4 PUSH1 0x1 PUSH2 0x2579 JUMP JUMPDEST DUP3 PUSH20 0xFFFFFFFFFFFFFFFFFFFFFFFFFFFFFFFFFFFFFFFF AND PUSH2 0x1DF1 DUP3 PUSH2 0xD3B JUMP JUMPDEST PUSH20 0xFFFFFFFFFFFFFFFFFFFFFFFFFFFFFFFFFFFFFFFF AND EQ PUSH2 0x1E47 JUMPI PUSH1 0x40 MLOAD PUSH32 0x8C379A000000000000000000000000000000000000000000000000000000000 DUP2 MSTORE PUSH1 0x4 ADD PUSH2 0x1E3E SWAP1 PUSH2 0x38FE JUMP JUMPDEST PUSH1 0x40 MLOAD DUP1 SWAP2 SUB SWAP1 REVERT JUMPDEST PUSH1 0x4 PUSH1 0x0 DUP3 DUP2 MSTORE PUSH1 0x20 ADD SWAP1 DUP2 MSTORE PUSH1 0x20 ADD PUSH1 0x0 KECCAK256 PUSH1 0x0 PUSH2 0x100 EXP DUP2 SLOAD SWAP1 PUSH20 0xFFFFFFFFFFFFFFFFFFFFFFFFFFFFFFFFFFFFFFFF MUL NOT AND SWAP1 SSTORE PUSH1 0x1 PUSH1 0x3 PUSH1 0x0 DUP6 PUSH20 0xFFFFFFFFFFFFFFFFFFFFFFFFFFFFFFFFFFFFFFFF AND PUSH20 0xFFFFFFFFFFFFFFFFFFFFFFFFFFFFFFFFFFFFFFFF AND DUP2 MSTORE PUSH1 0x20 ADD SWAP1 DUP2 MSTORE PUSH1 0x20 ADD PUSH1 0x0 KECCAK256 PUSH1 0x0 DUP3 DUP3 SLOAD SUB SWAP3 POP POP DUP2 SWAP1 SSTORE POP PUSH1 0x1 PUSH1 0x3 PUSH1 0x0 DUP5 PUSH20 0xFFFFFFFFFFFFFFFFFFFFFFFFFFFFFFFFFFFFFFFF AND PUSH20 0xFFFFFFFFFFFFFFFFFFFFFFFFFFFFFFFFFFFFFFFF AND DUP2 MSTORE PUSH1 0x20 ADD SWAP1 DUP2 MSTORE PUSH1 0x20 ADD PUSH1 0x0 KECCAK256 PUSH1 0x0 DUP3 DUP3 SLOAD ADD SWAP3 POP POP DUP2 SWAP1 SSTORE POP DUP2 PUSH1 0x2 PUSH1 0x0 DUP4 DUP2 MSTORE PUSH1 0x20 ADD SWAP1 DUP2 MSTORE PUSH1 0x20 ADD PUSH1 0x0 KECCAK256 PUSH1 0x0 PUSH2 0x100 EXP DUP2 SLOAD DUP2 PUSH20 0xFFFFFFFFFFFFFFFFFFFFFFFFFFFFFFFFFFFFFFFF MUL NOT AND SWAP1 DUP4 PUSH20 0xFFFFFFFFFFFFFFFFFFFFFFFFFFFFFFFFFFFFFFFF AND MUL OR SWAP1 SSTORE POP DUP1 DUP3 PUSH20 0xFFFFFFFFFFFFFFFFFFFFFFFFFFFFFFFFFFFFFFFF AND DUP5 PUSH20 0xFFFFFFFFFFFFFFFFFFFFFFFFFFFFFFFFFFFFFFFF AND PUSH32 0xDDF252AD1BE2C89B69C2B068FC378DAA952BA7F163C4A11628F55A4DF523B3EF PUSH1 0x40 MLOAD PUSH1 0x40 MLOAD DUP1 SWAP2 SUB SWAP1 LOG4 PUSH2 0x1FD3 DUP4 DUP4 DUP4 PUSH1 0x1 PUSH2 0x257F JUMP JUMPDEST POP POP POP JUMP JUMPDEST PUSH1 0x2 PUSH1 0x6 SLOAD SUB PUSH2 0x201D JUMPI PUSH1 0x40 MLOAD PUSH32 0x8C379A000000000000000000000000000000000000000000000000000000000 DUP2 MSTORE PUSH1 0x4 ADD PUSH2 0x2014 SWAP1 PUSH2 0x39FC JUMP JUMPDEST PUSH1 0x40 MLOAD DUP1 SWAP2 SUB SWAP1 REVERT JUMPDEST PUSH1 0x2 PUSH1 0x6 DUP2 SWAP1 SSTORE POP JUMP JUMPDEST PUSH1 0x1 PUSH1 0x6 DUP2 SWAP1 SSTORE POP JUMP JUMPDEST PUSH1 0x0 PUSH1 0x2 PUSH1 0x0 DUP4 DUP2 MSTORE PUSH1 0x20 ADD SWAP1 DUP2 MSTORE PUSH1 0x20 ADD PUSH1 0x0 KECCAK256 PUSH1 0x0 SWAP1 SLOAD SWAP1 PUSH2 0x100 EXP SWAP1 DIV PUSH20 0xFFFFFFFFFFFFFFFFFFFFFFFFFFFFFFFFFFFFFFFF AND SWAP1 POP SWAP2 SWAP1 POP JUMP JUMPDEST DUP2 PUSH20 0xFFFFFFFFFFFFFFFFFFFFFFFFFFFFFFFFFFFFFFFF AND DUP4 PUSH20 0xFFFFFFFFFFFFFFFFFFFFFFFFFFFFFFFFFFFFFFFF AND SUB PUSH2 0x20DC JUMPI PUSH1 0x40 MLOAD PUSH32 0x8C379A000000000000000000000000000000000000000000000000000000000 DUP2 MSTORE PUSH1 0x4 ADD PUSH2 0x20D3 SWAP1 PUSH2 0x3A68 JUMP JUMPDEST PUSH1 0x40 MLOAD DUP1 SWAP2 SUB SWAP1 REVERT JUMPDEST DUP1 PUSH1 0x5 PUSH1 0x0 DUP6 PUSH20 0xFFFFFFFFFFFFFFFFFFFFFFFFFFFFFFFFFFFFFFFF AND PUSH20 0xFFFFFFFFFFFFFFFFFFFFFFFFFFFFFFFFFFFFFFFF AND DUP2 MSTORE PUSH1 0x20 ADD SWAP1 DUP2 MSTORE PUSH1 0x20 ADD PUSH1 0x0 KECCAK256 PUSH1 0x0 DUP5 PUSH20 0xFFFFFFFFFFFFFFFFFFFFFFFFFFFFFFFFFFFFFFFF AND PUSH20 0xFFFFFFFFFFFFFFFFFFFFFFFFFFFFFFFFFFFFFFFF AND DUP2 MSTORE PUSH1 0x20 ADD SWAP1 DUP2 MSTORE PUSH1 0x20 ADD PUSH1 0x0 KECCAK256 PUSH1 0x0 PUSH2 0x100 EXP DUP2 SLOAD DUP2 PUSH1 0xFF MUL NOT AND SWAP1 DUP4 ISZERO ISZERO MUL OR SWAP1 SSTORE POP DUP2 PUSH20 0xFFFFFFFFFFFFFFFFFFFFFFFFFFFFFFFFFFFFFFFF AND DUP4 PUSH20 0xFFFFFFFFFFFFFFFFFFFFFFFFFFFFFFFFFFFFFFFF AND PUSH32 0x17307EAB39AB6107E8899845AD3D59BD9653F200F220920489CA2B5937696C31 DUP4 PUSH1 0x40 MLOAD PUSH2 0x21CD SWAP2 SWAP1 PUSH2 0x297D JUMP JUMPDEST PUSH1 0x40 MLOAD DUP1 SWAP2 SUB SWAP1 LOG3 POP POP POP JUMP JUMPDEST PUSH2 0x21E5 DUP5 DUP5 DUP5 PUSH2 0x1CDF JUMP JUMPDEST PUSH2 0x21F1 DUP5 DUP5 DUP5 DUP5 PUSH2 0x2585 JUMP JUMPDEST PUSH2 0x2230 JUMPI PUSH1 0x40 MLOAD PUSH32 0x8C379A000000000000000000000000000000000000000000000000000000000 DUP2 MSTORE PUSH1 0x4 ADD PUSH2 0x2227 SWAP1 PUSH2 0x3AFA JUMP JUMPDEST PUSH1 0x40 MLOAD DUP1 SWAP2 SUB SWAP1 REVERT JUMPDEST POP POP POP POP JUMP JUMPDEST PUSH1 0x60 PUSH1 0x40 MLOAD DUP1 PUSH1 0x20 ADD PUSH1 0x40 MSTORE DUP1 PUSH1 0x0 DUP2 MSTORE POP SWAP1 POP SWAP1 JUMP JUMPDEST PUSH1 0x60 PUSH1 0x0 PUSH1 0x1 PUSH2 0x225C DUP5 PUSH2 0x270C JUMP JUMPDEST ADD SWAP1 POP PUSH1 0x0 DUP2 PUSH8 0xFFFFFFFFFFFFFFFF DUP2 GT ISZERO PUSH2 0x227B JUMPI PUSH2 0x227A PUSH2 0x2F5F JUMP JUMPDEST JUMPDEST PUSH1 0x40 MLOAD SWAP1 DUP1 DUP3 MSTORE DUP1 PUSH1 0x1F ADD PUSH1 0x1F NOT AND PUSH1 0x20 ADD DUP3 ADD PUSH1 0x40 MSTORE DUP1 ISZERO PUSH2 0x22AD JUMPI DUP2 PUSH1 0x20 ADD PUSH1 0x1 DUP3 MUL DUP1 CALLDATASIZE DUP4 CALLDATACOPY DUP1 DUP3 ADD SWAP2 POP POP SWAP1 POP JUMPDEST POP SWAP1 POP PUSH1 0x0 DUP3 PUSH1 0x20 ADD DUP3 ADD SWAP1 POP JUMPDEST PUSH1 0x1 ISZERO PUSH2 0x2310 JUMPI DUP1 DUP1 PUSH1 0x1 SWAP1 SUB SWAP2 POP POP PUSH32 0x3031323334353637383961626364656600000000000000000000000000000000 PUSH1 0xA DUP7 MOD BYTE DUP2 MSTORE8 PUSH1 0xA DUP6 DUP2 PUSH2 0x2304 JUMPI PUSH2 0x2303 PUSH2 0x3B1A JUMP JUMPDEST JUMPDEST DIV SWAP5 POP PUSH1 0x0 DUP6 SUB PUSH2 0x22BB JUMPI JUMPDEST DUP2 SWAP4 POP POP POP POP SWAP2 SWAP1 POP JUMP JUMPDEST PUSH1 0x0 PUSH20 0xFFFFFFFFFFFFFFFFFFFFFFFFFFFFFFFFFFFFFFFF AND DUP3 PUSH20 0xFFFFFFFFFFFFFFFFFFFFFFFFFFFFFFFFFFFFFFFF AND SUB PUSH2 0x238A JUMPI PUSH1 0x40 MLOAD PUSH32 0x8C379A000000000000000000000000000000000000000000000000000000000 DUP2 MSTORE PUSH1 0x4 ADD PUSH2 0x2381 SWAP1 PUSH2 0x3B95 JUMP JUMPDEST PUSH1 0x40 MLOAD DUP1 SWAP2 SUB SWAP1 REVERT JUMPDEST PUSH2 0x2393 DUP2 PUSH2 0x2538 JUMP JUMPDEST ISZERO PUSH2 0x23D3 JUMPI PUSH1 0x40 MLOAD PUSH32 0x8C379A000000000000000000000000000000000000000000000000000000000 DUP2 MSTORE PUSH1 0x4 ADD PUSH2 0x23CA SWAP1 PUSH2 0x3C01 JUMP JUMPDEST PUSH1 0x40 MLOAD DUP1 SWAP2 SUB SWAP1 REVERT JUMPDEST PUSH2 0x23E1 PUSH1 0x0 DUP4 DUP4 PUSH1 0x1 PUSH2 0x2579 JUMP JUMPDEST PUSH2 0x23EA DUP2 PUSH2 0x2538 JUMP JUMPDEST ISZERO PUSH2 0x242A JUMPI PUSH1 0x40 MLOAD PUSH32 0x8C379A000000000000000000000000000000000000000000000000000000000 DUP2 MSTORE PUSH1 0x4 ADD PUSH2 0x2421 SWAP1 PUSH2 0x3C01 JUMP JUMPDEST PUSH1 0x40 MLOAD DUP1 SWAP2 SUB SWAP1 REVERT JUMPDEST PUSH1 0x1 PUSH1 0x3 PUSH1 0x0 DUP5 PUSH20 0xFFFFFFFFFFFFFFFFFFFFFFFFFFFFFFFFFFFFFFFF AND PUSH20 0xFFFFFFFFFFFFFFFFFFFFFFFFFFFFFFFFFFFFFFFF AND DUP2 MSTORE PUSH1 0x20 ADD SWAP1 DUP2 MSTORE PUSH1 0x20 ADD PUSH1 0x0 KECCAK256 PUSH1 0x0 DUP3 DUP3 SLOAD ADD SWAP3 POP POP DUP2 SWAP1 SSTORE POP DUP2 PUSH1 0x2 PUSH1 0x0 DUP4 DUP2 MSTORE PUSH1 0x20 ADD SWAP1 DUP2 MSTORE PUSH1 0x20 ADD PUSH1 0x0 KECCAK256 PUSH1 0x0 PUSH2 0x100 EXP DUP2 SLOAD DUP2 PUSH20 0xFFFFFFFFFFFFFFFFFFFFFFFFFFFFFFFFFFFFFFFF MUL NOT AND SWAP1 DUP4 PUSH20 0xFFFFFFFFFFFFFFFFFFFFFFFFFFFFFFFFFFFFFFFF AND MUL OR SWAP1 SSTORE POP DUP1 DUP3 PUSH20 0xFFFFFFFFFFFFFFFFFFFFFFFFFFFFFFFFFFFFFFFF AND PUSH1 0x0 PUSH20 0xFFFFFFFFFFFFFFFFFFFFFFFFFFFFFFFFFFFFFFFF AND PUSH32 0xDDF252AD1BE2C89B69C2B068FC378DAA952BA7F163C4A11628F55A4DF523B3EF PUSH1 0x40 MLOAD PUSH1 0x40 MLOAD DUP1 SWAP2 SUB SWAP1 LOG4 PUSH2 0x2534 PUSH1 0x0 DUP4 DUP4 PUSH1 0x1 PUSH2 0x257F JUMP JUMPDEST POP POP JUMP JUMPDEST PUSH1 0x0 DUP1 PUSH20 0xFFFFFFFFFFFFFFFFFFFFFFFFFFFFFFFFFFFFFFFF AND PUSH2 0x255A DUP4 PUSH2 0x2031 JUMP JUMPDEST PUSH20 0xFFFFFFFFFFFFFFFFFFFFFFFFFFFFFFFFFFFFFFFF AND EQ ISZERO SWAP1 POP SWAP2 SWAP1 POP JUMP JUMPDEST POP POP POP POP JUMP JUMPDEST POP POP POP POP JUMP JUMPDEST PUSH1 0x0 PUSH2 0x25A6 DUP5 PUSH20 0xFFFFFFFFFFFFFFFFFFFFFFFFFFFFFFFFFFFFFFFF AND PUSH2 0x285F JUMP JUMPDEST ISZERO PUSH2 0x26FF JUMPI DUP4 PUSH20 0xFFFFFFFFFFFFFFFFFFFFFFFFFFFFFFFFFFFFFFFF AND PUSH4 0x150B7A02 PUSH2 0x25CF PUSH2 0x1B89 JUMP JUMPDEST DUP8 DUP7 DUP7 PUSH1 0x40 MLOAD DUP6 PUSH4 0xFFFFFFFF AND PUSH1 0xE0 SHL DUP2 MSTORE PUSH1 0x4 ADD PUSH2 0x25F1 SWAP5 SWAP4 SWAP3 SWAP2 SWAP1 PUSH2 0x3C76 JUMP JUMPDEST PUSH1 0x20 PUSH1 0x40 MLOAD DUP1 DUP4 SUB DUP2 PUSH1 0x0 DUP8 GAS CALL SWAP3 POP POP POP DUP1 ISZERO PUSH2 0x262D JUMPI POP PUSH1 0x40 MLOAD RETURNDATASIZE PUSH1 0x1F NOT PUSH1 0x1F DUP3 ADD AND DUP3 ADD DUP1 PUSH1 0x40 MSTORE POP DUP2 ADD SWAP1 PUSH2 0x262A SWAP2 SWAP1 PUSH2 0x3CD7 JUMP JUMPDEST PUSH1 0x1 JUMPDEST PUSH2 0x26AF JUMPI RETURNDATASIZE DUP1 PUSH1 0x0 DUP2 EQ PUSH2 0x265D JUMPI PUSH1 0x40 MLOAD SWAP2 POP PUSH1 0x1F NOT PUSH1 0x3F RETURNDATASIZE ADD AND DUP3 ADD PUSH1 0x40 MSTORE RETURNDATASIZE DUP3 MSTORE RETURNDATASIZE PUSH1 0x0 PUSH1 0x20 DUP5 ADD RETURNDATACOPY PUSH2 0x2662 JUMP JUMPDEST PUSH1 0x60 SWAP2 POP JUMPDEST POP PUSH1 0x0 DUP2 MLOAD SUB PUSH2 0x26A7 JUMPI PUSH1 0x40 MLOAD PUSH32 0x8C379A000000000000000000000000000000000000000000000000000000000 DUP2 MSTORE PUSH1 0x4 ADD PUSH2 0x269E SWAP1 PUSH2 0x3AFA JUMP JUMPDEST PUSH1 0x40 MLOAD DUP1 SWAP2 SUB SWAP1 REVERT JUMPDEST DUP1 MLOAD DUP2 PUSH1 0x20 ADD REVERT JUMPDEST PUSH4 0x150B7A02 PUSH1 0xE0 SHL PUSH28 0xFFFFFFFFFFFFFFFFFFFFFFFFFFFFFFFFFFFFFFFFFFFFFFFFFFFFFFFF NOT AND DUP2 PUSH28 0xFFFFFFFFFFFFFFFFFFFFFFFFFFFFFFFFFFFFFFFFFFFFFFFFFFFFFFFF NOT AND EQ SWAP2 POP POP PUSH2 0x2704 JUMP JUMPDEST PUSH1 0x1 SWAP1 POP JUMPDEST SWAP5 SWAP4 POP POP POP POP JUMP JUMPDEST PUSH1 0x0 DUP1 PUSH1 0x0 SWAP1 POP PUSH27 0x184F03E93FF9F4DAA797ED6E38ED64BF6A1F010000000000000000 DUP4 LT PUSH2 0x276A JUMPI PUSH27 0x184F03E93FF9F4DAA797ED6E38ED64BF6A1F010000000000000000 DUP4 DUP2 PUSH2 0x2760 JUMPI PUSH2 0x275F PUSH2 0x3B1A JUMP JUMPDEST JUMPDEST DIV SWAP3 POP PUSH1 0x40 DUP2 ADD SWAP1 POP JUMPDEST PUSH14 0x4EE2D6D415B85ACEF8100000000 DUP4 LT PUSH2 0x27A7 JUMPI PUSH14 0x4EE2D6D415B85ACEF8100000000 DUP4 DUP2 PUSH2 0x279D JUMPI PUSH2 0x279C PUSH2 0x3B1A JUMP JUMPDEST JUMPDEST DIV SWAP3 POP PUSH1 0x20 DUP2 ADD SWAP1 POP JUMPDEST PUSH7 0x2386F26FC10000 DUP4 LT PUSH2 0x27D6 JUMPI PUSH7 0x2386F26FC10000 DUP4 DUP2 PUSH2 0x27CC JUMPI PUSH2 0x27CB PUSH2 0x3B1A JUMP JUMPDEST JUMPDEST DIV SWAP3 POP PUSH1 0x10 DUP2 ADD SWAP1 POP JUMPDEST PUSH4 0x5F5E100 DUP4 LT PUSH2 0x27FF JUMPI PUSH4 0x5F5E100 DUP4 DUP2 PUSH2 0x27F5 JUMPI PUSH2 0x27F4 PUSH2 0x3B1A JUMP JUMPDEST JUMPDEST DIV SWAP3 POP PUSH1 0x8 DUP2 ADD SWAP1 POP JUMPDEST PUSH2 0x2710 DUP4 LT PUSH2 0x2824 JUMPI PUSH2 0x2710 DUP4 DUP2 PUSH2 0x281A JUMPI PUSH2 0x2819 PUSH2 0x3B1A JUMP JUMPDEST JUMPDEST DIV SWAP3 POP PUSH1 0x4 DUP2 ADD SWAP1 POP JUMPDEST PUSH1 0x64 DUP4 LT PUSH2 0x2847 JUMPI PUSH1 0x64 DUP4 DUP2 PUSH2 0x283D JUMPI PUSH2 0x283C PUSH2 0x3B1A JUMP JUMPDEST JUMPDEST DIV SWAP3 POP PUSH1 0x2 DUP2 ADD SWAP1 POP JUMPDEST PUSH1 0xA DUP4 LT PUSH2 0x2856 JUMPI PUSH1 0x1 DUP2 ADD SWAP1 POP JUMPDEST DUP1 SWAP2 POP POP SWAP2 SWAP1 POP JUMP JUMPDEST PUSH1 0x0 DUP1 DUP3 PUSH20 0xFFFFFFFFFFFFFFFFFFFFFFFFFFFFFFFFFFFFFFFF AND EXTCODESIZE GT SWAP1 POP SWAP2 SWAP1 POP JUMP JUMPDEST PUSH1 0x40 MLOAD DUP1 PUSH1 0xA0 ADD PUSH1 0x40 MSTORE DUP1 PUSH1 0x0 DUP2 MSTORE PUSH1 0x20 ADD PUSH1 0x0 DUP2 MSTORE PUSH1 0x20 ADD PUSH1 0x0 PUSH20 0xFFFFFFFFFFFFFFFFFFFFFFFFFFFFFFFFFFFFFFFF AND DUP2 MSTORE PUSH1 0x20 ADD PUSH1 0x0 DUP2 MSTORE PUSH1 0x20 ADD PUSH1 0x0 ISZERO ISZERO DUP2 MSTORE POP SWAP1 JUMP JUMPDEST PUSH1 0x0 PUSH1 0x40 MLOAD SWAP1 POP SWAP1 JUMP JUMPDEST PUSH1 0x0 DUP1 REVERT JUMPDEST PUSH1 0x0 DUP1 REVERT JUMPDEST PUSH1 0x0 PUSH32 0xFFFFFFFF00000000000000000000000000000000000000000000000000000000 DUP3 AND SWAP1 POP SWAP2 SWAP1 POP JUMP JUMPDEST PUSH2 0x2912 DUP2 PUSH2 0x28DD JUMP JUMPDEST DUP2 EQ PUSH2 0x291D JUMPI PUSH1 0x0 DUP1 REVERT JUMPDEST POP JUMP JUMPDEST PUSH1 0x0 DUP2 CALLDATALOAD SWAP1 POP PUSH2 0x292F DUP2 PUSH2 0x2909 JUMP JUMPDEST SWAP3 SWAP2 POP POP JUMP JUMPDEST PUSH1 0x0 PUSH1 0x20 DUP3 DUP5 SUB SLT ISZERO PUSH2 0x294B JUMPI PUSH2 0x294A PUSH2 0x28D3 JUMP JUMPDEST JUMPDEST PUSH1 0x0 PUSH2 0x2959 DUP5 DUP3 DUP6 ADD PUSH2 0x2920 JUMP JUMPDEST SWAP2 POP POP SWAP3 SWAP2 POP POP JUMP JUMPDEST PUSH1 0x0 DUP2 ISZERO ISZERO SWAP1 POP SWAP2 SWAP1 POP JUMP JUMPDEST PUSH2 0x2977 DUP2 PUSH2 0x2962 JUMP JUMPDEST DUP3 MSTORE POP POP JUMP JUMPDEST PUSH1 0x0 PUSH1 0x20 DUP3 ADD SWAP1 POP PUSH2 0x2992 PUSH1 0x0 DUP4 ADD DUP5 PUSH2 0x296E JUMP JUMPDEST SWAP3 SWAP2 POP POP JUMP JUMPDEST PUSH1 0x0 DUP2 MLOAD SWAP1 POP SWAP2 SWAP1 POP JUMP JUMPDEST PUSH1 0x0 DUP3 DUP3 MSTORE PUSH1 0x20 DUP3 ADD SWAP1 POP SWAP3 SWAP2 POP POP JUMP JUMPDEST PUSH1 0x0 JUMPDEST DUP4 DUP2 LT ISZERO PUSH2 0x29D2 JUMPI DUP1 DUP3 ADD MLOAD DUP2 DUP5 ADD MSTORE PUSH1 0x20 DUP2 ADD SWAP1 POP PUSH2 0x29B7 JUMP JUMPDEST PUSH1 0x0 DUP5 DUP5 ADD MSTORE POP POP POP POP JUMP JUMPDEST PUSH1 0x0 PUSH1 0x1F NOT PUSH1 0x1F DUP4 ADD AND SWAP1 POP SWAP2 SWAP1 POP JUMP JUMPDEST PUSH1 0x0 PUSH2 0x29FA DUP3 PUSH2 0x2998 JUMP JUMPDEST PUSH2 0x2A04 DUP2 DUP6 PUSH2 0x29A3 JUMP JUMPDEST SWAP4 POP PUSH2 0x2A14 DUP2 DUP6 PUSH1 0x20 DUP7 ADD PUSH2 0x29B4 JUMP JUMPDEST PUSH2 0x2A1D DUP2 PUSH2 0x29DE JUMP JUMPDEST DUP5 ADD SWAP2 POP POP SWAP3 SWAP2 POP POP JUMP JUMPDEST PUSH1 0x0 PUSH1 0x20 DUP3 ADD SWAP1 POP DUP2 DUP2 SUB PUSH1 0x0 DUP4 ADD MSTORE PUSH2 0x2A42 DUP2 DUP5 PUSH2 0x29EF JUMP JUMPDEST SWAP1 POP SWAP3 SWAP2 POP POP JUMP JUMPDEST PUSH1 0x0 DUP2 SWAP1 POP SWAP2 SWAP1 POP JUMP JUMPDEST PUSH2 0x2A5D DUP2 PUSH2 0x2A4A JUMP JUMPDEST DUP2 EQ PUSH2 0x2A68 JUMPI PUSH1 0x0 DUP1 REVERT JUMPDEST POP JUMP JUMPDEST PUSH1 0x0 DUP2 CALLDATALOAD SWAP1 POP PUSH2 0x2A7A DUP2 PUSH2 0x2A54 JUMP JUMPDEST SWAP3 SWAP2 POP POP JUMP JUMPDEST PUSH1 0x0 PUSH1 0x20 DUP3 DUP5 SUB SLT ISZERO PUSH2 0x2A96 JUMPI PUSH2 0x2A95 PUSH2 0x28D3 JUMP JUMPDEST JUMPDEST PUSH1 0x0 PUSH2 0x2AA4 DUP5 DUP3 DUP6 ADD PUSH2 0x2A6B JUMP JUMPDEST SWAP2 POP POP SWAP3 SWAP2 POP POP JUMP JUMPDEST PUSH1 0x0 PUSH20 0xFFFFFFFFFFFFFFFFFFFFFFFFFFFFFFFFFFFFFFFF DUP3 AND SWAP1 POP SWAP2 SWAP1 POP JUMP JUMPDEST PUSH1 0x0 PUSH2 0x2AD8 DUP3 PUSH2 0x2AAD JUMP JUMPDEST SWAP1 POP SWAP2 SWAP1 POP JUMP JUMPDEST PUSH2 0x2AE8 DUP2 PUSH2 0x2ACD JUMP JUMPDEST DUP3 MSTORE POP POP JUMP JUMPDEST PUSH1 0x0 PUSH1 0x20 DUP3 ADD SWAP1 POP PUSH2 0x2B03 PUSH1 0x0 DUP4 ADD DUP5 PUSH2 0x2ADF JUMP JUMPDEST SWAP3 SWAP2 POP POP JUMP JUMPDEST PUSH2 0x2B12 DUP2 PUSH2 0x2ACD JUMP JUMPDEST DUP2 EQ PUSH2 0x2B1D JUMPI PUSH1 0x0 DUP1 REVERT JUMPDEST POP JUMP JUMPDEST PUSH1 0x0 DUP2 CALLDATALOAD SWAP1 POP PUSH2 0x2B2F DUP2 PUSH2 0x2B09 JUMP JUMPDEST SWAP3 SWAP2 POP POP JUMP JUMPDEST PUSH1 0x0 DUP1 PUSH1 0x40 DUP4 DUP6 SUB SLT ISZERO PUSH2 0x2B4C JUMPI PUSH2 0x2B4B PUSH2 0x28D3 JUMP JUMPDEST JUMPDEST PUSH1 0x0 PUSH2 0x2B5A DUP6 DUP3 DUP7 ADD PUSH2 0x2B20 JUMP JUMPDEST SWAP3 POP POP PUSH1 0x20 PUSH2 0x2B6B DUP6 DUP3 DUP7 ADD PUSH2 0x2A6B JUMP JUMPDEST SWAP2 POP POP SWAP3 POP SWAP3 SWAP1 POP JUMP JUMPDEST PUSH1 0x0 DUP2 MLOAD SWAP1 POP SWAP2 SWAP1 POP JUMP JUMPDEST PUSH1 0x0 DUP3 DUP3 MSTORE PUSH1 0x20 DUP3 ADD SWAP1 POP SWAP3 SWAP2 POP POP JUMP JUMPDEST PUSH1 0x0 DUP2 SWAP1 POP PUSH1 0x20 DUP3 ADD SWAP1 POP SWAP2 SWAP1 POP JUMP JUMPDEST PUSH2 0x2BAA DUP2 PUSH2 0x2A4A JUMP JUMPDEST DUP3 MSTORE POP POP JUMP JUMPDEST PUSH2 0x2BB9 DUP2 PUSH2 0x2ACD JUMP JUMPDEST DUP3 MSTORE POP POP JUMP JUMPDEST PUSH2 0x2BC8 DUP2 PUSH2 0x2962 JUMP JUMPDEST DUP3 MSTORE POP POP JUMP JUMPDEST PUSH1 0xA0 DUP3 ADD PUSH1 0x0 DUP3 ADD MLOAD PUSH2 0x2BE4 PUSH1 0x0 DUP6 ADD DUP3 PUSH2 0x2BA1 JUMP JUMPDEST POP PUSH1 0x20 DUP3 ADD MLOAD PUSH2 0x2BF7 PUSH1 0x20 DUP6 ADD DUP3 PUSH2 0x2BA1 JUMP JUMPDEST POP PUSH1 0x40 DUP3 ADD MLOAD PUSH2 0x2C0A PUSH1 0x40 DUP6 ADD DUP3 PUSH2 0x2BB0 JUMP JUMPDEST POP PUSH1 0x60 DUP3 ADD MLOAD PUSH2 0x2C1D PUSH1 0x60 DUP6 ADD DUP3 PUSH2 0x2BA1 JUMP JUMPDEST POP PUSH1 0x80 DUP3 ADD MLOAD PUSH2 0x2C30 PUSH1 0x80 DUP6 ADD DUP3 PUSH2 0x2BBF JUMP JUMPDEST POP POP POP POP JUMP JUMPDEST PUSH1 0x0 PUSH2 0x2C42 DUP4 DUP4 PUSH2 0x2BCE JUMP JUMPDEST PUSH1 0xA0 DUP4 ADD SWAP1 POP SWAP3 SWAP2 POP POP JUMP JUMPDEST PUSH1 0x0 PUSH1 0x20 DUP3 ADD SWAP1 POP SWAP2 SWAP1 POP JUMP JUMPDEST PUSH1 0x0 PUSH2 0x2C66 DUP3 PUSH2 0x2B75 JUMP JUMPDEST PUSH2 0x2C70 DUP2 DUP6 PUSH2 0x2B80 JUMP JUMPDEST SWAP4 POP PUSH2 0x2C7B DUP4 PUSH2 0x2B91 JUMP JUMPDEST DUP1 PUSH1 0x0 JUMPDEST DUP4 DUP2 LT ISZERO PUSH2 0x2CAC JUMPI DUP2 MLOAD PUSH2 0x2C93 DUP9 DUP3 PUSH2 0x2C36 JUMP JUMPDEST SWAP8 POP PUSH2 0x2C9E DUP4 PUSH2 0x2C4E JUMP JUMPDEST SWAP3 POP POP PUSH1 0x1 DUP2 ADD SWAP1 POP PUSH2 0x2C7F JUMP JUMPDEST POP DUP6 SWAP4 POP POP POP POP SWAP3 SWAP2 POP POP JUMP JUMPDEST PUSH1 0x0 PUSH1 0x20 DUP3 ADD SWAP1 POP DUP2 DUP2 SUB PUSH1 0x0 DUP4 ADD MSTORE PUSH2 0x2CD3 DUP2 DUP5 PUSH2 0x2C5B JUMP JUMPDEST SWAP1 POP SWAP3 SWAP2 POP POP JUMP JUMPDEST PUSH1 0x0 DUP1 PUSH1 0x0 PUSH1 0x60 DUP5 DUP7 SUB SLT ISZERO PUSH2 0x2CF4 JUMPI PUSH2 0x2CF3 PUSH2 0x28D3 JUMP JUMPDEST JUMPDEST PUSH1 0x0 PUSH2 0x2D02 DUP7 DUP3 DUP8 ADD PUSH2 0x2B20 JUMP JUMPDEST SWAP4 POP POP PUSH1 0x20 PUSH2 0x2D13 DUP7 DUP3 DUP8 ADD PUSH2 0x2B20 JUMP JUMPDEST SWAP3 POP POP PUSH1 0x40 PUSH2 0x2D24 DUP7 DUP3 DUP8 ADD PUSH2 0x2A6B JUMP JUMPDEST SWAP2 POP POP SWAP3 POP SWAP3 POP SWAP3 JUMP JUMPDEST PUSH1 0x0 DUP1 PUSH1 0x40 DUP4 DUP6 SUB SLT ISZERO PUSH2 0x2D45 JUMPI PUSH2 0x2D44 PUSH2 0x28D3 JUMP JUMPDEST JUMPDEST PUSH1 0x0 PUSH2 0x2D53 DUP6 DUP3 DUP7 ADD PUSH2 0x2A6B JUMP JUMPDEST SWAP3 POP POP PUSH1 0x20 PUSH2 0x2D64 DUP6 DUP3 DUP7 ADD PUSH2 0x2A6B JUMP JUMPDEST SWAP2 POP POP SWAP3 POP SWAP3 SWAP1 POP JUMP JUMPDEST PUSH2 0x2D77 DUP2 PUSH2 0x2A4A JUMP JUMPDEST DUP3 MSTORE POP POP JUMP JUMPDEST PUSH1 0x0 PUSH1 0x20 DUP3 ADD SWAP1 POP PUSH2 0x2D92 PUSH1 0x0 DUP4 ADD DUP5 PUSH2 0x2D6E JUMP JUMPDEST SWAP3 SWAP2 POP POP JUMP JUMPDEST PUSH1 0x0 PUSH1 0x20 DUP3 DUP5 SUB SLT ISZERO PUSH2 0x2DAE JUMPI PUSH2 0x2DAD PUSH2 0x28D3 JUMP JUMPDEST JUMPDEST PUSH1 0x0 PUSH2 0x2DBC DUP5 DUP3 DUP6 ADD PUSH2 0x2B20 JUMP JUMPDEST SWAP2 POP POP SWAP3 SWAP2 POP POP JUMP JUMPDEST PUSH1 0x0 DUP2 MLOAD SWAP1 POP SWAP2 SWAP1 POP JUMP JUMPDEST PUSH1 0x0 DUP3 DUP3 MSTORE PUSH1 0x20 DUP3 ADD SWAP1 POP SWAP3 SWAP2 POP POP JUMP JUMPDEST PUSH1 0x0 DUP2 SWAP1 POP PUSH1 0x20 DUP3 ADD SWAP1 POP SWAP2 SWAP1 POP JUMP JUMPDEST PUSH1 0x0 PUSH2 0x2DFD DUP4 DUP4 PUSH2 0x2BA1 JUMP JUMPDEST PUSH1 0x20 DUP4 ADD SWAP1 POP SWAP3 SWAP2 POP POP JUMP JUMPDEST PUSH1 0x0 PUSH1 0x20 DUP3 ADD SWAP1 POP SWAP2 SWAP1 POP JUMP JUMPDEST PUSH1 0x0 PUSH2 0x2E21 DUP3 PUSH2 0x2DC5 JUMP JUMPDEST PUSH2 0x2E2B DUP2 DUP6 PUSH2 0x2DD0 JUMP JUMPDEST SWAP4 POP PUSH2 0x2E36 DUP4 PUSH2 0x2DE1 JUMP JUMPDEST DUP1 PUSH1 0x0 JUMPDEST DUP4 DUP2 LT ISZERO PUSH2 0x2E67 JUMPI DUP2 MLOAD PUSH2 0x2E4E DUP9 DUP3 PUSH2 0x2DF1 JUMP JUMPDEST SWAP8 POP PUSH2 0x2E59 DUP4 PUSH2 0x2E09 JUMP JUMPDEST SWAP3 POP POP PUSH1 0x1 DUP2 ADD SWAP1 POP PUSH2 0x2E3A JUMP JUMPDEST POP DUP6 SWAP4 POP POP POP POP SWAP3 SWAP2 POP POP JUMP JUMPDEST PUSH1 0x0 PUSH1 0x20 DUP3 ADD SWAP1 POP DUP2 DUP2 SUB PUSH1 0x0 DUP4 ADD MSTORE PUSH2 0x2E8E DUP2 DUP5 PUSH2 0x2E16 JUMP JUMPDEST SWAP1 POP SWAP3 SWAP2 POP POP JUMP JUMPDEST PUSH2 0x2E9F DUP2 PUSH2 0x2962 JUMP JUMPDEST DUP2 EQ PUSH2 0x2EAA JUMPI PUSH1 0x0 DUP1 REVERT JUMPDEST POP JUMP JUMPDEST PUSH1 0x0 DUP2 CALLDATALOAD SWAP1 POP PUSH2 0x2EBC DUP2 PUSH2 0x2E96 JUMP JUMPDEST SWAP3 SWAP2 POP POP JUMP JUMPDEST PUSH1 0x0 DUP1 PUSH1 0x40 DUP4 DUP6 SUB SLT ISZERO PUSH2 0x2ED9 JUMPI PUSH2 0x2ED8 PUSH2 0x28D3 JUMP JUMPDEST JUMPDEST PUSH1 0x0 PUSH2 0x2EE7 DUP6 DUP3 DUP7 ADD PUSH2 0x2B20 JUMP JUMPDEST SWAP3 POP POP PUSH1 0x20 PUSH2 0x2EF8 DUP6 DUP3 DUP7 ADD PUSH2 0x2EAD JUMP JUMPDEST SWAP2 POP POP SWAP3 POP SWAP3 SWAP1 POP JUMP JUMPDEST PUSH1 0x0 PUSH1 0xA0 DUP3 ADD SWAP1 POP PUSH2 0x2F17 PUSH1 0x0 DUP4 ADD DUP9 PUSH2 0x2D6E JUMP JUMPDEST PUSH2 0x2F24 PUSH1 0x20 DUP4 ADD DUP8 PUSH2 0x2D6E JUMP JUMPDEST PUSH2 0x2F31 PUSH1 0x40 DUP4 ADD DUP7 PUSH2 0x2ADF JUMP JUMPDEST PUSH2 0x2F3E PUSH1 0x60 DUP4 ADD DUP6 PUSH2 0x2D6E JUMP JUMPDEST PUSH2 0x2F4B PUSH1 0x80 DUP4 ADD DUP5 PUSH2 0x296E JUMP JUMPDEST SWAP7 SWAP6 POP POP POP POP POP POP JUMP JUMPDEST PUSH1 0x0 DUP1 REVERT JUMPDEST PUSH1 0x0 DUP1 REVERT JUMPDEST PUSH32 0x4E487B7100000000000000000000000000000000000000000000000000000000 PUSH1 0x0 MSTORE PUSH1 0x41 PUSH1 0x4 MSTORE PUSH1 0x24 PUSH1 0x0 REVERT JUMPDEST PUSH2 0x2F97 DUP3 PUSH2 0x29DE JUMP JUMPDEST DUP2 ADD DUP2 DUP2 LT PUSH8 0xFFFFFFFFFFFFFFFF DUP3 GT OR ISZERO PUSH2 0x2FB6 JUMPI PUSH2 0x2FB5 PUSH2 0x2F5F JUMP JUMPDEST JUMPDEST DUP1 PUSH1 0x40 MSTORE POP POP POP JUMP JUMPDEST PUSH1 0x0 PUSH2 0x2FC9 PUSH2 0x28C9 JUMP JUMPDEST SWAP1 POP PUSH2 0x2FD5 DUP3 DUP3 PUSH2 0x2F8E JUMP JUMPDEST SWAP2 SWAP1 POP JUMP JUMPDEST PUSH1 0x0 PUSH8 0xFFFFFFFFFFFFFFFF DUP3 GT ISZERO PUSH2 0x2FF5 JUMPI PUSH2 0x2FF4 PUSH2 0x2F5F JUMP JUMPDEST JUMPDEST PUSH2 0x2FFE DUP3 PUSH2 0x29DE JUMP JUMPDEST SWAP1 POP PUSH1 0x20 DUP2 ADD SWAP1 POP SWAP2 SWAP1 POP JUMP JUMPDEST DUP3 DUP2 DUP4 CALLDATACOPY PUSH1 0x0 DUP4 DUP4 ADD MSTORE POP POP POP JUMP JUMPDEST PUSH1 0x0 PUSH2 0x302D PUSH2 0x3028 DUP5 PUSH2 0x2FDA JUMP JUMPDEST PUSH2 0x2FBF JUMP JUMPDEST SWAP1 POP DUP3 DUP2 MSTORE PUSH1 0x20 DUP2 ADD DUP5 DUP5 DUP5 ADD GT ISZERO PUSH2 0x3049 JUMPI PUSH2 0x3048 PUSH2 0x2F5A JUMP JUMPDEST JUMPDEST PUSH2 0x3054 DUP5 DUP3 DUP6 PUSH2 0x300B JUMP JUMPDEST POP SWAP4 SWAP3 POP POP POP JUMP JUMPDEST PUSH1 0x0 DUP3 PUSH1 0x1F DUP4 ADD SLT PUSH2 0x3071 JUMPI PUSH2 0x3070 PUSH2 0x2F55 JUMP JUMPDEST JUMPDEST DUP2 CALLDATALOAD PUSH2 0x3081 DUP5 DUP3 PUSH1 0x20 DUP7 ADD PUSH2 0x301A JUMP JUMPDEST SWAP2 POP POP SWAP3 SWAP2 POP POP JUMP JUMPDEST PUSH1 0x0 DUP1 PUSH1 0x0 DUP1 PUSH1 0x80 DUP6 DUP8 SUB SLT ISZERO PUSH2 0x30A4 JUMPI PUSH2 0x30A3 PUSH2 0x28D3 JUMP JUMPDEST JUMPDEST PUSH1 0x0 PUSH2 0x30B2 DUP8 DUP3 DUP9 ADD PUSH2 0x2B20 JUMP JUMPDEST SWAP5 POP POP PUSH1 0x20 PUSH2 0x30C3 DUP8 DUP3 DUP9 ADD PUSH2 0x2B20 JUMP JUMPDEST SWAP4 POP POP PUSH1 0x40 PUSH2 0x30D4 DUP8 DUP3 DUP9 ADD PUSH2 0x2A6B JUMP JUMPDEST SWAP3 POP POP PUSH1 0x60 DUP6 ADD CALLDATALOAD PUSH8 0xFFFFFFFFFFFFFFFF DUP2 GT ISZERO PUSH2 0x30F5 JUMPI PUSH2 0x30F4 PUSH2 0x28D8 JUMP JUMPDEST JUMPDEST PUSH2 0x3101 DUP8 DUP3 DUP9 ADD PUSH2 0x305C JUMP JUMPDEST SWAP2 POP POP SWAP3 SWAP6 SWAP2 SWAP5 POP SWAP3 POP JUMP JUMPDEST PUSH1 0x0 DUP1 PUSH1 0x40 DUP4 DUP6 SUB SLT ISZERO PUSH2 0x3124 JUMPI PUSH2 0x3123 PUSH2 0x28D3 JUMP JUMPDEST JUMPDEST PUSH1 0x0 PUSH2 0x3132 DUP6 DUP3 DUP7 ADD PUSH2 0x2A6B JUMP JUMPDEST SWAP3 POP POP PUSH1 0x20 PUSH2 0x3143 DUP6 DUP3 DUP7 ADD PUSH2 0x2EAD JUMP JUMPDEST SWAP2 POP POP SWAP3 POP SWAP3 SWAP1 POP JUMP JUMPDEST PUSH1 0x0 DUP1 PUSH1 0x40 DUP4 DUP6 SUB SLT ISZERO PUSH2 0x3164 JUMPI PUSH2 0x3163 PUSH2 0x28D3 JUMP JUMPDEST JUMPDEST PUSH1 0x0 PUSH2 0x3172 DUP6 DUP3 DUP7 ADD PUSH2 0x2B20 JUMP JUMPDEST SWAP3 POP POP PUSH1 0x20 PUSH2 0x3183 DUP6 DUP3 DUP7 ADD PUSH2 0x2B20 JUMP JUMPDEST SWAP2 POP POP SWAP3 POP SWAP3 SWAP1 POP JUMP JUMPDEST PUSH32 0x4E487B7100000000000000000000000000000000000000000000000000000000 PUSH1 0x0 MSTORE PUSH1 0x22 PUSH1 0x4 MSTORE PUSH1 0x24 PUSH1 0x0 REVERT JUMPDEST PUSH1 0x0 PUSH1 0x2 DUP3 DIV SWAP1 POP PUSH1 0x1 DUP3 AND DUP1 PUSH2 0x31D4 JUMPI PUSH1 0x7F DUP3 AND SWAP2 POP JUMPDEST PUSH1 0x20 DUP3 LT DUP2 SUB PUSH2 0x31E7 JUMPI PUSH2 0x31E6 PUSH2 0x318D JUMP JUMPDEST JUMPDEST POP SWAP2 SWAP1 POP JUMP JUMPDEST PUSH32 0x4552433732313A20617070726F76616C20746F2063757272656E74206F776E65 PUSH1 0x0 DUP3 ADD MSTORE PUSH32 0x7200000000000000000000000000000000000000000000000000000000000000 PUSH1 0x20 DUP3 ADD MSTORE POP JUMP JUMPDEST PUSH1 0x0 PUSH2 0x3249 PUSH1 0x21 DUP4 PUSH2 0x29A3 JUMP JUMPDEST SWAP2 POP PUSH2 0x3254 DUP3 PUSH2 0x31ED JUMP JUMPDEST PUSH1 0x40 DUP3 ADD SWAP1 POP SWAP2 SWAP1 POP JUMP JUMPDEST PUSH1 0x0 PUSH1 0x20 DUP3 ADD SWAP1 POP DUP2 DUP2 SUB PUSH1 0x0 DUP4 ADD MSTORE PUSH2 0x3278 DUP2 PUSH2 0x323C JUMP JUMPDEST SWAP1 POP SWAP2 SWAP1 POP JUMP JUMPDEST PUSH32 0x4552433732313A20617070726F76652063616C6C6572206973206E6F7420746F PUSH1 0x0 DUP3 ADD MSTORE PUSH32 0x6B656E206F776E6572206F7220617070726F76656420666F7220616C6C000000 PUSH1 0x20 DUP3 ADD MSTORE POP JUMP JUMPDEST PUSH1 0x0 PUSH2 0x32DB PUSH1 0x3D DUP4 PUSH2 0x29A3 JUMP JUMPDEST SWAP2 POP PUSH2 0x32E6 DUP3 PUSH2 0x327F JUMP JUMPDEST PUSH1 0x40 DUP3 ADD SWAP1 POP SWAP2 SWAP1 POP JUMP JUMPDEST PUSH1 0x0 PUSH1 0x20 DUP3 ADD SWAP1 POP DUP2 DUP2 SUB PUSH1 0x0 DUP4 ADD MSTORE PUSH2 0x330A DUP2 PUSH2 0x32CE JUMP JUMPDEST SWAP1 POP SWAP2 SWAP1 POP JUMP JUMPDEST PUSH32 0x4E487B7100000000000000000000000000000000000000000000000000000000 PUSH1 0x0 MSTORE PUSH1 0x11 PUSH1 0x4 MSTORE PUSH1 0x24 PUSH1 0x0 REVERT JUMPDEST PUSH1 0x0 PUSH2 0x334B DUP3 PUSH2 0x2A4A JUMP JUMPDEST SWAP2 POP PUSH32 0xFFFFFFFFFFFFFFFFFFFFFFFFFFFFFFFFFFFFFFFFFFFFFFFFFFFFFFFFFFFFFFFF DUP3 SUB PUSH2 0x337D JUMPI PUSH2 0x337C PUSH2 0x3311 JUMP JUMPDEST JUMPDEST PUSH1 0x1 DUP3 ADD SWAP1 POP SWAP2 SWAP1 POP JUMP JUMPDEST PUSH32 0x4E487B7100000000000000000000000000000000000000000000000000000000 PUSH1 0x0 MSTORE PUSH1 0x32 PUSH1 0x4 MSTORE PUSH1 0x24 PUSH1 0x0 REVERT JUMPDEST PUSH32 0x4552433732313A2063616C6C6572206973206E6F7420746F6B656E206F776E65 PUSH1 0x0 DUP3 ADD MSTORE PUSH32 0x72206F7220617070726F76656400000000000000000000000000000000000000 PUSH1 0x20 DUP3 ADD MSTORE POP JUMP JUMPDEST PUSH1 0x0 PUSH2 0x3413 PUSH1 0x2D DUP4 PUSH2 0x29A3 JUMP JUMPDEST SWAP2 POP PUSH2 0x341E DUP3 PUSH2 0x33B7 JUMP JUMPDEST PUSH1 0x40 DUP3 ADD SWAP1 POP SWAP2 SWAP1 POP JUMP JUMPDEST PUSH1 0x0 PUSH1 0x20 DUP3 ADD SWAP1 POP DUP2 DUP2 SUB PUSH1 0x0 DUP4 ADD MSTORE PUSH2 0x3442 DUP2 PUSH2 0x3406 JUMP JUMPDEST SWAP1 POP SWAP2 SWAP1 POP JUMP JUMPDEST PUSH32 0x4C697374696E67206973206E6F74206163746976650000000000000000000000 PUSH1 0x0 DUP3 ADD MSTORE POP JUMP JUMPDEST PUSH1 0x0 PUSH2 0x347F PUSH1 0x15 DUP4 PUSH2 0x29A3 JUMP JUMPDEST SWAP2 POP PUSH2 0x348A DUP3 PUSH2 0x3449 JUMP JUMPDEST PUSH1 0x20 DUP3 ADD SWAP1 POP SWAP2 SWAP1 POP JUMP JUMPDEST PUSH1 0x0 PUSH1 0x20 DUP3 ADD SWAP1 POP DUP2 DUP2 SUB PUSH1 0x0 DUP4 ADD MSTORE PUSH2 0x34AE DUP2 PUSH2 0x3472 JUMP JUMPDEST SWAP1 POP SWAP2 SWAP1 POP JUMP JUMPDEST PUSH32 0x496E73756666696369656E74207061796D656E74000000000000000000000000 PUSH1 0x0 DUP3 ADD MSTORE POP JUMP JUMPDEST PUSH1 0x0 PUSH2 0x34EB PUSH1 0x14 DUP4 PUSH2 0x29A3 JUMP JUMPDEST SWAP2 POP PUSH2 0x34F6 DUP3 PUSH2 0x34B5 JUMP JUMPDEST PUSH1 0x20 DUP3 ADD SWAP1 POP SWAP2 SWAP1 POP JUMP JUMPDEST PUSH1 0x0 PUSH1 0x20 DUP3 ADD SWAP1 POP DUP2 DUP2 SUB PUSH1 0x0 DUP4 ADD MSTORE PUSH2 0x351A DUP2 PUSH2 0x34DE JUMP JUMPDEST SWAP1 POP SWAP2 SWAP1 POP JUMP JUMPDEST PUSH1 0x0 PUSH2 0x352C DUP3 PUSH2 0x2A4A JUMP JUMPDEST SWAP2 POP PUSH2 0x3537 DUP4 PUSH2 0x2A4A JUMP JUMPDEST SWAP3 POP DUP3 DUP3 SUB SWAP1 POP DUP2 DUP2 GT ISZERO PUSH2 0x354F JUMPI PUSH2 0x354E PUSH2 0x3311 JUMP JUMPDEST JUMPDEST SWAP3 SWAP2 POP POP JUMP JUMPDEST PUSH1 0x0 PUSH1 0x40 DUP3 ADD SWAP1 POP PUSH2 0x356A PUSH1 0x0 DUP4 ADD DUP6 PUSH2 0x2ADF JUMP JUMPDEST PUSH2 0x3577 PUSH1 0x20 DUP4 ADD DUP5 PUSH2 0x2D6E JUMP JUMPDEST SWAP4 SWAP3 POP POP POP JUMP JUMPDEST PUSH32 0x4552433732313A20696E76616C696420746F6B656E2049440000000000000000 PUSH1 0x0 DUP3 ADD MSTORE POP JUMP JUMPDEST PUSH1 0x0 PUSH2 0x35B4 PUSH1 0x18 DUP4 PUSH2 0x29A3 JUMP JUMPDEST SWAP2 POP PUSH2 0x35BF DUP3 PUSH2 0x357E JUMP JUMPDEST PUSH1 0x20 DUP3 ADD SWAP1 POP SWAP2 SWAP1 POP JUMP JUMPDEST PUSH1 0x0 PUSH1 0x20 DUP3 ADD SWAP1 POP DUP2 DUP2 SUB PUSH1 0x0 DUP4 ADD MSTORE PUSH2 0x35E3 DUP2 PUSH2 0x35A7 JUMP JUMPDEST SWAP1 POP SWAP2 SWAP1 POP JUMP JUMPDEST PUSH32 0x4E6F7420746865206F776E657200000000000000000000000000000000000000 PUSH1 0x0 DUP3 ADD MSTORE POP JUMP JUMPDEST PUSH1 0x0 PUSH2 0x3620 PUSH1 0xD DUP4 PUSH2 0x29A3 JUMP JUMPDEST SWAP2 POP PUSH2 0x362B DUP3 PUSH2 0x35EA JUMP JUMPDEST PUSH1 0x20 DUP3 ADD SWAP1 POP SWAP2 SWAP1 POP JUMP JUMPDEST PUSH1 0x0 PUSH1 0x20 DUP3 ADD SWAP1 POP DUP2 DUP2 SUB PUSH1 0x0 DUP4 ADD MSTORE PUSH2 0x364F DUP2 PUSH2 0x3613 JUMP JUMPDEST SWAP1 POP SWAP2 SWAP1 POP JUMP JUMPDEST PUSH32 0x5072696365206D7573742062652067726561746572207468616E207A65726F00 PUSH1 0x0 DUP3 ADD MSTORE POP JUMP JUMPDEST PUSH1 0x0 PUSH2 0x368C PUSH1 0x1F DUP4 PUSH2 0x29A3 JUMP JUMPDEST SWAP2 POP PUSH2 0x3697 DUP3 PUSH2 0x3656 JUMP JUMPDEST PUSH1 0x20 DUP3 ADD SWAP1 POP SWAP2 SWAP1 POP JUMP JUMPDEST PUSH1 0x0 PUSH1 0x20 DUP3 ADD SWAP1 POP DUP2 DUP2 SUB PUSH1 0x0 DUP4 ADD MSTORE PUSH2 0x36BB DUP2 PUSH2 0x367F JUMP JUMPDEST SWAP1 POP SWAP2 SWAP1 POP JUMP JUMPDEST PUSH32 0x4552433732313A2061646472657373207A65726F206973206E6F742061207661 PUSH1 0x0 DUP3 ADD MSTORE PUSH32 0x6C6964206F776E65720000000000000000000000000000000000000000000000 PUSH1 0x20 DUP3 ADD MSTORE POP JUMP JUMPDEST PUSH1 0x0 PUSH2 0x371E PUSH1 0x29 DUP4 PUSH2 0x29A3 JUMP JUMPDEST SWAP2 POP PUSH2 0x3729 DUP3 PUSH2 0x36C2 JUMP JUMPDEST PUSH1 0x40 DUP3 ADD SWAP1 POP SWAP2 SWAP1 POP JUMP JUMPDEST PUSH1 0x0 PUSH1 0x20 DUP3 ADD SWAP1 POP DUP2 DUP2 SUB PUSH1 0x0 DUP4 ADD MSTORE PUSH2 0x374D DUP2 PUSH2 0x3711 JUMP JUMPDEST SWAP1 POP SWAP2 SWAP1 POP JUMP JUMPDEST PUSH32 0x526573616C65206C697374696E67206973206E6F742061637469766500000000 PUSH1 0x0 DUP3 ADD MSTORE POP JUMP JUMPDEST PUSH1 0x0 PUSH2 0x378A PUSH1 0x1C DUP4 PUSH2 0x29A3 JUMP JUMPDEST SWAP2 POP PUSH2 0x3795 DUP3 PUSH2 0x3754 JUMP JUMPDEST PUSH1 0x20 DUP3 ADD SWAP1 POP SWAP2 SWAP1 POP JUMP JUMPDEST PUSH1 0x0 PUSH1 0x20 DUP3 ADD SWAP1 POP DUP2 DUP2 SUB PUSH1 0x0 DUP4 ADD MSTORE PUSH2 0x37B9 DUP2 PUSH2 0x377D JUMP JUMPDEST SWAP1 POP SWAP2 SWAP1 POP JUMP JUMPDEST PUSH1 0x0 DUP2 SWAP1 POP SWAP3 SWAP2 POP POP JUMP JUMPDEST PUSH1 0x0 PUSH2 0x37D6 DUP3 PUSH2 0x2998 JUMP JUMPDEST PUSH2 0x37E0 DUP2 DUP6 PUSH2 0x37C0 JUMP JUMPDEST SWAP4 POP PUSH2 0x37F0 DUP2 DUP6 PUSH1 0x20 DUP7 ADD PUSH2 0x29B4 JUMP JUMPDEST DUP1 DUP5 ADD SWAP2 POP POP SWAP3 SWAP2 POP POP JUMP JUMPDEST PUSH1 0x0 PUSH2 0x3808 DUP3 DUP6 PUSH2 0x37CB JUMP JUMPDEST SWAP2 POP PUSH2 0x3814 DUP3 DUP5 PUSH2 0x37CB JUMP JUMPDEST SWAP2 POP DUP2 SWAP1 POP SWAP4 SWAP3 POP POP POP JUMP JUMPDEST PUSH32 0x4E6F74207468652073656C6C6572000000000000000000000000000000000000 PUSH1 0x0 DUP3 ADD MSTORE POP JUMP JUMPDEST PUSH1 0x0 PUSH2 0x3856 PUSH1 0xE DUP4 PUSH2 0x29A3 JUMP JUMPDEST SWAP2 POP PUSH2 0x3861 DUP3 PUSH2 0x3820 JUMP JUMPDEST PUSH1 0x20 DUP3 ADD SWAP1 POP SWAP2 SWAP1 POP JUMP JUMPDEST PUSH1 0x0 PUSH1 0x20 DUP3 ADD SWAP1 POP DUP2 DUP2 SUB PUSH1 0x0 DUP4 ADD MSTORE PUSH2 0x3885 DUP2 PUSH2 0x3849 JUMP JUMPDEST SWAP1 POP SWAP2 SWAP1 POP JUMP JUMPDEST PUSH32 0x4552433732313A207472616E736665722066726F6D20696E636F727265637420 PUSH1 0x0 DUP3 ADD MSTORE PUSH32 0x6F776E6572000000000000000000000000000000000000000000000000000000 PUSH1 0x20 DUP3 ADD MSTORE POP JUMP JUMPDEST PUSH1 0x0 PUSH2 0x38E8 PUSH1 0x25 DUP4 PUSH2 0x29A3 JUMP JUMPDEST SWAP2 POP PUSH2 0x38F3 DUP3 PUSH2 0x388C JUMP JUMPDEST PUSH1 0x40 DUP3 ADD SWAP1 POP SWAP2 SWAP1 POP JUMP JUMPDEST PUSH1 0x0 PUSH1 0x20 DUP3 ADD SWAP1 POP DUP2 DUP2 SUB PUSH1 0x0 DUP4 ADD MSTORE PUSH2 0x3917 DUP2 PUSH2 0x38DB JUMP JUMPDEST SWAP1 POP SWAP2 SWAP1 POP JUMP JUMPDEST PUSH32 0x4552433732313A207472616E7366657220746F20746865207A65726F20616464 PUSH1 0x0 DUP3 ADD MSTORE PUSH32 0x7265737300000000000000000000000000000000000000000000000000000000 PUSH1 0x20 DUP3 ADD MSTORE POP JUMP JUMPDEST PUSH1 0x0 PUSH2 0x397A PUSH1 0x24 DUP4 PUSH2 0x29A3 JUMP JUMPDEST SWAP2 POP PUSH2 0x3985 DUP3 PUSH2 0x391E JUMP JUMPDEST PUSH1 0x40 DUP3 ADD SWAP1 POP SWAP2 SWAP1 POP JUMP JUMPDEST PUSH1 0x0 PUSH1 0x20 DUP3 ADD SWAP1 POP DUP2 DUP2 SUB PUSH1 0x0 DUP4 ADD MSTORE PUSH2 0x39A9 DUP2 PUSH2 0x396D JUMP JUMPDEST SWAP1 POP SWAP2 SWAP1 POP JUMP JUMPDEST PUSH32 0x5265656E7472616E637947756172643A207265656E7472616E742063616C6C00 PUSH1 0x0 DUP3 ADD MSTORE POP JUMP JUMPDEST PUSH1 0x0 PUSH2 0x39E6 PUSH1 0x1F DUP4 PUSH2 0x29A3 JUMP JUMPDEST SWAP2 POP PUSH2 0x39F1 DUP3 PUSH2 0x39B0 JUMP JUMPDEST PUSH1 0x20 DUP3 ADD SWAP1 POP SWAP2 SWAP1 POP JUMP JUMPDEST PUSH1 0x0 PUSH1 0x20 DUP3 ADD SWAP1 POP DUP2 DUP2 SUB PUSH1 0x0 DUP4 ADD MSTORE PUSH2 0x3A15 DUP2 PUSH2 0x39D9 JUMP JUMPDEST SWAP1 POP SWAP2 SWAP1 POP JUMP JUMPDEST PUSH32 0x4552433732313A20617070726F766520746F2063616C6C657200000000000000 PUSH1 0x0 DUP3 ADD MSTORE POP JUMP JUMPDEST PUSH1 0x0 PUSH2 0x3A52 PUSH1 0x19 DUP4 PUSH2 0x29A3 JUMP JUMPDEST SWAP2 POP PUSH2 0x3A5D DUP3 PUSH2 0x3A1C JUMP JUMPDEST PUSH1 0x20 DUP3 ADD SWAP1 POP SWAP2 SWAP1 POP JUMP JUMPDEST PUSH1 0x0 PUSH1 0x20 DUP3 ADD SWAP1 POP DUP2 DUP2 SUB PUSH1 0x0 DUP4 ADD MSTORE PUSH2 0x3A81 DUP2 PUSH2 0x3A45 JUMP JUMPDEST SWAP1 POP SWAP2 SWAP1 POP JUMP JUMPDEST PUSH32 0x4552433732313A207472616E7366657220746F206E6F6E204552433732315265 PUSH1 0x0 DUP3 ADD MSTORE PUSH32 0x63656976657220696D706C656D656E7465720000000000000000000000000000 PUSH1 0x20 DUP3 ADD MSTORE POP JUMP JUMPDEST PUSH1 0x0 PUSH2 0x3AE4 PUSH1 0x32 DUP4 PUSH2 0x29A3 JUMP JUMPDEST SWAP2 POP PUSH2 0x3AEF DUP3 PUSH2 0x3A88 JUMP JUMPDEST PUSH1 0x40 DUP3 ADD SWAP1 POP SWAP2 SWAP1 POP JUMP JUMPDEST PUSH1 0x0 PUSH1 0x20 DUP3 ADD SWAP1 POP DUP2 DUP2 SUB PUSH1 0x0 DUP4 ADD MSTORE PUSH2 0x3B13 DUP2 PUSH2 0x3AD7 JUMP JUMPDEST SWAP1 POP SWAP2 SWAP1 POP JUMP JUMPDEST PUSH32 0x4E487B7100000000000000000000000000000000000000000000000000000000 PUSH1 0x0 MSTORE PUSH1 0x12 PUSH1 0x4 MSTORE PUSH1 0x24 PUSH1 0x0 REVERT JUMPDEST PUSH32 0x4552433732313A206D696E7420746F20746865207A65726F2061646472657373 PUSH1 0x0 DUP3 ADD MSTORE POP JUMP JUMPDEST PUSH1 0x0 PUSH2 0x3B7F PUSH1 0x20 DUP4 PUSH2 0x29A3 JUMP JUMPDEST SWAP2 POP PUSH2 0x3B8A DUP3 PUSH2 0x3B49 JUMP JUMPDEST PUSH1 0x20 DUP3 ADD SWAP1 POP SWAP2 SWAP1 POP JUMP JUMPDEST PUSH1 0x0 PUSH1 0x20 DUP3 ADD SWAP1 POP DUP2 DUP2 SUB PUSH1 0x0 DUP4 ADD MSTORE PUSH2 0x3BAE DUP2 PUSH2 0x3B72 JUMP JUMPDEST SWAP1 POP SWAP2 SWAP1 POP JUMP JUMPDEST PUSH32 0x4552433732313A20746F6B656E20616C7265616479206D696E74656400000000 PUSH1 0x0 DUP3 ADD MSTORE POP JUMP JUMPDEST PUSH1 0x0 PUSH2 0x3BEB PUSH1 0x1C DUP4 PUSH2 0x29A3 JUMP JUMPDEST SWAP2 POP PUSH2 0x3BF6 DUP3 PUSH2 0x3BB5 JUMP JUMPDEST PUSH1 0x20 DUP3 ADD SWAP1 POP SWAP2 SWAP1 POP JUMP JUMPDEST PUSH1 0x0 PUSH1 0x20 DUP3 ADD SWAP1 POP DUP2 DUP2 SUB PUSH1 0x0 DUP4 ADD MSTORE PUSH2 0x3C1A DUP2 PUSH2 0x3BDE JUMP JUMPDEST SWAP1 POP SWAP2 SWAP1 POP JUMP JUMPDEST PUSH1 0x0 DUP2 MLOAD SWAP1 POP SWAP2 SWAP1 POP JUMP JUMPDEST PUSH1 0x0 DUP3 DUP3 MSTORE PUSH1 0x20 DUP3 ADD SWAP1 POP SWAP3 SWAP2 POP POP JUMP JUMPDEST PUSH1 0x0 PUSH2 0x3C48 DUP3 PUSH2 0x3C21 JUMP JUMPDEST PUSH2 0x3C52 DUP2 DUP6 PUSH2 0x3C2C JUMP JUMPDEST SWAP4 POP PUSH2 0x3C62 DUP2 DUP6 PUSH1 0x20 DUP7 ADD PUSH2 0x29B4 JUMP JUMPDEST PUSH2 0x3C6B DUP2 PUSH2 0x29DE JUMP JUMPDEST DUP5 ADD SWAP2 POP POP SWAP3 SWAP2 POP POP JUMP JUMPDEST PUSH1 0x0 PUSH1 0x80 DUP3 ADD SWAP1 POP PUSH2 0x3C8B PUSH1 0x0 DUP4 ADD DUP8 PUSH2 0x2ADF JUMP JUMPDEST PUSH2 0x3C98 PUSH1 0x20 DUP4 ADD DUP7 PUSH2 0x2ADF JUMP JUMPDEST PUSH2 0x3CA5 PUSH1 0x40 DUP4 ADD DUP6 PUSH2 0x2D6E JUMP JUMPDEST DUP2 DUP2 SUB PUSH1 0x60 DUP4 ADD MSTORE PUSH2 0x3CB7 DUP2 DUP5 PUSH2 0x3C3D JUMP JUMPDEST SWAP1 POP SWAP6 SWAP5 POP POP POP POP POP JUMP JUMPDEST PUSH1 0x0 DUP2 MLOAD SWAP1 POP PUSH2 0x3CD1 DUP2 PUSH2 0x2909 JUMP JUMPDEST SWAP3 SWAP2 POP POP JUMP JUMPDEST PUSH1 0x0 PUSH1 0x20 DUP3 DUP5 SUB SLT ISZERO PUSH2 0x3CED JUMPI PUSH2 0x3CEC PUSH2 0x28D3 JUMP JUMPDEST JUMPDEST PUSH1 0x0 PUSH2 0x3CFB DUP5 DUP3 DUP6 ADD PUSH2 0x3CC2 JUMP JUMPDEST SWAP2 POP POP SWAP3 SWAP2 POP POP JUMP INVALID LOG2 PUSH5 0x6970667358 0x22 SLT KECCAK256 DUP11 SWAP8 0xD5 SIGNEXTEND 0x4D 0x25 0xD0 SELFBALANCE RETURNDATASIZE 0xE6 ADD DUP10 LOG2 MLOAD CALLDATASIZE 0xF7 MSTORE8 0x4B 0xE2 LOG0 0xE8 MSIZE 0xB1 DUP12 0xB2 0xA7 0xF8 0xD BALANCE KECCAK256 0xB8 0xBD PUSH5 0x736F6C6343 STOP ADDMOD EQ STOP CALLER "},"methodIdentifiers":{"approve(address,uint256)":"095ea7b3","balanceOf(address)":"70a08231","buyNFT(uint256)":"51ed8288","buyResaleNFT(uint256)":"bf5ea569","cancelListing(uint256,bool)":"dd68f53a","getActiveResaleListings()":"0d6e9890","getApproved(uint256)":"081812fc","getPurchasesByBuyer(address)":"7d690e0a","isApprovedForAll(address,address)":"e985e9c5","listNFT(uint256)":"d076f13f","listNFTForResale(uint256,uint256)":"6fafa865","listings(uint256)":"de74e57b","name()":"06fdde03","ownerOf(uint256)":"6352211e","resaleListings(uint256)":"b41b4bd4","safeTransferFrom(address,address,uint256)":"42842e0e","safeTransferFrom(address,address,uint256,bytes)":"b88d4fde","setApprovalForAll(address,bool)":"a22cb465","supportsInterface(bytes4)":"01ffc9a7","symbol()":"95d89b41","tokenURI(uint256)":"c87b56dd","transferFrom(address,address,uint256)":"23b872dd"}}}}}