{
  "_format": "hh-sol-artifact-1",
  "contractName": "NFTMarketplace",
  "sourceName": "contracts/NFTMarketplace.sol",
  "abi": [
    {
      "anonymous": false,
      "inputs": [
        {
          "indexed": true,
          "internalType": "uint256",
          "name": "listingId",
          "type": "uint256"
        },
        {
          "indexed": true,
          "internalType": "uint256",
          "name": "tokenId",
          "type": "uint256"
        },
        {
          "indexed": true,
          "internalType": "address",
          "name": "buyer",
          "type": "address"
        },
        {
          "indexed": false,
          "internalType": "uint256",
          "name": "price",
          "type": "uint256"
        },
        {
          "indexed": false,
          "internalType": "string",
          "name": "imageURL",
          "type": "string"
        }
      ],
      "name": "NFTPurchased",
      "type": "event"
    },
    {
      "anonymous": false,
      "inputs": [
        {
          "indexed": true,
          "internalType": "uint256",
          "name": "listingId",
          "type": "uint256"
        },
        {
          "indexed": true,
          "internalType": "uint256",
          "name": "tokenId",
          "type": "uint256"
        },
        {
          "indexed": true,
          "internalType": "address",
          "name": "seller",
          "type": "address"
        },
        {
          "indexed": false,
          "internalType": "uint256",
          "name": "newPrice",
          "type": "uint256"
        },
        {
          "indexed": false,
          "internalType": "string",
          "name": "imageURL",
          "type": "string"
        }
      ],
      "name": "NFTRelisted",
      "type": "event"
    },
    {
      "inputs": [
        {
          "internalType": "uint256",
          "name": "listingId",
          "type": "uint256"
        },
        {
          "internalType": "string",
          "name": "imageURL",
          "type": "string"
        }
      ],
      "name": "buyNFT",
      "outputs": [],
      "stateMutability": "payable",
      "type": "function"
    },
    {
      "inputs": [
        {
          "internalType": "uint256",
          "name": "tokenId",
          "type": "uint256"
        }
      ],
      "name": "buyRelistedNFT",
      "outputs": [],
      "stateMutability": "payable",
      "type": "function"
    },
    {
      "inputs": [
        {
          "internalType": "address",
          "name": "buyer",
          "type": "address"
        }
      ],
      "name": "getPurchasesByBuyer",
      "outputs": [
        {
          "components": [
            {
              "internalType": "uint256",
              "name": "listingId",
              "type": "uint256"
            },
            {
              "internalType": "address",
              "name": "buyer",
              "type": "address"
            },
            {
              "internalType": "uint256",
              "name": "price",
              "type": "uint256"
            },
            {
              "internalType": "uint256",
              "name": "tokenId",
              "type": "uint256"
            },
            {
              "internalType": "string",
              "name": "imageURL",
              "type": "string"
            },
            {
              "internalType": "uint256",
              "name": "timestamp",
              "type": "uint256"
            },
            {
              "internalType": "bool",
              "name": "isListed",
              "type": "bool"
            }
          ],
          "internalType": "struct NFTMarketplace.Purchase[]",
          "name": "",
          "type": "tuple[]"
        }
      ],
      "stateMutability": "view",
      "type": "function"
    },
    {
      "inputs": [],
      "name": "getRelistedNFTs",
      "outputs": [
        {
          "components": [
            {
              "internalType": "uint256",
              "name": "listingId",
              "type": "uint256"
            },
            {
              "internalType": "address",
              "name": "buyer",
              "type": "address"
            },
            {
              "internalType": "uint256",
              "name": "price",
              "type": "uint256"
            },
            {
              "internalType": "uint256",
              "name": "tokenId",
              "type": "uint256"
            },
            {
              "internalType": "string",
              "name": "imageURL",
              "type": "string"
            },
            {
              "internalType": "uint256",
              "name": "timestamp",
              "type": "uint256"
            },
            {
              "internalType": "bool",
              "name": "isListed",
              "type": "bool"
            }
          ],
          "internalType": "struct NFTMarketplace.Purchase[]",
          "name": "",
          "type": "tuple[]"
        }
      ],
      "stateMutability": "view",
      "type": "function"
    },
    {
      "inputs": [
        {
          "internalType": "uint256",
          "name": "",
          "type": "uint256"
        }
      ],
      "name": "purchases",
      "outputs": [
        {
          "internalType": "uint256",
          "name": "listingId",
          "type": "uint256"
        },
        {
          "internalType": "address",
          "name": "buyer",
          "type": "address"
        },
        {
          "internalType": "uint256",
          "name": "price",
          "type": "uint256"
        },
        {
          "internalType": "uint256",
          "name": "tokenId",
          "type": "uint256"
        },
        {
          "internalType": "string",
          "name": "imageURL",
          "type": "string"
        },
        {
          "internalType": "uint256",
          "name": "timestamp",
          "type": "uint256"
        },
        {
          "internalType": "bool",
          "name": "isListed",
          "type": "bool"
        }
      ],
      "stateMutability": "view",
      "type": "function"
    },
    {
      "inputs": [
        {
          "internalType": "uint256",
          "name": "tokenId",
          "type": "uint256"
        },
        {
          "internalType": "uint256",
          "name": "listingId",
          "type": "uint256"
        },
        {
          "internalType": "uint256",
          "name": "newPrice",
          "type": "uint256"
        }
      ],
      "name": "relistNFT",
      "outputs": [],
      "stateMutability": "nonpayable",
      "type": "function"
    },
    {
      "inputs": [],
      "name": "totalTokens",
      "outputs": [
        {
          "internalType": "uint256",
          "name": "",
          "type": "uint256"
        }
      ],
      "stateMutability": "view",
      "type": "function"
    }
  ],
  "bytecode": "0x608060405234801561001057600080fd5b5061215f806100206000396000f3fe6080604052600436106100705760003560e01c8063480812a81161004e578063480812a8146100d65780637d690e0a146101015780637e1c0c091461013e5780638392fe311461016957610070565b80630854748a1461007557806311df7342146100915780634598a6c4146100ad575b600080fd5b61008f600480360381019061008a91906113ae565b6101ac565b005b6100ab60048036038101906100a6919061140a565b61036b565b005b3480156100b957600080fd5b506100d460048036038101906100cf9190611437565b610856565b005b3480156100e257600080fd5b506100eb610a6c565b6040516100f891906116d2565b60405180910390f35b34801561010d57600080fd5b5061012860048036038101906101239190611720565b610dc9565b60405161013591906116d2565b60405180910390f35b34801561014a57600080fd5b506101536110cc565b604051610160919061175c565b60405180910390f35b34801561017557600080fd5b50610190600480360381019061018b919061140a565b6110d2565b6040516101a397969594939291906117df565b60405180910390f35b600034116101ef576040517f08c379a00000000000000000000000000000000000000000000000000000000081526004016101e6906118c7565b60405180910390fd5b6001600081548092919061020290611916565b9190505550600060015490506040518060e001604052808481526020013373ffffffffffffffffffffffffffffffffffffffff168152602001348152602001828152602001838152602001428152602001600015158152506000808381526020019081526020016000206000820151816000015560208201518160010160006101000a81548173ffffffffffffffffffffffffffffffffffffffff021916908373ffffffffffffffffffffffffffffffffffffffff160217905550604082015181600201556060820151816003015560808201518160040190816102e69190611b6a565b5060a0820151816005015560c08201518160060160006101000a81548160ff0219169083151502179055509050503373ffffffffffffffffffffffffffffffffffffffff1681847fa1e6ebcbada006613bc242aa0c762faf1c5bdc5bd86f14f38bfdd440487cca2a348660405161035e929190611c3c565b60405180910390a4505050565b60008060008381526020019081526020016000206040518060e0016040529081600082015481526020016001820160009054906101000a900473ffffffffffffffffffffffffffffffffffffffff1673ffffffffffffffffffffffffffffffffffffffff1673ffffffffffffffffffffffffffffffffffffffff168152602001600282015481526020016003820154815260200160048201805461040e9061198d565b80601f016020809104026020016040519081016040528092919081815260200182805461043a9061198d565b80156104875780601f1061045c57610100808354040283529160200191610487565b820191906000526020600020905b81548152906001019060200180831161046a57829003601f168201915b50505050508152602001600582015481526020016006820160009054906101000a900460ff16151515158152505090508060c001516104fb576040517f08c379a00000000000000000000000000000000000000000000000000000000081526004016104f290611cb8565b60405180910390fd5b8060400151341015610542576040517f08c379a000000000000000000000000000000000000000000000000000000000815260040161053990611d24565b60405180910390fd5b600073ffffffffffffffffffffffffffffffffffffffff16816020015173ffffffffffffffffffffffffffffffffffffffff16036105b5576040517f08c379a00000000000000000000000000000000000000000000000000000000081526004016105ac90611d90565b60405180910390fd5b6000816020015190506000826040015190506000836080015190506000846000015190503360008088815260200190815260200160002060010160006101000a81548173ffffffffffffffffffffffffffffffffffffffff021916908373ffffffffffffffffffffffffffffffffffffffff16021790555034600080888152602001908152602001600020600201819055504260008088815260200190815260200160002060050181905550600080600088815260200190815260200160002060060160006101000a81548160ff02191690831515021790555060008473ffffffffffffffffffffffffffffffffffffffff16846040516106b590611de1565b60006040518083038185875af1925050503d80600081146106f2576040519150601f19603f3d011682016040523d82523d6000602084013e6106f7565b606091505b505090508061073b576040517f08c379a000000000000000000000000000000000000000000000000000000000815260040161073290611e42565b60405180910390fd5b833411156107fb573373ffffffffffffffffffffffffffffffffffffffff1684346107669190611e62565b60405161077290611de1565b60006040518083038185875af1925050503d80600081146107af576040519150601f19603f3d011682016040523d82523d6000602084013e6107b4565b606091505b505080915050806107fa576040517f08c379a00000000000000000000000000000000000000000000000000000000081526004016107f190611ee2565b60405180910390fd5b5b3373ffffffffffffffffffffffffffffffffffffffff1687837fa1e6ebcbada006613bc242aa0c762faf1c5bdc5bd86f14f38bfdd440487cca2a8787604051610845929190611c3c565b60405180910390a450505050505050565b60008111610899576040517f08c379a000000000000000000000000000000000000000000000000000000000815260040161089090611f4e565b60405180910390fd5b3373ffffffffffffffffffffffffffffffffffffffff1660008085815260200190815260200160002060010160009054906101000a900473ffffffffffffffffffffffffffffffffffffffff1673ffffffffffffffffffffffffffffffffffffffff161461093c576040517f08c379a000000000000000000000000000000000000000000000000000000000815260040161093390611fba565b60405180910390fd5b60008084815260200190815260200160002060060160009054906101000a900460ff161561099f576040517f08c379a000000000000000000000000000000000000000000000000000000000815260040161099690612026565b60405180910390fd5b8060008085815260200190815260200160002060020181905550600160008085815260200190815260200160002060060160006101000a81548160ff02191690831515021790555081600080858152602001908152602001600020600001819055503373ffffffffffffffffffffffffffffffffffffffff1683837fd2ed9bb547ad0050cd7cdd3e9804351e21f1142ad4ae67dec73a83041bdc316684600080898152602001908152602001600020600401604051610a5f9291906120ca565b60405180910390a4505050565b6060600080600190505b6001548111610b375760008082815260200190815260200160002060060160009054906101000a900460ff168015610b105750600073ffffffffffffffffffffffffffffffffffffffff1660008083815260200190815260200160002060010160009054906101000a900473ffffffffffffffffffffffffffffffffffffffff1673ffffffffffffffffffffffffffffffffffffffff1614155b15610b24578180610b2090611916565b9250505b8080610b2f90611916565b915050610a76565b5060008167ffffffffffffffff811115610b5457610b53611283565b5b604051908082528060200260200182016040528015610b8d57816020015b610b7a6111c9565b815260200190600190039081610b725790505b509050600080600190505b6001548111610dbf5760008082815260200190815260200160002060060160009054906101000a900460ff168015610c325750600073ffffffffffffffffffffffffffffffffffffffff1660008083815260200190815260200160002060010160009054906101000a900473ffffffffffffffffffffffffffffffffffffffff1673ffffffffffffffffffffffffffffffffffffffff1614155b15610dac576000808281526020019081526020016000206040518060e0016040529081600082015481526020016001820160009054906101000a900473ffffffffffffffffffffffffffffffffffffffff1673ffffffffffffffffffffffffffffffffffffffff1673ffffffffffffffffffffffffffffffffffffffff1681526020016002820154815260200160038201548152602001600482018054610cd89061198d565b80601f0160208091040260200160405190810160405280929190818152602001828054610d049061198d565b8015610d515780601f10610d2657610100808354040283529160200191610d51565b820191906000526020600020905b815481529060010190602001808311610d3457829003601f168201915b50505050508152602001600582015481526020016006820160009054906101000a900460ff161515151581525050838381518110610d9257610d916120fa565b5b60200260200101819052508180610da890611916565b9250505b8080610db790611916565b915050610b98565b5081935050505090565b6060600080600190505b6001548111610e66578373ffffffffffffffffffffffffffffffffffffffff1660008083815260200190815260200160002060010160009054906101000a900473ffffffffffffffffffffffffffffffffffffffff1673ffffffffffffffffffffffffffffffffffffffff1603610e53578180610e4f90611916565b9250505b8080610e5e90611916565b915050610dd3565b5060008167ffffffffffffffff811115610e8357610e82611283565b5b604051908082528060200260200182016040528015610ebc57816020015b610ea96111c9565b815260200190600190039081610ea15790505b509050600080600190505b60015481116110c0578573ffffffffffffffffffffffffffffffffffffffff1660008083815260200190815260200160002060010160009054906101000a900473ffffffffffffffffffffffffffffffffffffffff1673ffffffffffffffffffffffffffffffffffffffff16036110ad576000808281526020019081526020016000206040518060e0016040529081600082015481526020016001820160009054906101000a900473ffffffffffffffffffffffffffffffffffffffff1673ffffffffffffffffffffffffffffffffffffffff1673ffffffffffffffffffffffffffffffffffffffff1681526020016002820154815260200160038201548152602001600482018054610fd99061198d565b80601f01602080910402602001604051908101604052809291908181526020018280546110059061198d565b80156110525780601f1061102757610100808354040283529160200191611052565b820191906000526020600020905b81548152906001019060200180831161103557829003601f168201915b50505050508152602001600582015481526020016006820160009054906101000a900460ff161515151581525050838381518110611093576110926120fa565b5b602002602001018190525081806110a990611916565b9250505b80806110b890611916565b915050610ec7565b50819350505050919050565b60015481565b60006020528060005260406000206000915090508060000154908060010160009054906101000a900473ffffffffffffffffffffffffffffffffffffffff169080600201549080600301549080600401805461112d9061198d565b80601f01602080910402602001604051908101604052809291908181526020018280546111599061198d565b80156111a65780601f1061117b576101008083540402835291602001916111a6565b820191906000526020600020905b81548152906001019060200180831161118957829003601f168201915b5050505050908060050154908060060160009054906101000a900460ff16905087565b6040518060e0016040528060008152602001600073ffffffffffffffffffffffffffffffffffffffff168152602001600081526020016000815260200160608152602001600081526020016000151581525090565b6000604051905090565b600080fd5b600080fd5b6000819050919050565b61124581611232565b811461125057600080fd5b50565b6000813590506112628161123c565b92915050565b600080fd5b600080fd5b6000601f19601f8301169050919050565b7f4e487b7100000000000000000000000000000000000000000000000000000000600052604160045260246000fd5b6112bb82611272565b810181811067ffffffffffffffff821117156112da576112d9611283565b5b80604052505050565b60006112ed61121e565b90506112f982826112b2565b919050565b600067ffffffffffffffff82111561131957611318611283565b5b61132282611272565b9050602081019050919050565b82818337600083830152505050565b600061135161134c846112fe565b6112e3565b90508281526020810184848401111561136d5761136c61126d565b5b61137884828561132f565b509392505050565b600082601f83011261139557611394611268565b5b81356113a584826020860161133e565b91505092915050565b600080604083850312156113c5576113c4611228565b5b60006113d385828601611253565b925050602083013567ffffffffffffffff8111156113f4576113f361122d565b5b61140085828601611380565b9150509250929050565b6000602082840312156114205761141f611228565b5b600061142e84828501611253565b91505092915050565b6000806000606084860312156114505761144f611228565b5b600061145e86828701611253565b935050602061146f86828701611253565b925050604061148086828701611253565b9150509250925092565b600081519050919050565b600082825260208201905092915050565b6000819050602082019050919050565b6114bf81611232565b82525050565b600073ffffffffffffffffffffffffffffffffffffffff82169050919050565b60006114f0826114c5565b9050919050565b611500816114e5565b82525050565b600081519050919050565b600082825260208201905092915050565b60005b83811015611540578082015181840152602081019050611525565b60008484015250505050565b600061155782611506565b6115618185611511565b9350611571818560208601611522565b61157a81611272565b840191505092915050565b60008115159050919050565b61159a81611585565b82525050565b600060e0830160008301516115b860008601826114b6565b5060208301516115cb60208601826114f7565b5060408301516115de60408601826114b6565b5060608301516115f160608601826114b6565b5060808301518482036080860152611609828261154c565b91505060a083015161161e60a08601826114b6565b5060c083015161163160c0860182611591565b508091505092915050565b600061164883836115a0565b905092915050565b6000602082019050919050565b60006116688261148a565b6116728185611495565b935083602082028501611684856114a6565b8060005b858110156116c057848403895281516116a1858261163c565b94506116ac83611650565b925060208a01995050600181019050611688565b50829750879550505050505092915050565b600060208201905081810360008301526116ec818461165d565b905092915050565b6116fd816114e5565b811461170857600080fd5b50565b60008135905061171a816116f4565b92915050565b60006020828403121561173657611735611228565b5b60006117448482850161170b565b91505092915050565b61175681611232565b82525050565b6000602082019050611771600083018461174d565b92915050565b611780816114e5565b82525050565b600082825260208201905092915050565b60006117a282611506565b6117ac8185611786565b93506117bc818560208601611522565b6117c581611272565b840191505092915050565b6117d981611585565b82525050565b600060e0820190506117f4600083018a61174d565b6118016020830189611777565b61180e604083018861174d565b61181b606083018761174d565b818103608083015261182d8186611797565b905061183c60a083018561174d565b61184960c08301846117d0565b98975050505050505050565b7f5061796d656e74206d7573742062652067726561746572207468616e207a657260008201527f6f00000000000000000000000000000000000000000000000000000000000000602082015250565b60006118b1602183611786565b91506118bc82611855565b604082019050919050565b600060208201905081810360008301526118e0816118a4565b9050919050565b7f4e487b7100000000000000000000000000000000000000000000000000000000600052601160045260246000fd5b600061192182611232565b91507fffffffffffffffffffffffffffffffffffffffffffffffffffffffffffffffff8203611953576119526118e7565b5b600182019050919050565b7f4e487b7100000000000000000000000000000000000000000000000000000000600052602260045260246000fd5b600060028204905060018216806119a557607f821691505b6020821081036119b8576119b761195e565b5b50919050565b60008190508160005260206000209050919050565b60006020601f8301049050919050565b600082821b905092915050565b600060088302611a207fffffffffffffffffffffffffffffffffffffffffffffffffffffffffffffffff826119e3565b611a2a86836119e3565b95508019841693508086168417925050509392505050565b6000819050919050565b6000611a67611a62611a5d84611232565b611a42565b611232565b9050919050565b6000819050919050565b611a8183611a4c565b611a95611a8d82611a6e565b8484546119f0565b825550505050565b600090565b611aaa611a9d565b611ab5818484611a78565b505050565b5b81811015611ad957611ace600082611aa2565b600181019050611abb565b5050565b601f821115611b1e57611aef816119be565b611af8846119d3565b81016020851015611b07578190505b611b1b611b13856119d3565b830182611aba565b50505b505050565b600082821c905092915050565b6000611b4160001984600802611b23565b1980831691505092915050565b6000611b5a8383611b30565b9150826002028217905092915050565b611b7382611506565b67ffffffffffffffff811115611b8c57611b8b611283565b5b611b96825461198d565b611ba1828285611add565b600060209050601f831160018114611bd45760008415611bc2578287015190505b611bcc8582611b4e565b865550611c34565b601f198416611be2866119be565b60005b82811015611c0a57848901518255600182019150602085019450602081019050611be5565b86831015611c275784890151611c23601f891682611b30565b8355505b6001600288020188555050505b505050505050565b6000604082019050611c51600083018561174d565b8181036020830152611c638184611797565b90509392505050565b7f4e4654206973206e6f74206c697374656420666f722073616c65000000000000600082015250565b6000611ca2601a83611786565b9150611cad82611c6c565b602082019050919050565b60006020820190508181036000830152611cd181611c95565b9050919050565b7f496e73756666696369656e74207061796d656e74000000000000000000000000600082015250565b6000611d0e601483611786565b9150611d1982611cd8565b602082019050919050565b60006020820190508181036000830152611d3d81611d01565b9050919050565b7f4e465420646f6573206e6f742065786973740000000000000000000000000000600082015250565b6000611d7a601283611786565b9150611d8582611d44565b602082019050919050565b60006020820190508181036000830152611da981611d6d565b9050919050565b600081905092915050565b50565b6000611dcb600083611db0565b9150611dd682611dbb565b600082019050919050565b6000611dec82611dbe565b9150819050919050565b7f5061796d656e7420746f2070726576696f7573206f776e6572206661696c6564600082015250565b6000611e2c602083611786565b9150611e3782611df6565b602082019050919050565b60006020820190508181036000830152611e5b81611e1f565b9050919050565b6000611e6d82611232565b9150611e7883611232565b9250828203905081811115611e9057611e8f6118e7565b5b92915050565b7f526566756e64206661696c656400000000000000000000000000000000000000600082015250565b6000611ecc600d83611786565b9150611ed782611e96565b602082019050919050565b60006020820190508181036000830152611efb81611ebf565b9050919050565b7f5072696365206d7573742062652067726561746572207468616e207a65726f00600082015250565b6000611f38601f83611786565b9150611f4382611f02565b602082019050919050565b60006020820190508181036000830152611f6781611f2b565b9050919050565b7f596f7520646f6e2774206f776e2074686973204e465400000000000000000000600082015250565b6000611fa4601683611786565b9150611faf82611f6e565b602082019050919050565b60006020820190508181036000830152611fd381611f97565b9050919050565b7f4e465420697320616c7265616479206c69737465640000000000000000000000600082015250565b6000612010601583611786565b915061201b82611fda565b602082019050919050565b6000602082019050818103600083015261203f81612003565b9050919050565b600081546120538161198d565b61205d8186611786565b94506001821660008114612078576001811461208e576120c1565b60ff1983168652811515602002860193506120c1565b612097856119be565b60005b838110156120b95781548189015260018201915060208101905061209a565b808801955050505b50505092915050565b60006040820190506120df600083018561174d565b81810360208301526120f18184612046565b90509392505050565b7f4e487b7100000000000000000000000000000000000000000000000000000000600052603260045260246000fdfea26469706673582212209885f2e58a2c59f7ecf24a7f96e07ce911b564fc3479a7b7a021bf1b4c06982c64736f6c63430008140033",
  "linkReferences": {},
  "deployedLinkReferences": {}
}